:020000040800F2
:100000000809002061020008692F0008B52D0008CA
:10001000652F00080D140008A13000080000000042
:10002000000000000000000000000000712F000828
:1000300011140008000000006D2F0008752F000843
:100040007B0200087B0200087B0200087B0200089C
:100050007B0200087B020008151400081D1400082C
:100060007B0200087B020008251400087B020008C0
:100070007B0200087B0200087B0200087B0200086C
:100080007B0200087B0200087B0200087B0200085C
:100090007B0200087B0200087B0200087B0200084C
:1000A0007B0200087B0200087B0200087B0200083C
:1000B0007D2F00087B0200087B0200087B020008FD
:1000C0007B0200087B0200087B0200087B0200081C
:1000D0007B0200087B020008953000087B020008C4
:1000E0007B0200087B0200087B02000800F002F897
:1000F00000F0A6F814A696E8000CB244B344DA4522
:1001000001D100F09DF8BAE80F000FA696E8300084
:10011000A5EB040504EB0607AAEB0704A7F101070A
:100120004FEA15154FEA3414A4F10104AC4201D38F
:1001300000F086F813F0010F18BFFB1A43F001031B
:1001400000F001F8DBE71847F8430000184400000E
:10015000103A24BF78C878C1FAD8520724BF30C8F3
:1001600030C144BF04680C60704700007047000055
:100170000023002400250026103A28BF78C1FBD8B0
:10018000520728BF30C148BF0B6070476E2900F08E
:100190007381702900F0B782662904F019816529FE
:1001A00004F01681672904F01381612904F012819B
:1001B00003681B0A28BF41F08001692900F02081F3
:1001C000642900F01D81752900F01A816F2900F063
:1001D0004582782900F08382E92900F0DF81E42953
:1001E00000F0DC81F52900F0D981EF2900F042828E
:1001F000F82900F082820368DB0928BF41F0800102
:10020000632900F08387732900F08887E32900F0D1
:100210009387F32900F09887002070471FB500F0FE
:10022000E9FF04000020002104F0BCF8401C6060DD
:100230000020002104F0A0F8E0601FBD10B510BD43
:1002400000F0AAFF1146FFF7E9FF02F06FFF01F08F
:1002500087F803B4FFF7F2FF03BC01F0CFF800000A
:100260000948804709480047FEE7FEE7FEE7FEE74A
:10027000FEE7FEE7FEE7FEE7FEE7FEE70448054986
:10028000054A064B70470000792F0008ED00000872
:1002900008030020080900200805002008050020A8
:1002A0007CB51D4616460C00009007D04142A14285
:1002B00002D32044401E01E04FF0FF30064B7B4448
:1002C0002A4669460190304600F0EFF8002C02D033
:1002D000009A002111707CBD0F02000040EA01036A
:1002E00010B59B070FD1042A0DD310C808C9121FDF
:1002F0009C42F8D020BA19BA884201D9012010BD19
:100300004FF0FF3010BD1AB1D30703D0521C07E0E5
:10031000002010BD10F8013B11F8014B1B1B07D149
:1003200010F8013B11F8014B1B1B01D1921EF1D1BA
:10033000184610BD70477047704770B50446856910
:100340000068C10601D5302600E02026C00707D08E
:1003500070BDD4E9012130469047206A401C2062DC
:100360006D1EF6D570BD70B5044685690078C0076E
:1003700007D170BDD4E9012120209047206A401C9C
:1003800020626D1EF6D570BD09684A0501D540B2E0
:100390007047C905FCD500B2704709684A0501D508
:1003A000C0B27047C905FCD580B2704770B50C4625
:1003B0000546012A05D02878800600D5EA69002381
:1003C00002E0012305E05B1C934202D2E05C0028BE
:1003D000F9D1A869E618C01AA861286A18442862E9
:1003E0002846FFF7AAFF04E0D5E9012114F8010B24
:1003F0009047B442F8D32846FFF7B5FF70BD000020
:100400002DE9F0410646002410687529314616A5ED
:1004100010D0FFF7B9FF002802DA404213A507E029
:1004200031688A0701D512A502E0490704D511A554
:10043000012401E0FFF7B1FF00210A2206F12407A1
:1004400009E0B0FBF2FCB0FBF2F302FB1C00303021
:1004500078541846491C0028F3D123462A463046D2
:10046000BDE8F04100F063BA000000002D0000007C
:100470002B0000002000000011680268006A53058C
:1004800001D508700AE0D30501D5088006E01306FF
:1004900003D5C217C1E9000200E0086001207047DF
:1004A00001694A1C02610878704700B58FB0CDE938
:1004B00001310021059105497944CDE90310114628
:1004C000684600F02BF90FB000BD0000E5FFFFFF0C
:1004D000D1E900239A4202D2531C0B60107070477E
:1004E0002DE9FF5F15468A460446DFF8AC80F844E4
:1004F0000027D8E900103E46CDE9001010E03AF898
:1005000016106A4602A800F023FE411C07D021788D
:10051000890603D5E269391891420DD80744761C43
:100520002078800602D5E069B84205DDAE42E6DB00
:100530003AF816000028E2D1A069C01BA06120464D
:10054000FFF7FBFED8E90010CDE90010002017E00E
:100550003AF818106A4602A800F0FAFDB0F1FF3F21
:1005600081460BD000250DF1080B05E0D4E90121EF
:100570001BF8050090476D1C4D45F7D308F10100AD
:10058000B0428046E4DB206A384420622046FFF710
:10059000EAFEBDE8FF9F0000E63E00002DE9F041C5
:1005A0008046D21D22F007020025D2E90002F5297B
:1005B00015A614D0011E72F1000106DA0023D0EB5B
:1005C000030063EB020211A608E0D8F800108B07C5
:1005D00001D50FA602E0490701D50EA60125114657
:1005E000002408F1240704E000F05CF930323A55A9
:1005F000641C50EA0102F7D12B46324621464046A0
:10060000BDE8F04100F093B9000000002D000000AB
:100610002B0000002000000030B4002100F1240471
:1006200008E002F00705D208303542EA4372DB08E1
:100630006554491C52EA0305F3D10468002310A253
:10064000250708D504F020040C4304D0C469012315
:100650000CA2641EC46130BC00F069B910B5044638
:1006600021461068FFF799FE02462046BDE810407B
:100670000023D1E7D21D22F00701D1E90023CBE707
:100680000000000030000000F0B40D4601880905AC
:1006900002D5214C7C4402E01F4C7C440E340021E6
:1006A00000F1240608E002F00F071209E75D42EAB4
:1006B00003721B097754491C52EA0307F3D10278ED
:1006C0000023120704D5702D06D009B1022311347E
:1006D0002246F0BC00F02BB901231034F8E770B5C6
:1006E00004460D4621461068FFF757FE024629468C
:1006F0002046BDE870400023C6E7D21D22F0070364
:10070000D3E90023C0E70368126843F020030360C5
:100710000823C3610023B7E7483D00002DE9F05FDF
:10072000894604464FF0000ADFF874B1FB44C0F874
:1007300020A02046E1688847002874D0252806D0EC
:10074000D4E901219047206A401C2062F1E700268D
:100750005F462046E16888472028054607DB312DA3
:1007600005D2781910F8200C08B10643F1E7B0075C
:1007700001D526F00406C4F81CA00027C4F818A070
:100780002A2D09D0284603F0EFFD38B304EB870883
:10079000303DC8F8185019E059F8041B204604EB06
:1007A00087029161E1688847012F054618D1E06909
:1007B000002820DA26F020061DE0D8F8180000EB0B
:1007C000800005EB40003038C8F818002046E1688A
:1007D0008847054603F0C8FD0028EED1012F0AD056
:1007E0002E2D08D12046E16888477F1C0546022F40
:1007F00046F02006C4DBA069002803DA404246F038
:100800000106A061F00701D026F010066C2D0BD078
:10081000682D09D04C2D39D06A2D35D0742D35D0A6
:100820007A2D33D016E038E0E1682F46204688471D
:10083000B842054609D16C2F26D04FF48060E1689C
:10084000064320468847054604E06C2F1AD04FF433
:10085000807006430DB3A5F14100192802D8203558
:1008600046F400664A462946204626604E46FFF773
:100870008DFC80B101280BD0F61D26F0070000F199
:10088000080956E74020E4E78020D8E70020D6E7B3
:1008900006F104094DE7284652E7206ABDE8F09FBB
:1008A000D83C000030B5B0F10A0271F100034FEA04
:1008B000900E4EEA817EB0EB0E0061EB91014FEAA3
:1008C000101E4EEA017E10EB0E0041EB11114FEAB3
:1008D000102E4EEA016E10EB0E0041EB11214FEA93
:1008E000104E4EEA014E10EB0E0041EB1141401844
:1008F00041F100014FEAD00040EA41704FEAD101D6
:100900004FEA810444EA907410EB800544EB010443
:100910006D1944EB0404521BA3414FF0000348BF80
:100920000A3200D530BD401C41F1000130BD2DE937
:10093000F0470D4699469246044600F124080168A6
:10094000880604D5E06921F01001216000E0012053
:10095000A84201DD471B00E00027A1697A1902EBDC
:100960000900081AA0612078C00602D42046FFF7CB
:10097000E4FC002608E0D4E901211AF806009047BB
:10098000206A401C761C20624E45F4DB2078C006AD
:100990000AD52046FFF7D1FC06E0D4E9012130203A
:1009A0009047206A401C2062381EA7F10107F4DC42
:1009B00007E0D4E9012118F805009047206A401C9F
:1009C0002062281EA5F10105F3DC2046FFF7CBFCD1
:1009D0002078000602D50220BDE8F0870120FBE761
:1009E0002DE9FF4F0C461E464FF0FF378BB0D2E982
:1009F0000001DDF860800A908A46C1F30A5505B906
:100A00003D46002108464FF00000BAF1000F00F407
:100A1000400005DA00EB80004FF4400101EA50008D
:100A20004FEA9059B9F1010F00DDB9460A9850EA32
:100A30004A000ED044F61050A5F2FF3545432F145E
:100A4000B8F1000F1ED07542291E1EDDC9F100024B
:100A50001CE0B8F1010F4FF0000001D0302103E09D
:100A6000F24305E02154401CB042FBDB304600223B
:100A7000002121540B99C1F80880C1E900200FB072
:100A8000BDE8F08FBD1B6D1CDEE74A4600DA694207
:100A900006A800F0F3FB06AB93E8070003AB83E87E
:100AA000070050460A9903F082F88DE80700A0F588
:100AB00000501F3800900398002D0ADD42F21F01FC
:100AC0004A460844002303A90390684603F0ECFA61
:100AD00009E0A0F500504A461F38002303A90390FF
:100AE000684603F0F6FA8DE807000004000C03D016
:100AF0004FF0FF30410800E01046B8F1000F03D07E
:100B00000022009215461EE0751E05D4FFF7CAFEAE
:100B1000303262556D1EF9D5B3460122084302D02A
:100B200000227F1C04E02078302801D100227F1EA3
:100B3000002A099784D01DE0112D07DAFFF7B2FED5
:100B4000303262556D1C50EA0102F5D1084302D0E3
:100B50000098C8B10EE00021681E05E0235C625CCD
:100B600063542254401E491C8142F7DBAB46A81B4C
:100B7000401E0990002004F80B000B98099AC0F859
:100B80000880C0E9002B7AE711264FF0000857E7EC
:100B90002DE9F04F88460446D21D22F0070191B09E
:100BA000D1E90001CDE90A0103F0CAFB02460B9826
:100BB000C00F01D02D2007E02068810701D52B2030
:100BC00002E0202101EAC000032A099001D0072A8F
:100BD00005DB03464146204600F010FB0BE1207880
:100BE000800601D5E06900E00620B8F1650F814676
:100BF00006D0B8F1660F18D0B8F1670F70D131E0A8
:100C00000020B9F1110F009001DB112301E009F17F
:100C100001030AAA01A90CA8FFF7E2FEDDE90C70A6
:100C2000002609F10105834647E001204B4600906C
:100C30004FF000470AAA01A90CA8FFF7D1FEDDE991
:100C40000DB00C995D46002610B909F101000D1890
:100C5000B9EB050003D4C0F1FF3609F10105A5EB9E
:100C600009002BE0B9F1010F01DA4FF00109002072
:100C7000B9F1110F0090484601DD112300E0034651
:100C80000AAA01A90CA8FFF7ABFEDDE90C704D46DE
:100C900000268346207800070AD4AB4500DA5D467B
:100CA00001A8012D04DD411911F8011C302907D0DC
:100CB0004F4502DA17F1040F04DA012082460FE0F3
:100CC0006D1EEEE7002F02DCED1B3E4403E0781CB6
:100CD000A84200DD7D1CB81B00F1010A4FF000475F
:100CE0002078000703D4AA4501DB4FF0FF3A00212A
:100CF000B7F1004F0DF143088DF8431024D00220C6
:100D00002B23002F01DA7F422D230A21021EA0F19E
:100D1000010000DC5FB197FBF1FC97FBF1F201FBF6
:100D20001C7C17460CF1300C08F801CDEEE7A8F159
:100D3000010003702188090501D5452100E06521E6
:100D4000A0F1010800F8011C09980FA9A1EB080700
:100D5000FF1D00B10120411901EBEA70A16938447F
:100D6000081A401EA0612078C00602D42046FFF772
:100D7000E4FA099828B1D4E901219047206A401C7F
:100D800020622078C00622D52046FFF7D6FA1EE062
:100D9000002E04DBB34502DD01A8805D00E03020B9
:100DA000D4E901219047206A401C2062761CAAF1F8
:100DB00001005FEA000A0AD100F01CFAC06801686D
:100DC000405CD4E901219047206A401C2062281E23
:100DD000A5F10105DCDC07E0D4E9012118F8010BDD
:100DE0009047206A401C2062381EA7F10107F3DCFF
:100DF0002046FFF7B8FA032011B041E62DE9F04F85
:100E000004460D46D21D22F0070089B0D0E90097B4
:100E10004846394603F094FA0246F80F01D02D23D4
:100E200007E02068810701D52B2302E0202101EA99
:100E3000C0038DF820300BB1012000E00020032A10
:100E4000824601D0072A04DB2946204600F0D6F965
:100E50003FE12078800601D40D2500E0E569C7F365
:100E60000A560D2D49DA00214FEA175B08464FF06C
:100E70000000002F00F4400007DA00EB80004FF480
:100E8000400100EBD07001EA60008115012901DD0D
:100E90004FF0FF3100224FEA850CBCF1180F06D34A
:100EA0001346ACF118004FF08052C24003E04FF4FB
:100EB000801323FA0CF30CF10C0CBCF1200F04D3BB
:100EC000ACF1200C09FA0CF001E007FA0CF0002953
:100ED0004FF0004801DD18B90FE00ED140450CD3AA
:100EE00019EB02095F4121B9404502D19F4329EA2C
:100EF0000209BBEB175F00D0761C2088000502D5E5
:100F00007B48784402E07A487844193808AA3023AC
:100F100002F80A30037C0AF10101002E0AF1020AEC
:100F200053546A4602DC4FF0300101E04FF03101CA
:100F30004FF001088DF8001002D0A6F2FF3603E052
:100F400059EA470100D06B4E002D02DC21780907D9
:100F500004D54FF002082E218DF80110C44600215F
:100F60000BE0C7F303433F01C35C491C6D1E02F84D
:100F70000830052908F1010801DA002DF1DC002113
:100F80000CE000EB1973491C1B786D1E082902F850
:100F900008304FEA091908F1010801DA002DF0DCE8
:100FA00021688B0602D516E0A8F10108E04505DDB1
:100FB00002EB080313F8013C302BF5D0B8F1000F19
:100FC00009DD02EB080313F8013C2E2B03D10907BE
:100FD00001D4A8F10108002D05DD3E2102F808101A
:100FE0006D1E08F10108407C002E02F8080008F18F
:100FF000010804DA2D20764202F8080002E02B20D6
:1010000002F808000A214FF47A70864208F10108BC
:101010000BDB96FBF0F3303302F8083096FBF0F36D
:1010200008F1010800FB136601E0642E0CDB64206C
:1010300096FBF0F3303302F8083096FBF0F308F13A
:10104000010800FB136601E00A2E06DB96FBF1F0B7
:10105000303002F8080008F1010896FBF1F001FBBE
:101060001060303002F80800A16908F1010808EBAF
:10107000050202EB0A00081AA0612078C00602D41B
:101080002046FFF75AF9216A08AE01EB0A002062F8
:1010900004E0D4E9012116F8010B9047BAF1010AE6
:1010A000F7D22078C00602D52046FFF746F96E46F3
:1010B00009E016F8010B3E280FD0D4E90121904732
:1010C000206A401C2062B8F10108F2D22046FFF7E6
:1010D0004AF909B00320BDE8F08F206A2844206255
:1010E00003E0D4E90121302090476D1EEBD3F8E7EF
:1010F0002635000002FCFFFF10B5436913B1AFF3C2
:10110000008001E0FFF752F9012010BD127800F1D4
:1011100024010A7000224A700122EDE711684FF0A5
:10112000FF32E9E710B5436913B1AFF3008001E086
:10113000FFF7D6F9012010BD128800F12401828446
:101140000022C2840122EDE711684FF0FF32E9E787
:101150002DE9F04116460C46054600F043F80368B9
:1011600093F80101012807D0FF2C12D8185D80B137
:1011700001202C70BDE8F081D3F8070132462146EA
:1011800003F20713C7182846BC46BDE8F041002308
:1011900060474FF0FF30EDE7754600F0EBF8AE46E4
:1011A00005006946534620F00700854618B020B573
:1011B000FFF764F8BDE820404FF000064FF000074D
:1011C0004FF000084FF0000BAC46ACE8C009ACE8AB
:1011D000C009ACE8C009ACE8C00921F007018D46A0
:1011E0007047000010B500F005F8001D10BD00BFED
:1011F000B531000000487047480000202DE9F0415B
:101200001F46044603260168072A01F4006004DB38
:1012100008B116A505E016A503E008B115A500E084
:1012200015A521F010002060A069C01EA0610FB1BB
:10123000401EA0612046FFF780F84FB1D4E901219C
:1012400038469047206A401C2062C01C206206E09D
:10125000206AFAE7D4E9012115F8010B9047761EC0
:10126000F8D22046FFF77FF8BDE8F0814E414E00EE
:101270006E616E00494E4600696E66002DE9F047CA
:10128000814616468AB0354878440DC88DE80D0071
:1012900032487844801C03AC0DC884E80D0041F648
:1012A0009B300844372190FBF1F290FBF1F5A5F15A
:1012B000800501FB12041B3C02D56442012000E0C2
:1012C0000020DFF898A080460027FA44AAF1BE0A61
:1012D0000EE0E0070AD03246684607EB47010123DB
:1012E0000AEB810102F0F5FE8DE8070064107F1C17
:1012F000002CEED1194F7F44AE3F19E0E80715D01E
:1013000007EB04100DF1180A90E80E008AE80E00B1
:10131000C068F04201D1981908903246012306A90D
:1013200003A802F0D6FE03AB83E807006D10641C2F
:10133000002DE3D14FF0010332466946B8F1000FAA
:1013400003A802D002F0B0FE01E002F0C2FEC9E93B
:101350000001C9F808200AB0BDE8F087303200006B
:1013600010B50446AFF300802046BDE81040FEF7FC
:1013700070BF000000487047280000204FF0013C7B
:1013800050F8042B51F8043B9A4221D1A2EB0C03F4
:10139000934313EACC1317D150F8042B51F8043BB4
:1013A0009A4215D1A2EB0C03934313EACC130BD151
:1013B00050F8042B51F8043B9A4209D1A2EB0C03DC
:1013C000934313EACC13DBD04FF00000704700BF0B
:1013D000D01A01BAB1FA81F101F0180122FA01F034
:1013E000CB40DBB2C0B2C01AC1F120012CFA01F32C
:1013F000D11A914311EAC311E6D17047014918206F
:10140000ABBEFEE72600020070470000FEE70000CA
:1014100070470000012000F0A1B80000022000F099
:101420009DB80000102000F099B80000704700003F
:10143000014690F82100022816D10868D1E90FC3AF
:10144000026822F00E020260026822F001020260CD
:10145000012000FA03F2CCF8042081F821000020DA
:10146000002281F820207047042088630120002298
:1014700081F820207047000090F82110022923D124
:10148000026840F2040C1168C4F2020C21F00E0153
:10149000116013682F21C4F202018A4223F0010374
:1014A000136015DD3023C4F202039A421CD044239A
:1014B000C4F202039A421BD05823C4F202039A4298
:1014C0001CD14FF4803321E0042181630120704757
:1014D0000823C4F202039A420ED01C23C4F2020372
:1014E0009A420BD1102311E04FF480730EE000BF3D
:1014F0004FF480530AE000BF012307E00CF16801BC
:101500004FF080738A4208BF4FF480130121CCF85A
:10151000003080F82110416B0022002980F8202043
:1015200004BF0020704780B58847002080BD0000C0
:10153000B0B5044600F032F9054640F21800C2F298
:1015400000000078611C18BF044400BF00F026F9B9
:10155000401BA042FAD3B0BD7047000040F21441D6
:10156000C4F201010A68024214BF08607047FFF725
:10157000F3BF00002DE9F04F82B00E68002E00F09E
:10158000FD8041F20042C4F20102042340F2004E09
:10159000904208BF03234FF6FF7CC4F2010E009374
:1015A00000240123C1F2100C4FF0000A4FF0000993
:1015B0004BE000BF41F20002C4F20102009F9042E2
:1015C00008BF022704F00C030F229A402BEA020204
:1015D00007FA03F34FEA9A051A4346F825204E68A6
:1015E00040F20C45F202DEF8082054BF22EA08025D
:1015F00042EA0802C4F20105CEF808202A68B302C4
:1016000054BF22EA080242EA08022A60B303DEF865
:10161000042054BF22EA080242EA0802F303CEF88B
:101620000420DEF800204FF0010354BF22EA080234
:1016300042EA0802CEF800200E680AF1010A36FAE2
:101640000AF204F1040400F0998003FA0AFB16EA96
:101650000B08F1D04E68664512DC122E56D8DFE832
:1016600006F0350B4D49555555555555555555555C
:1016700055555545510000BFD1F80C9046E000BFCC
:101680004FF6FF72C1F2210296420FDC0022C1F236
:10169000110296421AD00022C1F21202964215D0CF
:1016A0000022C1F22102964210D02FE00022C1F2A6
:1016B000220296420AD00022C1F23102964205D09F
:1016C0000022C1F23202964220D100BF8A684AB19C
:1016D000012A14BFC0F814B0C0F810B04FF00809C8
:1016E00014E000BF4FF0040910E000BFCA6802F127
:1016F00004090BE04FF0000908E000BFCA6802F1DE
:10170000080903E0CA6802F10C0900BF0246264638
:10171000B8F5807F24BF0432203E17680F25B540FE
:1017200027EA050509FA06F635431560CA79D20697
:101730007FF582AF41F21803C4F202031A68AEF5D6
:101740007E7642F001021A601A6802F001020192EC
:10175000019A2AF0030256F802B040F60002C4F2E1
:101760000102904208D040F60042C4F201029042C9
:101770007FF420AF012725E7002723E702B0BDE86B
:10178000F08F00008068084018BF012070470000FB
:10179000002A08BF090401617047000040F20430CC
:1017A000C2F200000068704740F2180040F20431B5
:1017B000C2F20000C2F2000100780A68104408601A
:1017C0007047000080B542F20000C4F202000168D8
:1017D00041F010010160032000F08CF80F2000F0B0
:1017E00005F800F027F8002080BD000070B540F239
:1017F0001806C2F2000640F220013278C2F200015F
:101800004FF47A730968B3FBF2F20446B1FBF2F1CC
:10181000084600F085FB0F2C4FF0010508D838B9B9
:101820004FF0FF3021460022002500F037F87460A9
:10183000284670BD82B041F21800C4F2020001686F
:10184000042241F001010160016801F001010191F0
:101850000199416841F080514160406800F080503A
:10186000009000980420C4F20100016862F31A613C
:10187000016002B070470000002848BF704700F0C8
:101880001F01012202FA01F11C2202EAD0004EF2ED
:101890000012CEF2000281507047000010B54EF6E3
:1018A0000C5CCEF2000CDCF80030C3F3022E8EF09C
:1018B0000704042C28BF0424BEF103034FF0FF3EAD
:1018C0000EFA04F438BF0023A14399400EFA03F343
:1018D0009A43114300F00F0200F160430901043AFA
:1018E00003F564436244002848BF02F10C031970F9
:1018F00010BD00004EF60C51CEF200010A684FF602
:10190000FF031A4060F30A2242F0806040F0FD704D
:1019100008607047002804BF012070472DE9F0439C
:1019200081B042F20008C4F202080446D8F8000070
:101930000D4600F0070081420CD9D8F8000020F0D5
:1019400007002843C8F80000D8F8000000F007009E
:10195000A8426CD1206841F204098107C4F202094F
:1019600017D5410705D5D9F8001041F4E061C9F851
:101970000010010705D5D9F8001041F46051C9F8ED
:101980000010D9F80010A26821F0F0011143C9F845
:101990000010C00742D1D8F8000000F007008542CF
:1019A0000CD2D8F8000020F007002843C8F8000047
:1019B000D8F8000000F00700A84238D1206841079D
:1019C00007D5D9F80010E26821F4E0611143C9F8A5
:1019D0000010000708D5D9F80000216920F46050F4
:1019E00040EAC100C9F80000D9F8002002F00C005C
:1019F000082841F20020C0F27A004DD144F2EE43B3
:101A0000C2F38341C0F60003595CD20338D440F6D8
:101A10000010C0F23D0048433EE000BF606859F846
:101A2000041C022808D0012826D1890306D40120ED
:101A300001B0BDE8F08300BF8901F8D5D9F80010E6
:101A400021F003010843C9F80000FFF7A7FE06468E
:101A500041F28837D9F80000616800F00C00B0EB63
:101A6000810F98D0FFF79AFE801BB842F2D903206D
:101A700001B0BDE8F08300BF8907D8D5DEE700BF1D
:101A8000D9F8002044F2EC43C2F34042C0F6000310
:101A90009A5C4843B0FBF2F0D9F8001044F2D4420B
:101AA000C1F30311C0F60002515C40F2200220FA9B
:101AB00001F140F21C00C2F200000068C2F2000214
:101AC0001160FFF793FE002001B0BDE8F083000035
:101AD00040F2200041F20401C2F20000C4F202010F
:101AE0000068096844F2E442C1F30221C0F6000232
:101AF000515CC8407047000040F2200041F20401F0
:101B0000C2F20000C4F202010068096844F2E44233
:101B1000C1F3C221C0F60002515CC840704700000A
:101B2000002804BF012070472DE9F04182B004462F
:101B3000007841F20006C007C4F202060CD07068BB
:101B400000F00C00042840F081803068800303D549
:101B50006068002800F04681207880071BD57068F7
:101B600010F00C0F09D0706800F00C00082840F04D
:101B700087807068C00300F183803068800703D5D8
:101B80002069012840F02E813068616920F0F8005A
:101B900040EAC10030602078000713D42078400765
:101BA0002CD4E569002D00F01881706800F00C005D
:101BB000082840F0A780012D40F00481012002B0E8
:101BC000BDE8F081A069002800F084800020C4F204
:101BD00042200121C0F88014FFF7E0FD054600BF58
:101BE000706A800700F1B280FFF7D8FD401B022821
:101BF000F6D9032002B0BDE8F08100BFF0695FEACA
:101C0000C00808D4F06940F08050F061F06900F03D
:101C100080500090009847F20007C4F2000738682F
:101C2000C00549D4386840F480703860FFF7B6FDCD
:101C3000054600BF3868C0053ED4FFF7AFFD401B26
:101C40006428F7D9032002B0BDE8F081706800F085
:101C50000C00082803D17068C0033FF576AF6168B7
:101C60003068002900F00C81B1F5A02F00F0008150
:101C7000B1F5803F40F01A8140F480301CE100BF94
:101C80002069002840F20000C4F2422000F0888061
:101C900001210160FFF782FD054600BF3068800723
:101CA0003FF572AFFFF77AFD401B0228F6D90320FB
:101CB00002B0BDE8F08100BFE168306A002900F0A1
:101CC0009D80052900F09280012940F0AF8040F00E
:101CD0000100B1E00020C4F242200021C0F88014CD
:101CE000FFF75CFD054600BF706A80077FF556AFC1
:101CF000FFF754FD401B0228F6D9032002B0BDE8CF
:101D0000F08100BF0027C4F2422700203866FFF7A9
:101D100045FD022D05460DD13068800140F1DE8081
:101D2000FFF73CFD401B02284FF00300F4D902B03E
:101D3000BDE8F081306880014FD5FFF72FFD401BD3
:101D400002284FF00300F5D9F1E700BF40F2200070
:101D5000C2F20000006844F6D351C1F26201A0FB58
:101D60000101480A019000BF00BF0198411E0028F0
:101D700001913FF413AF00BF0198411E002801916B
:101D80003FF40CAF00BF0198411E002801913FF4C1
:101D900005AF00BF0198411E00280191E4D1FDE686
:101DA00000210160FFF7FAFC054600BF306880079C
:101DB0007FF5F1AEFFF7F2FC401B02284FF0030065
:101DC000F4D9B4E77068216A00F480328A4209D1FC
:101DD000616A00F47010884204D1002002B0BDE8AE
:101DE000F08100BF012002B0BDE8F08140F00400A6
:101DF0003062306A40F001001EE000BF20F00100B8
:101E00003062306A20F004003062FFF7C7FC0546FC
:101E100041F28837306A800720D5FFF7BFFC401BAE
:101E2000B8424FF00300F5D981E700BF20F0010070
:101E30003062306A20F004003062FFF7AFFC0546E4
:101E400041F28837306A800708D4FFF7A7FC401BAF
:101E5000B842F7D9032002B0BDE8F081B8F1000F15
:101E60003FF59FAEF06920F08050F06199E600BF29
:101E700040F480203060306840F480301CE000BFC7
:101E800020F480303060306820F480203060FFF72C
:101E900085FC0546306880037FF55EAEFFF77EFC6B
:101EA000401B64284FF00300F4D940E720F4803051
:101EB0003060306820F480203060FFF76FFC05460A
:101EC000306880033FF548AEFFF768FC401B64288C
:101ED000F6D9032002B0BDE8F08100BF206AB0F55A
:101EE000803F05D17168A26821F40031114371600F
:101EF0007168626A21F47411114308437060012013
:101F00003866FFF74BFC0446306880013FF565AF4B
:101F1000FFF744FC001B02284FF00300F4D906E74A
:101F2000411E0020B0EB116F1CBF012070474EF224
:101F30001002CEF2000251604EF62351CEF20001A3
:101F4000F0230B700721906011607047704700000C
:101F50007047000090F83C20012A4FF0020236D072
:101F600010B580F83D200268D2F804E0D2F808C02D
:101F70000C682EF07003234340F2FF74C4F2000497
:101F8000A24253600ADCB2F1804F13D040F200430A
:101F9000C4F200039A420DD011E000BF42F60043A4
:101FA000C4F201039A4205D040F60003C4F20003D4
:101FB0009A4204D149682CF08003194391600121B1
:101FC000002280F83D1080F83C20BDE8104010460B
:101FD00070470000002804BF0120704710B590F83A
:101FE0003D1031B9002180F83C10044600F070F833
:101FF0002046022180F83D10016840F2FF740B6812
:10200000C4F2000442F6004CA142C4F2010C15DCFB
:10201000B1F1804F1AD040F20042C4F20002914266
:1020200014D0A14218DCB1F1804F1DD040F2004223
:10203000C4F20002914217D01AE000BF614505D0FA
:1020400040F60002C4F200029142EAD1826823F015
:1020500070031343A142E6DD614505D040F600025E
:10206000C4F20002914203D1026923F44073134386
:10207000846923F08002D0F804E0C36822436145FC
:102080000A60CB62C1F828E002D14269CCF8302066
:1020900001224A610B69DB0703D00B6923F00103BE
:1020A0000B6180F8462080F83E2080F83F2080F8C1
:1020B000402080F8412080F8422080F8432080F8BA
:1020C000442080F8452080F83D20002010BD00000D
:1020D0000068B0F1804F18BF704780B582B041F200
:1020E0001C00C4F202000168002241F001010160FD
:1020F0000068002100F00100019001981C20FFF70A
:10210000CDFB1C2002B0BDE88040FFF7B5BB00004E
:1021100090F83D1001291CBF01207047022180F872
:102120003D10006840F2FF72C168C4F200029042A4
:1021300041F00101C16009DCB0F1804F12D040F2E2
:102140000041C4F2000188420CD012E042F6004186
:10215000C4F20101884205D040F60001C4F200013A
:10216000884206D1816801F00701062904BF0020DA
:102170007047016841F001010160002070470000D4
:1021800090F83C20012A4FF002026CD080B580F814
:102190003D20D0F800C04FF67772DCF8083023EA13
:1021A0000202CCF808200B684F2B29DC1F2B45DDE1
:1021B000202B46D0302B44D0402B40F0AF80D1F8BC
:1021C00004E0C968DCF82030DCF8202022F00102AD
:1021D000CCF82020DCF8182022F0F00242EA0111AD
:1021E00023F00A0242EA0E02CCF81810CCF82020A4
:1021F000DCF8081041F0470121F0300128E000BF71
:102200006F2B33DDB3F5005F74D0B3F5805F21D061
:10221000702B40F08380D1E901E3C968DCF8082025
:1022200043EA0E0322F47F4243EA01211143CCF832
:102230000810DCF8081041F0770109E00BB1102B11
:102240006CD1DCF8081021F07001194341F007014E
:10225000CCF808100022012180F83D10002180F800
:102260003C10BDE880401046704700BF502B21D085
:10227000602B53D1D1F804E0C968DCF82030DCF8D9
:10228000202022F01002CCF82020DCF8182022F4C4
:10229000704242EA013123F0A00242EA0E12CCF869
:1022A0001810CCF82020DCF8081041F0670121F06C
:1022B0001001CDE7D1F804E0C968DCF82030DCF883
:1022C000202022F00102CCF82020DCF8182022F097
:1022D000F00242EA011123F00A0242EA0E02CCF8AF
:1022E0001810CCF82020DCF8081041F0570121F03C
:1022F0002001ADE7D1E901E3C968DCF8082043EA31
:102300000E0322F47F4243EA01211143CCF8081066
:10231000DCF8081041F480419AE700BF01229AE7F7
:102320007047000070B504460068C5680669B107CB
:1023300016D515F0020113D06FF0020101610121E1
:1023400021778069800703D02046FFF7E9FF05E089
:10235000204600F08FF8204600F08EF8002020770D
:10236000700719D515F0040016D020686FF004012D
:10237000016102212177806910F4407F04D020465A
:10238000FFF7CEFF06E000BF204600F073F82046BE
:1023900000F072F800202077300717D515F00800FC
:1023A00014D020686FF00801016104212177C06911
:1023B000800703D02046FFF7B3FF05E0204600F07A
:1023C00059F8204600F058F800202077F00619D57B
:1023D00015F0100016D020686FF01001016108217F
:1023E0002177C06910F4407F04D02046FFF798FFA2
:1023F00006E000BF204600F03DF8204600F03CF823
:1024000000202077F00718BF15F0010002D1300638
:1024100009D412E020686FF001010161204600F04C
:102420002DF8300609D515F0800006D020686FF031
:10243000800101612046FFF789FD700609D515F07E
:10244000400006D020686FF040010161204600F096
:1024500017F8B00658BF70BD15F0200008D02168ED
:102460006FF0200220460A61BDE87040FFF770BDA2
:1024700070BD00007047000070470000704700000A
:10248000704700007047000070470000B0B582B090
:1024900001680A68CC684B6902F02F05202D04F012
:1024A000200505D125B102B0BDE8B04000F072BDF5
:1024B0005FEA027C1EBF03F0010E04F4907313EB7D
:1024C0000E0341D1036BD50618D5012B16D114F09C
:1024D000100313D0002201920A6801924A68019207
:1024E000019A496949064BD4818DC28DC38D002B59
:1024F00018BF914240F0F48102B0B0BD13062DD553
:1025000014F080032AD090F84120212AF4D1826867
:10251000B2F5805F03D10269002A00F06782026A87
:10252000531C036212784A60C28C013A1304C284BD
:10253000E2D1C86820F08000C860C86840F0400060
:10254000C86002B0B0BD00BFD30718BF14F48073D9
:1025500040F0D080530700F1D380D8E05206CBD5AD
:1025600014F04002C8D0CA6822F04002CA6020219C
:1025700080F8411002B0BDE8B04000F019BC00BFC7
:10258000C16B0A68526893B2002BB5D0858DAB42FF
:10259000B2D2C2858969202900F0A180016851E882
:1025A000031F026821F4807142E80313DBB1016864
:1025B00051E8031F026821F4807142E8031393B1CC
:1025C000016851E8031F026821F4807142E8031397
:1025D0004BB1016851E8031F026821F4807142E8A1
:1025E0000313002BDAD1016851E8051F026821F0BE
:1025F000010142E80513C3B3016851E8051F0268F1
:1026000021F0010142E805137BB3016851E8051F81
:10261000026821F0010142E8051333B3016851E873
:10262000051F026821F0010142E80513002BDAD1F1
:102630001BE000BF016851E8051F026821F040015E
:1026400042E80513DBB1016851E8051F026821F07B
:10265000400142E8051393B1016851E8051F026883
:1026600021F0400142E805134BB1016851E8051F14
:10267000026821F0400142E80513002BDAD1202145
:1026800080F8421000210163016851E8031F0268CD
:1026900021F0100142E80313DBB1016851E8031F88
:1026A000026821F0100142E8031393B1016851E878
:1026B000031F026821F0100142E803134BB10168C7
:1026C00051E8031F026821F0100142E80313002BB8
:1026D000DAD1C16B04460846FEF7AAFE2046022165
:1026E0004163818DC28D891A89B202B0BDE8B040C4
:1026F000FFF7C8BE436C43F001034364530706D59C
:10270000BEF1000F03D0436C43F002034364930710
:1027100006D5BEF1000F03D0436C43F004034364BD
:10272000BCF1000F06D55EEA050303D0436C43F00D
:1027300008034364436C002B3FF4DEAE920605D5DC
:1027400025B1044600F026FC216820464969426C08
:1027500001F0400102F00802891800F0B98000BFC2
:10276000016851E8031F026821F4907142E80313E5
:10277000BBB3016851E8031F026821F4907142E87D
:10278000031373B3016851E8031F026821F49071C9
:1027900042E803132BB3016851E8031F026821F4D8
:1027A000907142E80313002BDAD11AE0016851E876
:1027B000051F026821F0010142E80513DBB1016841
:1027C00051E8051F026821F0010142E8051393B1A9
:1027D000016851E8051F026821F0010142E8051374
:1027E0004BB1016851E8051F026821F0010142E880
:1027F0000513002BDAD1016B012924D1016851E8BE
:10280000031F026821F0100142E80313DBB10168E5
:1028100051E8031F026821F0100142E8031393B14D
:10282000016851E8031F026821F0100142E8031318
:102830004BB1016851E8031F026821F0100142E822
:102840000313002BDAD1202180F84210002101630C
:1028500001684969490640F1C380016851E8051FD4
:10286000026821F0400142E80513DBB1016851E83C
:10287000051F026821F0400142E8051393B1016889
:1028800051E8051F026821F0400142E805134BB1F1
:10289000016851E8051F026821F0400142E8051374
:1028A000002BDAD1C16B002900F09A8042F68972C0
:1028B000C0F60002044608464A63FEF7DDFD002824
:1028C0003FF41AAEE06B416B02B0BDE8B040084780
:1028D0000446FFF7D9FD0020606402B0B0BD00BF20
:1028E000891A00BF026852E8032F036822F490722D
:1028F00043E80325BDB3026852E8032F036822F4BE
:10290000907243E8032575B3026852E8032F036809
:1029100022F4907243E803252DB3026852E8032F96
:10292000036822F4907243E80325002DDAD11AE0FF
:10293000026852E8052F036822F0010243E80525EA
:10294000DDB1026852E8052F036822F0010243E876
:10295000052595B1026852E8052F036822F00102AF
:1029600043E805254DB1026852E8052F036822F0BF
:10297000010243E80525002DDAD1202280F842200B
:1029800000220263026852E8032F036822F010025B
:1029900043E80325DDB1026852E8032F036822F003
:1029A000100243E8032595B1026852E8032F03683B
:1029B00022F0100243E803254DB1026852E8032FCC
:1029C000036822F0100243E80325002DDAD1022229
:1029D00089B2426302B0BDE8B040FFF753BD00BF0B
:1029E00002B0BDE8B040FFF74FBD00BF026A32F849
:1029F000023B6FF35F234B60026295E5002804BF42
:102A00000120704710B5044690F8410028B9002015
:102A100084F84000204600F063F8242084F8410048
:102A20002068D4E90212C36823F40053C360036929
:102A300023F440531A430261D4E904231143C268CA
:102A4000194341F20C639A431143C1604169A26981
:102A500021F44071114343F60002C4F20102904296
:102A6000416103D0FFF734F802E000BFFFF744F8FC
:102A7000D4E90023192148439900B0FBF1F048F252
:102A80001F5CC5F2EB1CA0FB0C314FF69C7349098F
:102A9000C0F6FF7301FB0300322303EB0010A0FB21
:102AA0000C03F02000EA531000EB0110C3F34311B4
:102AB000084490601069202120F490401061506912
:102AC00020F02A005061D06840F40050D06000200F
:102AD000606484F8411084F84210606310BD000007
:102AE00070B586B040F60004C4F201040068A4F595
:102AF0004441002688420596CDE90366029601D03E
:102B000006B070BD41F21800C4F20200416802AD87
:102B100041F400314160416801F4003101910199B3
:102B2000016841F0040101600068294600F00400DA
:102B30000190019804200290022003900320059048
:102B40002046FEF717FD0820CDE90206204629465B
:102B50000496FEF70FFD262000210022FEF79EFEC0
:102B60002620FEF789FE06B070BD000090F84230C6
:102B7000202B07D100294FF0010318BF002A05D1EF
:102B80001846704702231846704700BF00230363AE
:102B9000816222218285C285436480F842100169E6
:102BA000006819B1C16841F48071C160416941F0A8
:102BB00001014161C16841F02001C16018467047C0
:102BC000006844F20041C4F20001884218BF704717
:102BD00040F28800C2F20000C1790A2902D0C1790E
:102BE0000D2909D1417981B14179002201440A7648
:102BF00001218171427108E041791E2905D8C1790E
:102C00004279531C024443711176C11D40F20810F1
:102C1000C2F200000122FFF7A9BF00002DE9F04336
:102C200081B0044690F84100202809D100294FF0D6
:102C3000010018BF002A07D101B0BDE8F08300BF32
:102C4000022001B0BDE8F0830020606421201D4611
:102C50000E4684F841001746FEF7A0FDA784E784DE
:102C6000A1688146B1F5805F02D1206900285DD05E
:102C700037460020E28C2168002A5DD06A1C24D0EF
:102C8000002D4AD0804600BF0868000608D4FEF731
:102C900085FDA0EB0900A8427AD82168C868F3E74F
:102CA00017B117F8010B04E038F8020B00276FF397
:102CB0005F204860E08C0138E084E08C0028E3D19C
:102CC0003AE000BF0A68120609D40A68120606D460
:102CD0000A6812065CBF0A685FEA0262F2D51FB199
:102CE00017F8012B05E000BF30F8022B00276FF327
:102CF0005F224A60E28C013AE284E28C002AE4D14D
:102D00001AE000BF30F8022B00276FF35F224A6001
:102D1000E28C013AE284E28C72B10A68120635D57F
:102D2000002FEFD017F8012BF1E700BF0027304646
:102D3000E28C2168002AA1D1086840061ED42DB378
:102D4000681C14D1086840062AD40868400627D4B5
:102D50000868400624D4086840064FF00000F1D50A
:102D60000DE000BF2068C1680068400618D4FEF777
:102D700015FDA0EB0900A842F4D909E000202021AC
:102D800084F8411001B0BDE8F08300BFFEF706FDF6
:102D90000320202184F8411001B0BDE8F08300BF7A
:102DA0000020202184F8411001B0BDE8F08300002C
:102DB00070470000FEE700002DE9F04786B00027CD
:102DC00041F21800CDE90477CDE90277C4F20200A0
:102DD000016840F6004841F0040101600168C4F256
:102DE000010801F00401019101990168A8F58065CD
:102DF00041F00801016000684FF4407100F00800E4
:102E000001900198284600224FF44079FEF7C0FC5B
:102E1000404628210022FEF7BBFC1220002402AE0F
:102E20000290C1F2110428463146CDE90347FEF76E
:102E3000A1FB4FF0010A40463146CDE902A40497B8
:102E4000FEF798FB022428463146CDE9029A049702
:102E50000594FEF78FFB082002901120CDE90307AF
:102E6000404631460594FEF785FB2020CDE9020A55
:102E700040463146CDE90474FEF77CFB0620002174
:102E80000022FEF70BFD0620FEF7F6FC07200021CE
:102E90000022FEF703FD0720FEF7EEFC0A200021CA
:102EA0000022FEF7FBFC0A20FEF7E6FC06B0BDE8B8
:102EB000F087000080B586B040F2C0000021C2F269
:102EC00000004FF0C70C0591CDE90311CDE90011C9
:102ED0004FF0804247F6FF43C0E9021C01618021A8
:102EE000C0E900238161FFF775F8002818BFFEF7DD
:102EF0009DFA4FF48050029040F2C000C2F20000F0
:102F000002A9FFF73DF9002818BFFEF78FFA40F23B
:102F1000C000C2F200006946FFF71CF8002818BF85
:102F2000FEF784FA06B080BD80B540F2081044F286
:102F30000041C2F20000C4F2000100234FF00C0C6B
:102F40004FF4E13280E80E00C0E90333C0E905C365
:102F5000C361FFF753FD002808BF80BDBDE8804076
:102F6000FEF764BAFEE70000FEE7000070470000CD
:102F700070470000FEF718BC7047000040F2C00028
:102F8000C2F20000FFF7CEB9406A0021C185C184BA
:102F9000FFF77ABA81B090F84210222921D18368D4
:102FA0000246B3F5805F09D152F8281F52F8183C49
:102FB000002B63D003685B680AE000BF52F8281F4B
:102FC00013B90369002BF5D003685B6803F07F0336
:102FD0000B70116801311160C18D01390A04C1857E
:102FE00002D001B0704700BF0168CA6822F0200219
:102FF000CA60CA6822F48072CA604A6922F001027B
:103000004A61202180F8421000214163026B012AAD
:103010003CD10163016851E8031F026821F01001EF
:1030200042E80313DBB1016851E8031F026821F095
:10303000100142E8031393B1016851E8031F0268CD
:1030400021F0100142E803134BB1016851E8031F5E
:10305000026821F0100142E80313002BDAD1016865
:103060000A68D20606D5002200920A6800924968D2
:1030700000910099818D01B0FFF704BA026852688F
:103080006FF35F2221F8022B8162A5E701B0FFF701
:1030900097BD000040F20810C2F20000FFF7F6B939
:1030A000FEE7000083B0B0B591B00DF1540C8CE890
:1030B0000E0040F22401C2F20001097881B30246F9
:1030C00015A840F288051090C2F200052889698988
:1030D0000130C0B2884223D0109B6C4620463E216E
:1030E000FDF7DEF801281BDB3D2805D840F60D2151
:1030F000215202300021215440F250126946C2F29E
:10310000000200BF11F8013B43B12C89013813556F
:103110002B8903F10103DBB22B81F3D1012028704D
:1031200011B0BDE8B04003B07047000092B040F667
:103130000048C4F20108FEF745FB4FF0000B0120E8
:10314000CDE90DBBCDE90BBB0C9010200D904FF4D9
:1031500060100224119008A8CDE909BB0894CDE9BC
:103160000F4BFEF7DDFC0F2003A981E811084FF497
:103170008060CDE9060B03A80221FEF7CBFBFFF729
:103180001BFEFFF797FEFFF7CFFE40460821012206
:10319000FEF7FEFAFEF702FB40F28807C2F20007D4
:1031A000F860FEF7FBFA40F20815C2F2000538613C
:1031B000F91D28460122FFF7D9FC40F20004C2F2B3
:1031C0000004667A404620210022FEF7E1FAFF2043
:1031D00000F04EFC304600F04BFC4046202101221E
:1031E000FEF7D6FAA67A404620210022FEF7D0FA52
:1031F000FF2000F03DFC304600F03AFC4046202124
:103200000122FEF7C5FAE67A404620210022FEF7A9
:10321000BFFAFF2000F02CFC304600F029FC4046AD
:1032200020210122FEF7B4FA267B4046202100220D
:10323000FEF7AEFAFF2000F01BFC304600F018FC51
:10324000404620210122FEF7A3FA0A20FEF770F97A
:1032500040F2C000C2F20000FEF75AFF40F25024D4
:1032600040F2501AC2F20004C2F2000A00204FF0ED
:103270000008CDE9010001E000F056FBFEF78EFAF0
:1032800039788146F1B100BF78893989884213D0F5
:103290002868006800060FD5788901220AEB000132
:1032A00028460123FFF7BAFC78890130C0B2788143
:1032B000788939898842EBD178893989884208BF71
:1032C00087F800B0B87968B187F806B0387E98B949
:1032D000C7E906BBC7E908BBC7E90ABBC7E90CBB1E
:1032E000CCE700BF40F20006C2F20006A9EB0800DE
:1032F0001E2880F0E9800FE107F118063046D5A1BD
:103300000922FCF7EBFF98B13046D5A10922FCF762
:10331000E5FF002866D03046D4A10922FCF7DEFF85
:1033200000286FD0D4A03146FFF7BCFE65E000BF97
:10333000F87840F20006C2F2000618B93C2030705E
:10334000CDE901990120F87087F804B087F801B041
:1033500084F800B084F806B084F80CB084F812B099
:1033600084F818B084F81EB084F824B084F82AB029
:1033700084F830B084F836B084F83CB084F842B0B9
:1033800084F848B084F84EB084F854B084F85AB049
:1033900084F860B084F866B084F86CB084F872B0D9
:1033A00084F878B084F87EB084F884B084F88AB069
:1033B00084F890B084F896B084F89CB084F8A2B0F9
:1033C00084F8A8B084F8AEB0C7F8149000F08AF979
:1033D000F9783A7944F21C50C0F60000FFF762FE1B
:1033E0005FE000BF0120F8703871F9783A7944F253
:1033F0001C50C0F60000FFF755FE40F20006C2F276
:10340000000655E040F20006C2F200063C2087F8B4
:1034100003B087F804B030709DA087F801B084F83D
:1034200000B084F806B084F80CB084F812B084F8C8
:1034300018B084F81EB084F824B084F82AB084F858
:1034400030B084F836B084F83CB084F842B084F8E8
:1034500048B084F84EB084F854B084F85AB084F878
:1034600060B084F866B084F86CB084F872B084F808
:1034700078B084F87EB084F884B084F88AB084F898
:1034800090B084F896B084F89CB084F8A2B084F828
:10349000A8B084F8AEB0C7F8149087F802B0FFF770
:1034A00001FE317844F23650C0F60000FFF7FAFD15
:1034B000C7E906BBC7E908BBC7E90ABBC7E90CBB3C
:1034C000A9EB08001E2827D340F60040C4F20100F3
:1034D000A0F5806840460221FEF754F9B178012931
:1034E00008BF002866D0B07040F60040C4F201006A
:1034F0000121FEF747F9F178012908BF00286FD0B4
:10350000F07040461021FEF73DF93179012908BFDE
:1035100000287BD0C8463071F87858B1387948B95E
:10352000FEF73CF97969411AB1F5FA6F02D3786177
:1035300000F0D8F8F87808B13879B8B1F8780028F0
:103540003FF49AAE387900283FF496AE0298A9EB82
:103550000000B0F5FA7FFFF48FAE7078B0FA80F01B
:1035600040097070CDF8089086E600BF0198A9EB7D
:103570000000B0F57A7F16D33078CDF8049090B182
:10358000307801383070317844F23650C0F600009F
:10359000FFF788FD3078CDF80490002804BF87F845
:1035A00003B0CDF8049001207070F8780028C9D1DC
:1035B00062E600BFF978002995D0397900297FF4B7
:1035C00092AF797800297FF48EAF06463AA0FFF7D4
:1035D00069FD304640F20006C2F2000683E700BFF4
:1035E000F97800293FF48CAF397900297FF488AF4E
:1035F000797800297FF484AF064634A0FFF752FDA6
:10360000304640F20006C2F2000679E7F978002958
:103610003FF480AF397900297FF47CAF797844F2A8
:10362000FE43B1FA81F2002944F20D51C0F60001C7
:103630004FEA5212C0F6000308BF19460646084674
:103640007A70FFF72FFD304640F20006C2F2000606
:1036500060E700BF434D443A5354415254000000C8
:10366000434D443A5041555345000000434D443AC0
:103670005245534554000000434F4D3A20756E6B40
:103680006E6F776E20636D643A2025730000000032
:10369000434F4D3A207265736574203D20312028D8
:1036A0007374617274203D20302C207061757365D5
:1036B00064203D203029000043524F535348414974
:1036C000525F535445505F4C4546540043524F534C
:1036D00053484149525F535445505F5249474854FB
:1036E000000000002DE9F04140F25028C2F200082D
:1036F00098F80000002877D098F80600002875D0C8
:1037000098F80C00002873D098F81200002871D0A7
:1037100098F8180000286FD098F81E0000286DD087
:1037200098F8240000286BD098F82A00002869D067
:1037300098F83000002867D098F83600002865D047
:1037400098F83C00002863D098F84200002861D027
:1037500098F8480000285FD098F84E0000285DD007
:1037600098F8540000285BD098F85A00002859D0E7
:1037700098F86000002857D098F86600002855D0C7
:1037800098F86C00002853D098F87200002851D0A7
:1037900098F8780000284FD098F87E0000284DD087
:1037A00098F8840000284BD098F88A00002849D067
:1037B00098F89000002847D098F89600002845D047
:1037C00098F89C00002843D098F8A200002841D027
:1037D00098F8A80000283FD098F8AE00002818BF3D
:1037E000BDE8F0811D2738E0002736E0012734E0EE
:1037F000022732E0032730E004272EE005272CE0E3
:1038000006272AE0072728E0082726E0092724E0E2
:103810000A2722E00B2720E00C271EE00D271CE0E2
:103820000E271AE00F2718E0102716E0112714E0E2
:10383000122712E0132710E014270EE015270CE0E2
:1038400016270AE0172708E0182706E0192704E0E2
:103850001A2702E01B2700E01C27FDF79FFF044604
:10386000FDF79CFF84EA4014FDF798FF48F21F51D2
:1038700084EAD000C5F2EB11A0FB011251096422C9
:1038800001FB12001E24502838BF1424322838BFF0
:103890000A24FDF783FF0546FDF780FF85EA401502
:1038A000FDF77CFF85EAD00045F606320109C0F23B
:1038B000B052A1FB02124FF4347102FB110000F16F
:1038C0002806FDF76BFF0546FDF768FF85EA401502
:1038D000FDF764FF85EAD00041F6B7228108C4F203
:1038E0003C72A1FB021251094FF4E67201FB120077
:1038F000012100F1280507EB470008EB400708F815
:1039000010107C707E80B2B2ABB203A02146BD80A5
:10391000BDE8F041FFF7C6BB534849503A25642C37
:1039200025642C2564000000F0B581B040F200074A
:10393000C2F20007787840F600440028C4F201047F
:103940004ED03878CD21C0B27D7A632828BF63205D
:103950004143C90A01EB8102A0EB42004FF6FF721E
:10396000A7F8072007F10D02515CC0B2165CB971CF
:103970002046202100227E71FDF70AFF304600F02C
:1039800077F8284600F074F8204620210122FDF740
:10399000FFFEBD79BE7A204620210022FDF7F8FE09
:1039A000284600F065F8304600F062F820462021F5
:1039B0000122FDF7EDFEFD79FE7A2046202100224E
:1039C000FDF7E6FE284600F053F8304600F050F8C8
:1039D000204620210122FDF7DBFE3D7A34E000BFC6
:1039E0007E7A204620210022FDF7D2FEFF20FF250F
:1039F00000F03EF8304600F03BF82046202101223E
:103A0000FDF7C6FEBE7A204620210022FDF7C0FE4B
:103A1000FF2000F02DF8304600F02AF82046202143
:103A20000122FDF7B5FEFE7A204620210022FDF797
:103A3000AFFEFF2000F01CF8304600F019F82046D9
:103A400020210122FDF7A4FE3E7B204620210022FA
:103A5000FDF79EFE284600F00BF8304600F008F80F
:103A600020462021012201B0BDE8F040FDF790BEC4
:103A7000B0B540F60004C4F201040546C209204670
:103A80004FF40071FDF784FE20464FF48071002250
:103A9000FDF77EFE20464FF480710122FDF778FE8F
:103AA000C5F3801220464FF40071FDF771FE2046E9
:103AB0004FF480710022FDF76BFE20464FF48071B9
:103AC0000122FDF765FEC5F3401220464FF4007158
:103AD000FDF75EFE20464FF480710022FDF758FE90
:103AE00020464FF480710122FDF752FEC5F300120B
:103AF00020464FF40071FDF74BFE20464FF48071D5
:103B00000022FDF745FE20464FF480710122FDF7AB
:103B10003FFEC5F3C00220464FF40071FDF738FEAA
:103B200020464FF480710022FDF732FE20464FF40C
:103B300080710122FDF72CFEC5F3800220464FF470
:103B40000071FDF725FE20464FF480710022FDF73D
:103B50001FFE20464FF480710122FDF719FEC5F3C8
:103B6000400220464FF40071FDF712FE20464FF44C
:103B700080710022FDF70CFE20464FF48071012277
:103B8000FDF706FE05F0010220464FF40071FDF737
:103B9000FFFD20464FF480710022FDF7F9FD20461D
:103BA0004FF480710122BDE8B040FDF7F1BD5FEA3E
:103BB000400C08BF91F0000F4FEA8C234FEAC1225E
:103BC00043EA51514FEA1C5018BF00F5F0404FEA4C
:103BD000300018BF41F000415FEA6C5C00F02980C2
:103BE000BCF1FF3F08BF40F080407047130C06BF98
:103BF00012044FF0100C4FF0000C130E04BF120211
:103C00000CF1080C130F04BF12010CF1040C930FFC
:103C100004BF92000CF1020CD30F04BF52000CF150
:103C2000010C11464FF00002A0F11F00A0EB0C00A8
:103C3000704711F0004F08BF704731F000413FF46A
:103C4000D5AF0B0C06BF09044FF0100C4FF0000C61
:103C50000B0E04BF09020CF1080C0B0F04BF090185
:103C60000CF1040C8B0F04BF89000CF1020CCB0F7C
:103C700004BF49000CF1010CCCF1200322FA03F33C
:103C800041EA030102FA0CF2A0EB0C0000F1010082
:103C90007047000023F07F4720F07F4C80EA03004C
:103CA00000F00040ACEB070303F57C5303F1FF0386
:103CB0002DE9804909B44FEA144324EA03484FEA46
:103CC000154B25EA0B4E0FF2042606EB13273E7820
:103CD00003FB0667C7F5000707FB06F64FEAD64663
:103CE00006F102064FEA543707FB066CCCF1005C84
:103CF0004FEA1C472CEA074C0CFB06F507FB06F4C1
:103D000004EB15464FEA961649085FEA320234BFC3
:103D100000204FF000404FEAD13706FB07FC4FEA86
:103D20001C4C0CFB0BF7D21B03FB0CF761EB0701E0
:103D30000CFB0EF7B0EB074072EB17420CFB08F7D9
:103D400034BFA2EB0742B2EB074261EB17414FEAE7
:103D50000C444FEA910706FB07FC4FEA1C4C0CFB96
:103D60000BF7B0EBC74072EB573203FB0CF734BFD5
:103D7000A2EBC742B2EBC74261EB57310CFB0EF727
:103D8000B0EBC70072EB57720CFB08F734BFA2EB25
:103D9000C702B2EBC70261EB57714FEA816141EA9A
:103DA00092114FEA826242EA90124FEA806004EB7D
:103DB000CC04039F4FEAD13706FB07FC4FEA1C4CAB
:103DC0000CFB0BF7D21B03FB0CF761EB07010CFBA1
:103DD0000EF7B0EB074072EB17420CFB08F734BF4D
:103DE000A2EB0742B2EB074261EB17414FEA8C5559
:103DF00004EB9C244FEA910706FB07FC4FEA1C4C9E
:103E00000CFB0BF7B0EBC74072EB573203FB0CF720
:103E100034BFA2EBC742B2EBC74261EB57310CFB98
:103E20000EF7B0EBC70072EB57720CFB08F734BF0C
:103E3000A2EBC702B2EBC70261EB57714FEA816197
:103E400041EA92114FEA826242EA90124FEA8060A0
:103E500015EB4C2544F100044FEAD13706FB07FC73
:103E60004FEA1C4C0CFB0BF7D21B03FB0CF761EB6E
:103E700007010CFB0EF7B0EB074072EB17420CFB8F
:103E800008F734BFA2EB0742B2EB074261EB1741E0
:103E90004FEA813141EA92414FEA823242EA90424E
:103EA0004FEA80304FEA0C7615EB1C1544F1000404
:103EB00048EA03434EEA0B484FF0000EB2EB080C01
:103EC00071EB030724BF624639464EEB0E0E4FF0EE
:103ED000000B0018524149414BEB0B0BB2EB080CA5
:103EE00071EB03077BF1000B24BF624639464EEBB2
:103EF0000E0E4FF0000B0018524149414BEB0B0BDB
:103F0000B2EB080C71EB03077BF1000B24BF624698
:103F100039464EEB0E0E51EA020718BF46F0010675
:103F200016EB0E7655F1000254F1000103D5BDE801
:103F30008901BDE80088BDE88901BDE80048B619DF
:103F4000524141EB0101A3F10103704780807F7E64
:103F50007D7C7B7A797877767675747372717170FF
:103F60006F6E6E6D6C6C6B6A6A69686867666665B1
:103F70006464636362616160605F5F5E5E5D5D5C3F
:103F80005C5B5B5A5A5959585857575656555555B0
:103F90005454535352525251515050504F4F4F4E10
:103FA0004E4D4D4D4C4C4C4B4B4B4A4A4A4949495E
:103FB00048484847474747464646454545444444A0
:103FC0004443434343424242424141419C46002BC9
:103FD00030D477002BD04FEA37071CB503B44FF02D
:103FE00010004FF01001BAF1000F06D0BCF1000F25
:103FF000DCBF40F0080040F008014FF000000FBCAB
:10400000BDE810400BF1010BBBF1010F08BF5FEAE7
:10401000170722BF12F1010211F101014FF0004117
:1040200043F1000300F0004043EA00007047F9D379
:104030005708D0E746EA06464FEA164613F1400F06
:104040001FDD13F1200FDFBF16430A460021203386
:104050005B42BED0C3F1200746EA06464FEA164649
:1040600002FA07F746EA070622FA03F2C3F120072D
:1040700001FA07F742EA070221FA03F14FF00003C1
:10408000A7E746EA020646EA06464FEA164646EA29
:104090000106BCBF46EA0646360C4FF000034FF05F
:1040A00000024FF0000194E72DE9804C70B49A466D
:1040B000934691E8380007C831EA400C48BF34EA1B
:1040C000430C03D5FFF7E6FDFFF780FFF0BCBDE82A
:1040D000008C2DE9804C70B49A46934691E83800E4
:1040E00007C810F0804F08BF13F0804F03D100F0D5
:1040F00005F8FFF76BFFF0BCBDE8008C20F07F47B0
:1041000023F07F4C80EA030000F0004007EB0C0333
:10411000A3F57C53A3F1FE0392F0000F00F0B380EF
:1041200095F0000F00F077802DE901494FEA11402A
:1041300021EA00484FEA144624EA064700FB06FC41
:1041400008FB06F607FB08F818EB06484CEB164C84
:1041500000FB07F718EB07484CEB17404FEA124BF0
:1041600022EA0B4E4FEA154625EA06470BFB06FCF2
:104170000EFB06F607FB0EFE1EEB064E4CEB164C36
:104180000BFB07F71EEB074E4CEB174B18EB0B081E
:1041900040F1000018EB0E0B58EB000840F1000056
:1041A0008F1A4FF000014FF000063CBFC943661B59
:1041B00014BFB5EB040C00213CBFC943F61B4FEA0A
:1041C000174427EA04454FEA1C472CEA074C04FB36
:1041D000076205FB07F70CFB05F616EB074642EBFB
:1041E000174204FB0CFC16EB0C4642EB1C421BEB8B
:1041F000060658EB020241414EEA8E0E46EA9E0642
:1042000001D5BDE80189B619524141EB0101A3F185
:104210000103BDE801894FEA144524EA05464FEA47
:10422000114721EA074C05FB07F406FB07F70CFBD7
:1042300006F111EB074144EB174405FB0CFC11EBB5
:104240000C4144EB1C444FEA124722EA074C05FBA1
:1042500007F206FB07F70CFB06F616EB074642EBE8
:10426000174205FB0CFC16EB0C4642EB1C456A188A
:1042700054F1000148BF7047B619524141EB0101AA
:10428000A3F10103704795F0000F37D04FEA1142B8
:1042900021EA02464FEA144724EA074C02FB07F1E1
:1042A00006FB07F70CFB06F414EB074441EB174140
:1042B00002FB0CFC14EB0C4441EB1C414FEA15478C
:1042C00025EA074C02FB07F506FB07F70CFB06F691
:1042D00016EB074645EB174502FB0CFC16EB0C46AC
:1042E00045EB1C42121951F1000148BF7047B61945
:1042F000524141EB0101A3F1010370474FEA14451C
:1043000024EA05464FEA114721EA074C05FB07F16D
:1043100006FB07F70CFB06F212EB074241EB1741D5
:1043200005FB0CFC12EB0C4251EB1C414FF000065C
:1043300048BF7047921841EB0101A3F10103704798
:10434000490050EAC12018BF04204A0D18BF40F0B0
:10435000010040F2FF72B2EB515F08BF40F0020073
:10436000012808BF0520704730380A2801D20120F3
:10437000704700207047000010B500290AD0087867
:10438000002807D005487844FCF7F8FF002801D042
:10439000002010BD0248784410BD0000DA01000082
:1043A000D201000010B500290AD00878002807D0F3
:1043B00005487844FCF7E2FF002801D0002010BD3A
:1043C0000248784410BD0000CA010000C20100008C
:1043D000FCF7DEBBFCF712BD00000000000000008F
:1043E000303132333435363738394142434445462B
:1043F0004030580030313233343536373839616225
:104400006364656640307800040000080000000026
:104410000000000200010000103031323334353624
:1044200037383961626364656678700030313233E1
:1044300034353637383941424344454658500000F8
:1044400002400000000000A0000000000540000045
:10445000000000C8000000000C4000000000409C6C
:1044600000000000194000000020BCBE0000000059
:1044700034400000BFC91B8E00000004B54000009E
:10448000504BCFD06607E2CF010000006C41000026
:104490003E8251AADFEEA73401000000D94200009D
:1044A000DCB5A0E23A301F97FFFFFFFFB4450000E4
:1044B000FD25A0C8E9A3C14FFFFFFFFFFF3F00009C
:1044C0000000008000000000FF3F000000000080AE
:1044D00000000000000000000000000001020304D2
:1044E000060708090000000001020304010202039C
:1044F0000405060708090A0B0C0D0E0F10104D4994
:1045000044444C455F434C49434B5F31004D494463
:10451000444C455F434C49434B5F3200434F4D3A57
:104520002053544152543D25642C2050415553454D
:10453000203D2025640054494D453A256400000083
:1045400090460008000000202800000050010008EC
:10455000B846000828000020E008000070010008AC
:104560001C00000043000000F8FFFFFF0C000000EB
:104570000E0000000F0000002E00000010010000DF
:1045800043000000F8FFFFFF004040404040404033
:104590004040414141414140404040404040404016
:1045A00040404040404040404005020202020202BA
:1045B0000202020202020202022020202020202009
:1045C000202020020202020202029090909090901D
:1045D00010101010101010101010101010101010DB
:1045E000101010100202020202028888888888884F
:1045F000080808080808080808080808080808083B
:104600000808080802020202400000000000000042
:10461000000000000000000000000000000000009A
:10462000000000000000000000000000000000008A
:10463000000000000000000000000000000000007A
:10464000000000000000000000000000000000006A
:10465000000000000000000000000000000000005A
:10466000000000000000000000000000000000004A
:10467000000000000000000000000000000000003A
:10468000000000000000000000000000000000002A
:104690003C01010101FFFFFFFFF8F4F2F1C0F9A4B2
:1046A000B0999282F8809000010000001000000094
:0846B00000127A000100000075
:04000005080000ED02
:00000001FF
