:020000040800F2
:100000000008002061020008213300086D3100085B
:100010001D330008E51300085934000800000000F3
:10002000000000000000000000000000293300086C
:10003000E913000800000000253300082D330008F4
:100040007B0200087B0200087B0200087B0200089C
:100050007B0200087B020008ED130008F51300087E
:100060007B0200087B020008FD1300087B020008E9
:100070007B0200087B0200087B0200087B0200086C
:100080007B0200087B0200087B0200087B0200085C
:100090007B0200087B0200087B0200087B0200084C
:1000A0007B0200087B0200087B0200087B0200083C
:1000B000353300087B0200087B0200087B02000841
:1000C0007B0200087B0200087B0200087B0200081C
:1000D0007B0200087B0200084D3400087B02000808
:1000E0007B0200087B0200087B02000800F002F897
:1000F00000F0A6F814A696E8000CB244B344DA4522
:1001000001D100F09DF8BAE80F000FA696E8300084
:10011000A5EB040504EB0607AAEB0704A7F101070A
:100120004FEA15154FEA3414A4F10104AC4201D38F
:1001300000F086F813F0010F18BFFB1A43F001031B
:1001400000F001F8DBE71847EC5100000C5200000A
:10015000103A24BF78C878C1FAD8520724BF30C8F3
:1001600030C144BF04680C60704700007047000055
:100170000023002400250026103A28BF78C1FBD8B0
:10018000520728BF30C148BF0B6070476E2900F08E
:100190007982702900F0D183662904F0C08765292F
:1001A00004F0BD87672904F0BA87612904F0B98794
:1001B00003681B0A28BF41F08001692900F0C28052
:1001C000642900F0BF80752900F0BC806F2900F021
:1001D0005F83782900F09D83E92900F0F982E42902
:1001E00000F0F682F52900F0F382EF2900F05C833D
:1001F000F82900F09C830368DB0928BF41F08001E7
:10020000632900F07A82732900F07F82E32900F0ED
:100210007F87F32900F08487002070471FB500F026
:10022000D9FF04000020002104F046FB401C606060
:100230000020002104F02AFBE0601FBD10B510BDB6
:1002400000F09AFF1146FFF7E9FF03F027FB01F0EA
:1002500077F803B4FFF7F2FF03BC01F0BBF800002E
:100260000948804709480047FEE7FEE7FEE7FEE74A
:10027000FEE7FEE7FEE7FEE7FEE7FEE70448054986
:10028000054A064B7047000031330008ED000008B6
:1002900000020020000800200004002000040020CC
:1002A0001CB50C46064B7B4469460090204600F086
:1002B00002FA04460020694600F010FA20461CBDF0
:1002C000330400000FB41CB5084B06AA7B446946F2
:1002D0000090059800F0EFF904460020694600F010
:1002E000FDF920461CBC5DF814FB00000D04000065
:1002F00070B50C460546012A05D02878800600D541
:10030000EA69002302E0012305E05B1C934202D26C
:10031000E05C0028F9D1A869E618C01AA861286A2B
:1003200018442862284600F01BF904E0D5E90121B1
:1003300014F8010B9047B442F8D3284600F026F990
:1003400070BD00002DE9F0410646002410687529B3
:10035000314616A510D000F02AF9002802DA4042F2
:1003600013A507E031688A0701D512A502E0490705
:1003700004D511A5012401E000F022F900210A2290
:1003800006F1240709E0B0FBF2FCB0FBF2F302FB3C
:100390001C00303078541846491C0028F3D12346FD
:1003A0002A463046BDE8F04100F013B900000000D5
:1003B0002D0000002B000000200000002DE9F05F60
:1003C000894604464FF0000ADFF874B1FB44C0F8D8
:1003D00020A02046E1688847002874D0252806D050
:1003E000D4E901219047206A401C2062F1E70026F1
:1003F0005F462046E16888472028054607DB312D07
:1004000005D2781910F8200C08B10643F1E7B007BF
:1004100001D526F00406C4F81CA00027C4F818A0D3
:100420002A2D09D0284604F003FA38B304EB8708D4
:10043000303DC8F8185019E059F8041B204604EB69
:1004400087029161E1688847012F054618D1E0696C
:10045000002820DA26F020061DE0D8F8180000EB6E
:10046000800005EB40003038C8F818002046E168ED
:100470008847054604F0DCF90028EED1012F0AD0A8
:100480002E2D08D12046E16888477F1C0546022FA3
:1004900046F02006C4DBA069002803DA404246F09B
:1004A0000106A061F00701D026F010066C2D0BD0DC
:1004B000682D09D04C2D39D06A2D35D0742D35D00A
:1004C0007A2D33D016E038E0E1682F462046884781
:1004D000B842054609D16C2F26D04FF48060E16800
:1004E000064320468847054604E06C2F1AD04FF497
:1004F000807006430DB3A5F14100192802D82035BC
:1005000046F400664A462946204626604E46FFF7D6
:100510003DFE80B101280BD0F61D26F0070000F14A
:10052000080956E74020E4E78020D8E70020D6E716
:1005300006F104094DE7284652E7206ABDE8F09F1E
:10054000564D000070477047704710B500F000FA34
:10055000006810BD10B5044600F0FAF9046010BD43
:1005600070B5044685690068C10601D5302600E0F3
:100570002026C00707D070BDD4E90121304690473E
:10058000206A401C20626D1EF6D570BD70B5044611
:1005900085690078C00707D170BDD4E9012120200A
:1005A0009047206A401C20626D1EF6D570BD096818
:1005B0004A0501D540B27047C905FCD500B2704765
:1005C00009684A0501D5C0B27047C905FCD580B29B
:1005D00070472DE9F0470D4699469246044600F1D2
:1005E00024080168880604D5E06921F01001216023
:1005F00000E00120A84201DD471B00E00027A169BF
:100600007A1902EB0900081AA0612078C00602D40A
:100610002046FFF7A5FF002608E0D4E901211AF8DB
:1006200006009047206A401C761C20624E45F4DB91
:100630002078C0060AD52046FFF792FF06E0D4E9ED
:10064000012130209047206A401C2062381EA7F10B
:100650000107F4DC07E0D4E9012118F80500904710
:10066000206A401C2062281EA5F10105F3DC20460B
:10067000FFF78CFF2078000602D50220BDE8F08746
:100680000120FBE711680268006A530501D5087074
:100690000AE0D30501D5088006E0130603D5C2178A
:1006A000C1E9000200E008600120704701694A1CAE
:1006B00002610878704700B58FB0CDE901310021A3
:1006C000059105497944CDE9031011466846FFF7C5
:1006D00075FE0FB000BD0000E5FFFFFF0A6802F8DD
:1006E000010B0A60704710B5436913B1AFF3008086
:1006F00001E0FFF7FDFD012010BD127800F124019B
:100700000A7000224A700122EDE711684FF0FF32B3
:10071000E9E700002DE9FF5F15468A460446DFF849
:10072000AC80F8440027D8E900103E46CDE900101F
:1007300010E03AF816106A4602A800F0F5FC411CD9
:1007400007D02178890603D5E269391891420DD87E
:100750000744761C2078800602D5E069B84205DDA2
:10076000AE42E6DB3AF816000028E2D1A069C01BD1
:10077000A0612046FFF7F4FED8E90010CDE9001093
:10078000002017E03AF818106A4602A800F0CCFCE6
:10079000B0F1FF3F81460BD000250DF1080B05E0BD
:1007A000D4E901211BF8050090476D1C4D45F7D396
:1007B00008F10100B0428046E4DB206A3844206240
:1007C0002046FFF7E3FEBDE8FF9F0000124A00004D
:1007D0002DE9F0418046D21D22F007020025D2E922
:1007E0000002F52915A614D0011E72F1000106DAE7
:1007F0000023D0EB030063EB020211A608E0D8F857
:1008000000108B0701D50FA602E0490701D50EA6FF
:1008100001251146002408F1240704E000F09CF8AB
:1008200030323A55641C50EA0102F7D12B46324669
:1008300021464046BDE8F041FFF7CBBE0000000076
:100840002D0000002B0000002000000030B400212B
:1008500000F1240408E002F00705D208303542EA2E
:100860004372DB086554491C52EA0305F3D104685E
:10087000002310A2250708D504F020040C4304D05F
:10088000C46901230CA2641EC46130BCFFF7A1BE81
:1008900010B5044621461068FFF792FE0246204636
:1008A000BDE810400023D1E7D21D22F00701D1E9B5
:1008B0000023CBE70000000030000000F0B40D463C
:1008C0000188090502D5214C7C4402E01F4C7C4480
:1008D0000E34002100F1240608E002F00F0712098F
:1008E000E75D42EA03721B097754491C52EA030789
:1008F000F3D102780023120704D5702D06D009B178
:10090000022311342246F0BCFFF763BE01231034EA
:10091000F8E770B504460D4621461068FFF750FE13
:10092000024629462046BDE870400023C6E7D21D96
:1009300022F00703D3E90023C0E70368126843F0FD
:10094000200303600823C3610023B7E77448000055
:10095000004870473000002030B5B0F10A0271F154
:1009600000034FEA900E4EEA817EB0EB0E0061EB81
:1009700091014FEA101E4EEA017E10EB0E0041EB92
:1009800011114FEA102E4EEA016E10EB0E0041EBF2
:1009900011214FEA104E4EEA014E10EB0E0041EBD2
:1009A0001141401841F100014FEAD00040EA417086
:1009B0004FEAD1014FEA810444EA907410EB8005BC
:1009C00044EB01046D1944EB0404521BA3414FF0A6
:1009D000000348BF0A3200D530BD401C41F1000180
:1009E00030BD2DE9FF4F0C461E464FF0FF378BB050
:1009F000D2E90001DDF860800A908A46C1F30A5509
:100A000005B93D46002108464FF00000BAF1000F3D
:100A100000F4400005DA00EB80004FF4400101EAE9
:100A200050004FEA9059B9F1010F00DDB9460A981C
:100A300050EA4A000ED044F61050A5F2FF35454367
:100A40002F14B8F1000F1ED07542291E1EDDC9F10A
:100A500000021CE0B8F1010F4FF0000001D030217E
:100A600003E0F24305E02154401CB042FBDB30467A
:100A70000022002121540B99C1F80880C1E900200F
:100A80000FB0BDE8F08FBD1B6D1CDEE74A4600DAF3
:100A9000694206A800F0E2FB06AB93E8070003AB4F
:100AA00083E8070050460A9903F0E5FA8DE807004D
:100AB000A0F500501F3800900398002D0ADD42F287
:100AC0001F014A460844002303A90390684603F027
:100AD0004FFD09E0A0F500504A461F38002303A946
:100AE0000390684603F059FD8DE807000004000CF0
:100AF00003D04FF0FF30410800E01046B8F1000F7E
:100B000003D00022009215461EE0751E05D4FFF7A3
:100B100023FF303262556D1EF9D5B34601220843DA
:100B200002D000227F1C04E02078302801D100226E
:100B30007F1E002A099784D01DE0112D07DAFFF7E8
:100B40000BFF303262556D1C50EA0102F5D10843AB
:100B500002D00098C8B10EE00021681E05E0235CB9
:100B6000625C63542254401E491C8142F7DBAB4651
:100B7000A81B401E0990002004F80B000B98099A4E
:100B8000C0F80880C0E9002B7AE711264FF0000872
:100B900057E72DE9F04F88460446D21D22F00701A1
:100BA00091B0D1E90001CDE90A0103F02DFE024622
:100BB0000B98C00F01D02D2007E02068810701D5D8
:100BC0002B2002E0202101EAC000032A099001D075
:100BD000072A05DB03464146204600F0FFFA0BE1F9
:100BE0002078800601D5E06900E00620B8F1650FA5
:100BF000814606D0B8F1660F18D0B8F1670F70D1F2
:100C000031E00020B9F1110F009001DB112301E068
:100C100009F101030AAA01A90CA8FFF7E2FEDDE928
:100C20000C70002609F10105834647E001204B4680
:100C300000904FF000470AAA01A90CA8FFF7D1FEC7
:100C4000DDE90DB00C995D46002610B909F10100EF
:100C50000D18B9EB050003D4C0F1FF3609F1010509
:100C6000A5EB09002BE0B9F1010F01DA4FF0010902
:100C70000020B9F1110F0090484601DD112300E07A
:100C800003460AAA01A90CA8FFF7ABFEDDE90C7028
:100C90004D4600268346207800070AD4AB4500DA8B
:100CA0005D4601A8012D04DD411911F8011C302910
:100CB00007D04F4502DA17F1040F04DA012082460B
:100CC0000FE06D1EEEE7002F02DCED1B3E4403E05B
:100CD000781CA84200DD7D1CB81B00F1010A4FF012
:100CE00000472078000703D4AA4501DB4FF0FF3A04
:100CF0000021B7F1004F0DF143088DF8431024D0C7
:100D000002202B23002F01DA7F422D230A21021E0D
:100D1000A0F1010000DC5FB197FBF1FC97FBF1F261
:100D200001FB1C7C17460CF1300C08F801CDEEE7F6
:100D3000A8F1010003702188090501D5452100E0D3
:100D40006521A0F1010800F8011C09980FA9A1EB89
:100D50000807FF1D00B10120411901EBEA70A169EC
:100D60003844081A401EA0612078C00602D42046EC
:100D7000FFF7F6FB099828B1D4E901219047206AD2
:100D8000401C20622078C00622D52046FFF7E8FBF1
:100D90001EE0002E04DBB34502DD01A8805D00E00B
:100DA0003020D4E901219047206A401C2062761C43
:100DB000AAF101005FEA000A0AD100F00BFAC0684C
:100DC0000168405CD4E901219047206A401C206200
:100DD000281EA5F10105DCDC07E0D4E9012118F8A3
:100DE000010B9047206A401C2062381EA7F10107C2
:100DF000F3DC2046FFF7CAFB032011B041E60000F8
:100E00002DE9F04F04460D46D21D22F0070089B0AF
:100E1000D0E900974846394603F0F6FC0246F80F41
:100E200001D02D2307E02068810701D52B2302E0A4
:100E3000202101EAC0038DF820300BB1012000E031
:100E40000020032A824601D0072A04DB29462046D7
:100E500000F0C4F93FE12078800601D40D2500E0C0
:100E6000E569C7F30A560D2D49DA00214FEA175BF1
:100E700008464FF00000002F00F4400007DA00EBB6
:100E800080004FF4400100EBD07001EA6000811552
:100E9000012901DD4FF0FF3100224FEA850CBCF142
:100EA000180F06D31346ACF118004FF08052C24021
:100EB00003E04FF4801323FA0CF30CF10C0CBCF19B
:100EC000200F04D3ACF1200C09FA0CF001E007FA72
:100ED0000CF000294FF0004801DD18B90FE00ED1E9
:100EE00040450CD319EB02095F4121B9404502D1BD
:100EF0009F4329EA0209BBEB175F00D0761C2088CC
:100F0000000502D57B48784402E07A4878441938D5
:100F100008AA302302F80A30037C0AF10101002EEE
:100F20000AF1020A53546A4602DC4FF0300101E034
:100F30004FF031014FF001088DF8001002D0A6F2F9
:100F4000FF3603E059EA470100D06B4E002D02DC6A
:100F50002178090704D54FF002082E218DF80110E1
:100F6000C44600210BE0C7F303433F01C35C491CA7
:100F70006D1E02F80830052908F1010801DA002D7C
:100F8000F1DC00210CE000EB1973491C1B786D1E8D
:100F9000082902F808304FEA091908F1010801DAB6
:100FA000002DF0DC21688B0602D516E0A8F10108BF
:100FB000E04505DD02EB080313F8013C302BF5D0CA
:100FC000B8F1000F09DD02EB080313F8013C2E2BEA
:100FD00003D1090701D4A8F10108002D05DD3E2148
:100FE00002F808106D1E08F10108407C002E02F87E
:100FF000080008F1010804DA2D20764202F8080002
:1010000002E02B2002F808000A214FF47A70864291
:1010100008F101080BDB96FBF0F3303302F80830DF
:1010200096FBF0F308F1010800FB136601E0642E63
:101030000CDB642096FBF0F3303302F8083096FBAB
:10104000F0F308F1010800FB136601E00A2E06DB4D
:1010500096FBF1F0303002F8080008F1010896FB29
:10106000F1F001FB1060303002F80800A16908F1CE
:10107000010808EB050202EB0A00081AA0612078BB
:10108000C00602D42046FFF76BFA216A08AE01EBD6
:101090000A00206204E0D4E9012116F8010B904710
:1010A000BAF1010AF7D22078C00602D52046FFF730
:1010B00057FA6E4609E016F8010B3E280FD0D4E926
:1010C00001219047206A401C2062B8F10108F2D249
:1010D0002046FFF75BFA09B00320BDE8F08F206AD5
:1010E0002844206203E0D4E90121302090476D1E9E
:1010F000EBD3F8E77142000002FCFFFF10B5436933
:1011000013B1AFF3008001E0FFF704FB012010BD35
:10111000128800F1240182840022C2840122EDE7BA
:1011200011684FF0FF32E9E72DE9F04116460C4611
:10113000054600F047F8036893F80101012807D03D
:10114000FF2C12D8185D80B101202C70BDE8F08111
:10115000D3F807013246214603F20713C718284681
:10116000BC46BDE8F041002360474FF0FF30EDE79B
:1011700000487047300000207546FFF7F9FFAE4683
:1011800005006946534620F00700854618B020B593
:10119000FFF774F8BDE820404FF000064FF000075D
:1011A0004FF000084FF0000BAC46ACE8C009ACE8CB
:1011B000C009ACE8C009ACE8C00921F007018D46C0
:1011C0007047000010B500F005F8001D10BD00BF0D
:1011D000E936000000487047500000202DE9F0413A
:1011E0001F46044603260168072A01F4006004DB59
:1011F00008B116A505E016A503E008B115A500E0A5
:1012000015A521F010002060A069C01EA0610FB1DB
:10121000401EA0612046FFF7A3F94FB1D4E9012198
:1012200038469047206A401C2062C01C206206E0BD
:10123000206AFAE7D4E9012115F8010B9047761EE0
:10124000F8D22046FFF7A2F9BDE8F0814E414E00EA
:101250006E616E00494E4600696E66002DE9F047EA
:10126000814616468AB0354878440DC88DE80D0091
:1012700032487844801C03AC0DC884E80D0041F668
:101280009B300844372190FBF1F290FBF1F5A5F17A
:10129000800501FB12041B3C02D56442012000E0E2
:1012A0000020DFF898A080460027FA44AAF1BE0A81
:1012B0000EE0E0070AD03246684607EB47010123FB
:1012C0000AEB810103F069F98DE8070064107F1CC7
:1012D000002CEED1194F7F44AE3F19E0E80715D03E
:1012E00007EB04100DF1180A90E80E008AE80E00D2
:1012F000C068F04201D1981908903246012306A92E
:1013000003A803F04AF903AB83E807006D10641CDF
:10131000002DE3D14FF0010332466946B8F1000FCA
:1013200003A802D003F024F901E003F036F9C9E97B
:101330000001C9F808200AB0BDE8F087A03F00000E
:1013400010B50446AFF300802046BDE81040FEF71C
:1013500080BF00004FF0013C50F8042B51F8043BD3
:101360009A4221D1A2EB0C03934313EACC1317D179
:1013700050F8042B51F8043B9A4215D1A2EB0C0310
:10138000934313EACC130BD150F8042B51F8043BD0
:101390009A4209D1A2EB0C03934313EACC13DBD09E
:1013A0004FF00000704700BFD01A01BAB1FA81F1C6
:1013B00001F0180122FA01F0CB40DBB2C0B2C01A32
:1013C000C1F120012CFA01F3D11A914311EAC311A2
:1013D000E6D1704701491820ABBEFEE726000200A7
:1013E00070470000FEE7000070470000012000F099
:1013F0000FB90000022000F00BB90000102000F02F
:1014000007B9000070470000014690F8210002284B
:1014100016D10868D1E90FC3026822F00E020260FB
:10142000026822F001020260012000FA03F2CCF807
:10143000042081F821000020002281F8202070473C
:10144000042088630120002281F8202070470000DA
:1014500090F82110022923D1026840F2040C11688F
:10146000C4F2020C21F00E01116013682F21C4F2A6
:1014700002018A4223F00103136015DD3023C4F218
:1014800002039A421CD04423C4F202039A421BD0A6
:101490005823C4F202039A421CD14FF4803321E056
:1014A00004218163012070470823C4F202039A4299
:1014B0000ED01C23C4F202039A420BD1102311E078
:1014C0004FF480730EE000BF4FF480530AE000BF7A
:1014D000012307E00CF168014FF080738A4208BFD6
:1014E0004FF480130121CCF8003080F82110416BBB
:1014F0000022002980F8202004BF0020704780B51A
:101500008847002080BD0000B0B5044600F09AF97D
:10151000054640F21C00C2F200000078611C18BFB2
:10152000044400BF00F08EF9401BA042FAD3B0BDC6
:1015300010B5044600F086F9012C37D0102C1BD0D2
:10154000022C4DD140F29001C2F200014A68821A89
:10155000332A45D348600878012841D191F83200F8
:1015600000283DD1012245F2F420C0F600008A7027
:10157000BDE8104002F064B940F29001C2F20001EF
:101580008A68821A332A2BD388600878012827D1E9
:1015900091F8320030B302F00BF945F2C62445F25F
:1015A000BC20C0F60004C0F6000025E040F2900127
:1015B000C2F20001CA68821A332A11D3C8600878BF
:1015C000012818BF10BD91F8320048B9012245F238
:1015D0000430C0F60000CA70BDE8104002F030B917
:1015E00010BD00BF0120488645F2CB2445F2AB2058
:1015F000C0F60004C0F6000002F022F945F22030E7
:10160000C0F6000021460122BDE8104002F018B9E2
:1016100040F21441C4F201010A68024214BF08609A
:101620007047FFF785BF00002DE9F04F82B00E68CC
:10163000002E00F0FD8041F20042C4F201020423BA
:1016400040F2004E904208BF03234FF6FF7CC4F2E5
:10165000010E009300240123C1F2100C4FF0000A88
:101660004FF000094BE000BF41F20002C4F201025A
:10167000009F904208BF022704F00C030F229A40FB
:101680002BEA020207FA03F34FEA9A051A4346F8D7
:1016900025204E6840F20C45F202DEF8082054BFC7
:1016A00022EA080242EA0802C4F20105CEF8082044
:1016B0002A68B30254BF22EA080242EA08022A60FA
:1016C000B303DEF8042054BF22EA080242EA08020B
:1016D000F303CEF80420DEF800204FF0010354BFDE
:1016E00022EA080242EA0802CEF800200E680AF157
:1016F000010A36FA0AF204F1040400F0998003FAB0
:101700000AFB16EA0B08F1D04E68664512DC122E71
:1017100056D8DFE806F0350B4D495555555555550A
:101720005555555555555545510000BFD1F80C90AC
:1017300046E000BF4FF6FF72C1F2210296420FDC75
:101740000022C1F2110296421AD00022C1F2120206
:10175000964215D00022C1F22102964210D02FE00D
:101760000022C1F2220296420AD00022C1F23102C6
:10177000964205D00022C1F23202964220D100BF2B
:101780008A684AB1012A14BFC0F814B0C0F810B07A
:101790004FF0080914E000BF4FF0040910E000BF4B
:1017A000CA6802F104090BE04FF0000908E000BF2D
:1017B000CA6802F1080903E0CA6802F10C0900BF17
:1017C00002462646B8F5807F24BF0432203E1768C3
:1017D0000F25B54027EA050509FA06F635431560D9
:1017E000CA79D2067FF582AF41F21803C4F2020330
:1017F0001A68AEF57E7642F001021A601A6802F0AD
:1018000001020192019A2AF0030256F802B040F652
:101810000002C4F20102904208D040F60042C4F235
:10182000010290427FF420AF012725E7002723E73C
:1018300002B0BDE8F08F0000002A08BF0904016172
:101840007047000040F2FC10C2F2000000687047D0
:1018500040F21C0040F2FC11C2F20000C2F2000192
:1018600000780A68104408607047000080B542F2B2
:101870000000C4F20200016841F010010160032081
:1018800000F08CF80F2000F005F800F027F8002099
:1018900080BD000070B540F21C06C2F2000640F2A6
:1018A00024013278C2F200014FF47A730968B3FB65
:1018B000F2F20446B1FBF2F1084600F085FB0F2C72
:1018C0004FF0010508D838B94FF0FF30214600220B
:1018D000002500F037F87460284670BD82B041F2F0
:1018E0001800C4F202000168042241F00101016005
:1018F000016801F0010101910199416841F08051B5
:101900004160406800F08050009000980420C4F2CC
:101910000100016862F31A61016002B070470000C3
:10192000002848BF704700F01F01012202FA01F1B0
:101930001C2202EAD0004EF20012CEF200028150C8
:101940007047000010B54EF60C5CCEF2000CDCF8CF
:101950000030C3F3022E8EF00704042C28BF0424A9
:10196000BEF103034FF0FF3E0EFA04F438BF00232C
:10197000A14399400EFA03F39A43114300F00F027A
:1019800000F160430901043A03F56443624400280E
:1019900048BF02F10C03197010BD00004EF60C5147
:1019A000CEF200010A684FF6FF031A4060F30A22E4
:1019B00042F0806040F0FD7008607047002804BF6E
:1019C000012070472DE9F04381B042F20008C4F2D3
:1019D00002080446D8F800000D4600F007008142D6
:1019E0000CD9D8F8000020F007002843C8F8000000
:1019F000D8F8000000F00700A8426CD1206841F23E
:101A000004098107C4F2020917D5410705D5D9F8A1
:101A1000001041F4E061C9F80010010705D5D9F8BC
:101A2000001041F46051C9F80010D9F80010A26804
:101A300021F0F0011143C9F80010C00742D1D8F8D5
:101A4000000000F0070085420CD2D8F8000020F01A
:101A500007002843C8F80000D8F8000000F007008D
:101A6000A84238D12068410707D5D9F80010E268AC
:101A700021F4E0611143C9F80010000708D5D9F836
:101A80000000216920F4605040EAC100C9F800005C
:101A9000D9F8002002F00C00082841F20020C0F222
:101AA0007A004DD145F23E23C2F38341C0F60003D4
:101AB000595CD20338D440F60010C0F23D004843D0
:101AC0003EE000BF606859F8041C022808D00128D5
:101AD00026D1890306D4012001B0BDE8F08300BF00
:101AE0008901F8D5D9F8001021F003010843C9F89D
:101AF0000000FFF7A7FE064641F28837D9F800003C
:101B0000616800F00C00B0EB810F98D0FFF79AFEEF
:101B1000801BB842F2D9032001B0BDE8F08300BFBA
:101B20008907D8D5DEE700BFD9F8002045F23C236D
:101B3000C2F34042C0F600039A5C4843B0FBF2F0A7
:101B4000D9F8001045F22422C1F30311C0F60002B7
:101B5000515C40F2240220FA01F140F22000C2F26E
:101B600000000068C2F200021160FFF793FE00203F
:101B700001B0BDE8F083000040F2240041F204010E
:101B8000C2F20000C4F202010068096845F2342282
:101B9000C1F30221C0F60002515CC840704700004A
:101BA00040F2240041F20401C2F20000C4F202013A
:101BB0000068096845F23422C1F3C221C0F6000270
:101BC000515CC84070470000002804BF01207047E6
:101BD0002DE9F04182B00446007841F20006C007CA
:101BE000C4F202060CD0706800F00C00042840F02B
:101BF00081803068800303D56068002800F046814A
:101C0000207880071BD5706810F00C0F09D0706821
:101C100000F00C00082840F087807068C00300F1D5
:101C200083803068800703D52069012840F02E8129
:101C30003068616920F0F80040EAC1003060207827
:101C4000000713D4207840072CD4E569002D00F05C
:101C50001881706800F00C00082840F0A780012D62
:101C600040F00481012002B0BDE8F081A0690028A5
:101C700000F084800020C4F242200121C0F88014CA
:101C8000FFF7E0FD054600BF706A800700F1B280F3
:101C9000FFF7D8FD401B0228F6D9032002B0BDE8AB
:101CA000F08100BFF0695FEAC00808D4F06940F035
:101CB0008050F061F06900F080500090009847F289
:101CC0000007C4F200073868C00549D4386840F4FA
:101CD00080703860FFF7B6FD054600BF3868C00564
:101CE0003ED4FFF7AFFD401B6428F7D9032002B0B4
:101CF000BDE8F081706800F00C00082803D170681E
:101D0000C0033FF576AF61683068002900F00C81B0
:101D1000B1F5A02F00F00081B1F5803F40F01A81AD
:101D200040F480301CE100BF2069002840F2000030
:101D3000C4F2422000F0888001210160FFF782FD9B
:101D4000054600BF306880073FF572AFFFF77AFDA8
:101D5000401B0228F6D9032002B0BDE8F08100BF85
:101D6000E168306A002900F09D80052900F092802A
:101D7000012940F0AF8040F00100B1E00020C4F242
:101D800042200021C0F88014FFF75CFD054600BF2B
:101D9000706A80077FF556AFFFF754FD401B02289D
:101DA000F6D9032002B0BDE8F08100BF0027C4F2DD
:101DB000422700203866FFF745FD022D05460DD16C
:101DC0003068800140F1DE80FFF73CFD401B0228B7
:101DD0004FF00300F4D902B0BDE8F0813068800113
:101DE0004FD5FFF72FFD401B02284FF00300F5D918
:101DF000F1E700BF40F22400C2F20000006844F6A0
:101E0000D351C1F26201A0FB0101480A019000BF59
:101E100000BF0198411E002801913FF413AF00BF9D
:101E20000198411E002801913FF40CAF00BF0198BA
:101E3000411E002801913FF405AF00BF0198411EEB
:101E400000280191E4D1FDE600210160FFF7FAFCD2
:101E5000054600BF306880077FF5F1AEFFF7F2FC62
:101E6000401B02284FF00300F4D9B4E77068216AE0
:101E700000F480328A4209D1616A00F4701088420D
:101E800004D1002002B0BDE8F08100BF012002B003
:101E9000BDE8F08140F004003062306A40F001009B
:101EA0001EE000BF20F001003062306A20F0040024
:101EB0003062FFF7C7FC054641F28837306A800779
:101EC00020D5FFF7BFFC401BB8424FF00300F5D907
:101ED00081E700BF20F001003062306A20F004008A
:101EE0003062FFF7AFFC054641F28837306A800761
:101EF00008D4FFF7A7FC401BB842F7D9032002B073
:101F0000BDE8F081B8F1000F3FF59FAEF06920F019
:101F10008050F06199E600BF40F480203060306866
:101F200040F480301CE000BF20F480303060306826
:101F300020F480203060FFF785FC05463068800380
:101F40007FF55EAEFFF77EFC401B64284FF0030078
:101F5000F4D940E720F480303060306820F48020ED
:101F60003060FFF76FFC0546306880033FF548AEF0
:101F7000FFF768FC401B6428F6D9032002B0BDE8D7
:101F8000F08100BF206AB0F5803F05D17168A2687A
:101F900021F40031114371607168626A21F4741197
:101FA00011430843706001203866FFF74BFC04467C
:101FB000306880013FF565AFFFF744FC001B022845
:101FC0004FF00300F4D906E7411E0020B0EB116F7B
:101FD0001CBF012070474EF21002CEF20002516089
:101FE0004EF62351CEF20001F0230B7007219060D2
:101FF00011607047704700007047000090F83C2067
:10200000012A4FF0020236D010B580F83D20026858
:10201000D2F804E0D2F808C00C682EF07003234315
:1020200040F2FF74C4F20004A24253600ADCB2F131
:10203000804F13D040F20043C4F200039A420DD007
:1020400011E000BF42F60043C4F201039A4205D0FA
:1020500040F60003C4F200039A4204D149682CF010
:102060008003194391600121002280F83D1080F81F
:102070003C20BDE81040104670470000002804BF17
:102080000120704710B590F83D1031B9002180F85B
:102090003C10044600F070F82046022180F83D1004
:1020A000016840F2FF740B68C4F2000442F6004C71
:1020B000A142C4F2010C15DCB1F1804F1AD040F2FC
:1020C0000042C4F20002914214D0A14218DCB1F1E6
:1020D000804F1DD040F20042C4F20002914217D05E
:1020E0001AE000BF614505D040F60002C4F20002CC
:1020F0009142EAD1826823F070031343A142E6DDE6
:10210000614505D040F60002C4F20002914203D1BD
:10211000026923F440731343846923F08002D0F8EA
:1021200004E0C368224361450A60CB62C1F828E03D
:1021300002D14269CCF8302001224A610B69DB07E9
:1021400003D00B6923F001030B6180F8462080F86F
:102150003E2080F83F2080F8402080F8412080F821
:10216000422080F8432080F8442080F8452080F801
:102170003D20002010BD00000068B0F1804F18BF66
:10218000704780B582B041F21C00C4F202000168C1
:10219000002241F0010101600068002100F001000F
:1021A000019001981C20FFF7CDFB1C2002B0BDE878
:1021B0008040FFF7B5BB000090F83D1001291CBF1F
:1021C00001207047022180F83D10006840F2FF7244
:1021D000C168C4F20002904241F00101C16009DC13
:1021E000B0F1804F12D040F20041C4F200018842A9
:1021F0000CD012E042F60041C4F20101884205D041
:1022000040F60001C4F20001884206D1816801F065
:102210000701062904BF00207047016841F0010151
:10222000016000207047000090F83C20012A4FF028
:1022300002026CD080B580F83D20D0F800C04FF687
:102240007772DCF8083023EA0202CCF808200B6829
:102250004F2B29DC1F2B45DD202B46D0302B44D0C3
:10226000402B40F0AF80D1F804E0C968DCF82030A2
:10227000DCF8202022F00102CCF82020DCF8182025
:1022800022F0F00242EA011123F00A0242EA0E02B1
:10229000CCF81810CCF82020DCF8081041F04701E9
:1022A00021F0300128E000BF6F2B33DDB3F5005F74
:1022B00074D0B3F5805F21D0702B40F08380D1E9DA
:1022C00001E3C968DCF8082043EA0E0322F47F42E8
:1022D00043EA01211143CCF80810DCF8081041F062
:1022E000770109E00BB1102B6CD1DCF8081021F05C
:1022F0007001194341F00701CCF8081000220121B8
:1023000080F83D10002180F83C10BDE88040104668
:10231000704700BF502B21D0602B53D1D1F804E07F
:10232000C968DCF82030DCF8202022F01002CCF85C
:102330002020DCF8182022F4704242EA013123F018
:10234000A00242EA0E12CCF81810CCF82020DCF8DB
:10235000081041F0670121F01001CDE7D1F804E049
:10236000C968DCF82030DCF8202022F00102CCF82B
:102370002020DCF8182022F0F00242EA011123F0BC
:102380000A0242EA0E02CCF81810CCF82020DCF841
:10239000081041F0570121F02001ADE7D1E901E338
:1023A000C968DCF8082043EA0E0322F47F4243EABE
:1023B00001211143CCF80810DCF8081041F48041E9
:1023C0009AE700BF01229AE77047000070B5044603
:1023D0000068C5680669B10716D515F0020113D06B
:1023E0006FF002010161012121778069800703D02C
:1023F0002046FFF7E9FF05E0204600F08FF8204671
:1024000000F08EF800202077700719D515F0040031
:1024100016D020686FF004010161022121778069E4
:1024200010F4407F04D02046FFF7CEFF06E000BF47
:10243000204600F073F8204600F072F80020207764
:10244000300717D515F0080014D020686FF0080188
:10245000016104212177C069800703D02046FFF77E
:10246000B3FF05E0204600F059F8204600F058F888
:1024700000202077F00619D515F0100016D020683E
:102480006FF01001016108212177C06910F4407FCD
:1024900004D02046FFF798FF06E000BF204600F07A
:1024A0003DF8204600F03CF800202077F00718BFE8
:1024B00015F0010002D1300609D412E020686FF057
:1024C00001010161204600F02DF8300609D515F014
:1024D000800006D020686FF0800101612046FFF780
:1024E00089FD700609D515F0400006D020686FF010
:1024F00040010161204600F0DDF8B00658BF70BD14
:1025000015F0200008D021686FF0200220460A61F3
:10251000BDE87040FFF770BD70BD0000704700005F
:10252000704700000068B0F1804F18BF7047F0B5E9
:1025300093B040F29006C2F20006706B40F20005C4
:1025400001300528C2F2000570634FD330780128AE
:1025500040D1306A02F026FC4DF20A71C4F21F111C
:10256000044602F0A7FB002100281CBF4DF20A74AC
:10257000C4F21F14C4F2C821204602F08FFC4FF0B1
:102580007C5102F027FB02F0F1FB48F21F51C5F22B
:10259000EB1180FB011246F26761C6F2666180FBB7
:1025A0000134A31003EBD47383FB0114511101EB2D
:1025B000D271A21002EBD47202EB8202A3EB4202B0
:1025C00003EB8303A0EB430005F11003185C9A5C56
:1025D000595C02E0297C08460A466B78A870FF2007
:1025E000194068710020EA70297170633078012801
:1025F00041D1FFF727F931690446401AB0F57A7FD7
:1026000016D3E868A0B1E8680138E8603461E8688A
:1026100070B903203070326A45F22030C0F60000F5
:1026200017A101F00DF9316A727818A001F008F9CC
:1026300001F0F4FB01F01CFBB06B201AB0F57A7FBF
:1026400019D3326A736AB06A7178ED68CDE9000116
:1026500045F2762103AFC0F6000138460295FDF73A
:1026600031FE82B240F23410C2F2000039466423D7
:1026700000F0B0FCB46313B0BDE8F040704700BF99
:1026800047414D455F454E440000000047414D45E0
:102690005F4F5645522046494E414C5F53434F527F
:1026A000453A256C752041434355524143593A25DB
:1026B0007525250070470000704700007047000036
:1026C000B0B582B001680A68CC684B6902F02F058A
:1026D000202D04F0200505D125B102B0BDE8B040A1
:1026E00000F034BE5FEA027C1EBF03F0010E04F46A
:1026F000907313EB0E0341D1036BD50618D5012B54
:1027000016D114F0100313D0002201920A6801922E
:102710004A680192019A496949064BD4818DC28D5C
:10272000C38D002B18BF914240F0F48102B0B0BDC0
:1027300013062DD514F080032AD090F84120212AC9
:10274000F4D18268B2F5805F03D10269002A00F0FB
:102750006782026A531C036212784A60C28C013A93
:102760001304C284E2D1C86820F08000C860C86841
:1027700040F04000C86002B0B0BD00BFD30718BF32
:1027800014F4807340F0D080530700F1D380D8E078
:102790005206CBD514F04002C8D0CA6822F04002DD
:1027A000CA60202180F8411002B0BDE8B04000F0BE
:1027B000DBBC00BFC16B0A68526893B2002BB5D076
:1027C000858DAB42B2D2C2858969202900F0A180F3
:1027D000016851E8031F026821F4807142E8031385
:1027E000DBB1016851E8031F026821F4807142E8FF
:1027F000031393B1016851E8031F026821F480714B
:1028000042E803134BB1016851E8031F026821F449
:10281000807142E80313002BDAD1016851E8051FEB
:10282000026821F0010142E80513C3B3016851E8D1
:10283000051F026821F0010142E805137BB301681E
:1028400051E8051F026821F0010142E8051333B386
:10285000016851E8051F026821F0010142E80513F3
:10286000002BDAD11BE000BF016851E8051F0268A8
:1028700021F0400142E80513DBB1016851E8051F72
:10288000026821F0400142E8051393B1016851E864
:10289000051F026821F0400142E805134BB10168B1
:1028A00051E8051F026821F0400142E80513002BA2
:1028B000DAD1202180F8421000210163016851E83B
:1028C000031F026821F0100142E80313DBB1016825
:1028D00051E8031F026821F0100142E8031393B18D
:1028E000016851E8031F026821F0100142E8031358
:1028F0004BB1016851E8031F026821F0100142E862
:102900000313002BDAD1C16B04460846FEF77CFDA9
:10291000204602214163818DC28D891A89B202B09D
:10292000BDE8B040FFF7C8BE436C43F00103436409
:10293000530706D5BEF1000F03D0436C43F00203EA
:102940004364930706D5BEF1000F03D0436C43F0F8
:1029500004034364BCF1000F06D55EEA050303D00F
:10296000436C43F008034364436C002B3FF4DEAE3A
:10297000920605D525B1044600F0E8FC2168204602
:102980004969426C01F0400102F00802891800F028
:10299000B98000BF016851E8031F026821F49071FB
:1029A00042E80313BBB3016851E8031F026821F436
:1029B000907142E8031373B3016851E8031F026882
:1029C00021F4907142E803132BB3016851E8031F0F
:1029D000026821F4907142E80313002BDAD11AE067
:1029E000016851E8051F026821F0010142E8051362
:1029F000DBB1016851E8051F026821F0010142E8DE
:102A0000051393B1016851E8051F026821F0010127
:102A100042E805134BB1016851E8051F026821F037
:102A2000010142E80513002BDAD1016B012924D101
:102A3000016851E8031F026821F0100142E8031306
:102A4000DBB1016851E8031F026821F0100142E880
:102A5000031393B1016851E8031F026821F01001CC
:102A600042E803134BB1016851E8031F026821F0EB
:102A7000100142E80313002BDAD1202180F8421024
:102A80000021016301684969490640F1C38001687A
:102A900051E8051F026821F0400142E80513DBB14F
:102AA000016851E8051F026821F0400142E8051362
:102AB00093B1016851E8051F026821F0400142E826
:102AC00005134BB1016851E8051F026821F0400170
:102AD00042E80513002BDAD1C16B002900F09A807F
:102AE00043F24132C0F60002044608464A63FEF74C
:102AF000AFFC00283FF41AAEE06B416B02B0BDE8BA
:102B0000B04008470446FFF7D9FD0020606402B0DA
:102B1000B0BD00BF891A00BF026852E8032F0368E6
:102B200022F4907243E80325BDB3026852E8032FF4
:102B3000036822F4907243E8032575B3026852E8F3
:102B4000032F036822F4907243E803252DB3026833
:102B500052E8032F036822F4907243E80325002D06
:102B6000DAD11AE0026852E8052F036822F0010268
:102B700043E80525DDB1026852E8052F036822F01D
:102B8000010243E8052595B1026852E8052F036864
:102B900022F0010243E805254DB1026852E8052FF5
:102BA000036822F0010243E80525002DDAD1202236
:102BB00080F8422000220263026852E8032F036873
:102BC00022F0100243E80325DDB1026852E8032F2A
:102BD000036822F0100243E8032595B1026852E829
:102BE000032F036822F0100243E803254DB1026869
:102BF00052E8032F036822F0100243E80325002D5A
:102C0000DAD1022289B2426302B0BDE8B040FFF7D8
:102C100053BD00BF02B0BDE8B040FFF74FBD00BFDD
:102C2000026A32F8023B6FF35F234B60026295E564
:102C3000002804BF0120704710B5044690F84100F9
:102C400028B9002084F84000204600F063F82420D2
:102C500084F841002068D4E90212C36823F40053C9
:102C6000C360036923F440531A430261D4E9042387
:102C70001143C268194341F20C639A431143C16086
:102C80004169A26921F44071114343F60002C4F284
:102C900001029042416103D0FEF76EFF02E000BFE7
:102CA000FEF77EFFD4E90023192148439900B0FBC9
:102CB000F1F048F21F5CC5F2EB1CA0FB0C314FF6A3
:102CC0009C734909C0F6FF7301FB0300322303EB39
:102CD0000010A0FB0C03F02000EA531000EB0110E1
:102CE000C3F34311084490601069202120F4904000
:102CF0001061506920F02A005061D06840F4005003
:102D0000D0600020606484F8411084F84210606351
:102D100010BD000070B586B040F60004C4F2010496
:102D20000068A4F54441002688420596CDE9036673
:102D3000029601D006B070BD41F21800C4F2020044
:102D4000416802AD41F400314160416801F4003155
:102D500001910199016841F0040101600068294670
:102D600000F00400019001980420029002200390DA
:102D7000032005902046FEF757FC0820CDE9020607
:102D8000204629460496FEF74FFC2620002100220B
:102D9000FEF7D8FD2620FEF7C3FD06B070BD00008B
:102DA0002DE9F04381B0044690F84200202809D173
:102DB000884600294FF0010018BF002A06D101B053
:102DC000BDE8F083022001B0BDE8F083002022219D
:102DD0001D46606484F8421020631646FEF732FDFB
:102DE000A685E685A1680746B1F5805F02D1206916
:102DF000002851D046464FF00008E08D00284FD003
:102E000005F101090CE000BF406800266FF35F2068
:102E100028F8020BE08D0138E085E08D00283FD0D6
:102E200020680168890617D4B9F1000F22D0002D5F
:102E300000F0CA80FEF706FDC01BA84200F2BC806D
:102E40002068C168490744BF01685FEA01712FD457
:102E500001688906EED500BF002ED5D0A168B1F576
:102E6000805F15D009B9216991B1406800F07F00F9
:102E70000FE000BF01688906EED4016889065CBFD7
:102E800001685FEA8161E7D401688906F2D5E3E76A
:102E9000406806F8010BBDE70026E08D0028AFD1A1
:102EA0000020202184F8421001B0BDE8F08300BF6B
:102EB000002100910168009140680090009800BFD7
:102EC000206850E8030F216820F4907041E8030265
:102ED000BAB3206850E8030F216820F4907041E8ED
:102EE000030272B3206850E8030F216820F4907049
:102EF00041E803022AB3206850E8030F216820F458
:102F0000907041E80302002ADAD11AE0206850E804
:102F1000050F216820F0010041E80502DAB12068C0
:102F200050E8050F216820F0010041E8050292B148
:102F3000206850E8050F216820F0010041E80502F3
:102F40004AB1206850E8050F216820F0010041E8EF
:102F50000502002ADAD1206B012824D1206850E82C
:102F6000030F216820F0100041E80302DAB1206865
:102F700050E8030F216820F0100041E8030292B1ED
:102F8000206850E8030F216820F0100041E8030298
:102F90004AB1206850E8030F216820F0100041E892
:102FA0000302002ADAD1202084F842000020082100
:102FB0002063616484F840000320202184F84210DB
:102FC00001B0BDE8F08300BFFEF73CFCF4E7000071
:102FD000704700002DE9F04381B0044690F84100AD
:102FE000202809D100294FF0010018BF002A07D17D
:102FF00001B0BDE8F08300BF022001B0BDE8F0835E
:103000000020606421201D460E4684F841001746CA
:10301000FEF718FCA784E784A1688146B1F5805FBC
:1030200002D1206900285DD037460020E28C21685B
:10303000002A5DD06A1C24D0002D4AD0804600BFF3
:103040000868000608D4FEF7FDFBA0EB0900A842C3
:103050007AD82168C868F3E717B117F8010B04E0C4
:1030600038F8020B00276FF35F204860E08C0138CE
:10307000E084E08C0028E3D13AE000BF0A68120641
:1030800009D40A68120606D40A6812065CBF0A68E8
:103090005FEA0262F2D51FB117F8012B05E000BF0D
:1030A00030F8022B00276FF35F224A60E28C013A6E
:1030B000E284E28C002AE4D11AE000BF30F8022B4F
:1030C00000276FF35F224A60E28C013AE284E28CCF
:1030D00072B10A68120635D5002FEFD017F8012B10
:1030E000F1E700BF00273046E28C2168002AA1D119
:1030F000086840061ED42DB3681C14D10868400629
:103100002AD40868400627D40868400624D40868F2
:1031100040064FF00000F1D50DE000BF2068C16807
:103120000068400618D4FEF78DFBA0EB0900A8420A
:10313000F4D909E00020202184F8411001B0BDE855
:10314000F08300BFFEF77EFB0320202184F84110AE
:1031500001B0BDE8F08300BF0020202184F84110B9
:1031600001B0BDE8F083000070470000FEE70000FA
:103170002DE9F04786B0002741F21800CDE9047729
:10318000CDE90277C4F20200016840F6004841F040
:10319000040101600168C4F2010801F00401019119
:1031A00001990168A8F5806541F008010160006897
:1031B0004FF4407100F00800019001982846002269
:1031C0004FF44079FEF738FB404628210022FEF7F5
:1031D00033FB1220002402AE0290C1F211042846F3
:1031E0003146CDE90347FEF71FFA4FF0010A40468A
:1031F0003146CDE902A40497FEF716FA02242846C8
:103200003146CDE9029A04970594FEF70DFA08209D
:1032100002901120CDE90307404631460594FEF7A0
:1032200003FA2020CDE9020A40463146CDE9047474
:10323000FEF7FAF9062000210022FEF783FB0620A4
:10324000FEF76EFB072000210022FEF77BFB072024
:10325000FEF766FB0A2000210022FEF773FB0A201E
:10326000FEF75EFB06B0BDE8F087000080B586B0D3
:1032700040F2EC000021C2F200004FF0C70C0591B3
:10328000CDE90311CDE900114FF0804247F6FF432D
:10329000C0E9021C01618021C0E900238161FEF7C1
:1032A000EDFE002818BFFEF7ADF84FF480500290F5
:1032B00040F2EC00C2F2000002A9FEF7B5FF0028C0
:1032C00018BFFEF79FF840F2EC00C2F2000069461A
:1032D000FEF794FE002818BFFEF794F806B080BDF4
:1032E00080B540F2341044F20041C2F20000C4F252
:1032F000000100234FF00C0C4FF4E13280E80E0087
:10330000C0E90333C0E905C3C361FFF791FC00289E
:1033100008BF80BDBDE88040FEF774B8FEE700003E
:10332000FEE700007047000070470000FEF790BA0B
:103330007047000040F2EC00C2F20000FFF746B810
:10334000406A0021C185C184FFF7B8B981B090F807
:103350004210222921D183680246B3F5805F09D14A
:1033600052F8281F52F8183C002B63D003685B68A2
:103370000AE000BF52F8281F13B90369002BF5D0EB
:1033800003685B6803F07F030B7011680131116003
:10339000C18D01390A04C18502D001B0704700BF58
:1033A0000168CA6822F02002CA60CA6822F48072EA
:1033B000CA604A6922F001024A61202180F8421065
:1033C00000214163026B012A3CD10163016851E88D
:1033D000031F026821F0100142E80313DBB101680A
:1033E00051E8031F026821F0100142E8031393B172
:1033F000016851E8031F026821F0100142E803133D
:103400004BB1016851E8031F026821F0100142E846
:103410000313002BDAD101680A68D20606D5002210
:1034200000920A680092496800910099818D01B06C
:10343000FFF742B9026852686FF35F2221F8022B4E
:103440008162A5E701B0FFF7C3BD000040F2341070
:10345000C2F20000FFF734B9FEE700002DE9F043A7
:1034600089B040F29006C2F2000696F83F0096F846
:10347000309096F8314040F20008C4F2A00800B342
:10348000374617F83C0F7978A9EB0000611A4043E2
:1034900001FB010001F057FA01F0D1F901F022FA25
:1034A000BD7801464046002D08BF4FF08140022DF7
:1034B00004BF0020C4F2C00001F003FC002840F06B
:1034C0001F8196F8430000B3374617F8400F79780C
:1034D000A9EB0000611A404301FB010001F033FA3F
:1034E00001F0ADF901F0FEF9BD7801464046002D2E
:1034F00008BF4FF08140022D04BF0020C4F2C0007D
:1035000001F0DFFB002840F0FB8096F8470000B395
:10351000374617F8440F7978A9EB0000611A404349
:1035200001FB010001F00FFA01F089F901F0DAF96D
:10353000BD7801464046002D08BF4FF08140022D66
:1035400004BF0020C4F2C00001F0BBFB002840F023
:10355000D78096F84B0000B3374617F8480F7978B4
:10356000A9EB0000611A404301FB010001F0EBF9F7
:1035700001F065F901F0B6F9BD7801464046002D2D
:1035800008BF4FF08140022D04BF0020C4F2C000EC
:1035900001F097FB002840F0B38096F84F0000B38D
:1035A000374617F84C0F7978A9EB0000611A4043B1
:1035B00001FB010001F0C7F901F041F901F092F9B6
:1035C000BD7801464046002D08BF4FF08140022DD6
:1035D00004BF0020C4F2C00001F073FB002840F0DB
:1035E0008F8096F85300F8B1374617F8500F797866
:1035F000A9EB0000611A404301FB010001F0A3F9AF
:1036000001F01DF901F06EF9BD7801464046002D2C
:1036100008BF4FF08140022D04BF0020C4F2C0005B
:1036200001F04FFB00286BD196F85700F8B13746F0
:1036300017F8540F7978A9EB0000611A404301FB99
:10364000010001F080F901F0FAF801F04BF9BD78C2
:1036500001464046002D08BF4FF08140022D04BFB7
:103660000020C4F2C00001F02CFB002848D196F8DD
:103670005B00F8B1374617F8580F7978A9EB0000CE
:10368000611A404301FB010001F05DF901F0D7F838
:1036900001F028F9BD780146002D08BF4FF08148A0
:1036A000022D04BF40F20008C4F2C008404601F0F9
:1036B00008FB28BB40F65350C0F20A00CDF80700C3
:1036C00044F64D10C5F25330019040F23410C2F26E
:1036D000000001A906226423FFF77CFC45F2DA24EE
:1036E000C0F60004204600F0ABF845F22030C0F6EA
:1036F00000002146002200F0A3F8322544E000BF7C
:10370000B5FA85F040091E24012D08BF14240028B5
:10371000306A18BF0A2420443062706AA91EB1FAC8
:1037200081F10130490970625326012D08BF4D26F1
:10373000002945F2552101AD18BF4C26C0F6000105
:10374000284632462346FCF7BDFD82B240F23410D3
:10375000C2F20000294664236425FFF73BFC45F2D2
:10376000DF20C0F600003146224600F069F845F23D
:10377000203045F2F021C0F60000C0F600012246DC
:1037800000F05EF80020F87040F60044C4F2010436
:10379000204608210022FEF74FF82846FDF7B4FE28
:1037A000204608210122FEF747F809B0BDE8F08362
:1037B000B0B594B040F29004C2F20004A06A0025B3
:1037C0000130A062A06A38B1606A6421A26A4843ED
:1037D000B0FBF2F001E000BF0020607094F8301000
:1037E00094F8312012A000F02BF8FFF737FE84F890
:1037F0003250226A636AA06A617840F20005C2F220
:103800000005ED68CDE9000145F2762104ACC0F673
:10381000000120460295FCF755FD82B240F23410BB
:10382000C2F2000021466423FFF7D4FB14B0B0BD00
:10383000464952453A504F533A25643A25640000B0
:1038400083B010B581B00DF10C0C8CE80E0040F285
:103850002801C2F200010978D1B140F27C14C2F211
:103860000004014603AA20460092FCF719FD7D28BA
:103870000ED840F60D21215202300021215482B28F
:1038800040F23410C2F2000021466423FFF7A2FB8D
:1038900001B0BDE8104003B07047000098B040F69A
:1038A0000044C4F20104FDF7E1FF4FF000081020CE
:1038B000CDE90D880D904FF460100DF1200A02251E
:1038C000012611905046CDE90B88CDE9098808956D
:1038D0000C96CDE90F58FEF777F90F2003A981E880
:1038E00021014FF48060CDE9060803A80221FEF70C
:1038F00065F8FFF73DFCFFF7B9FCFFF7F1FC204648
:1039000008210122FDF798FF40F20009C2F20009E8
:1039100099F8000099F80110C04389F80000C843E5
:1039200089F80100FDF78EFF40F2900BC2F2000B08
:10393000CBF82C003C20CBF82080CBF82480CBF8AF
:1039400028808BF80180C9F80C0043F23220CBF8B4
:1039500030008BF83F808BF843808BF847808BF8E2
:103960004B808BF84F808BF853808BF857808BF807
:103970005B80FDF767FFCBF8100045F2203045F281
:103980001531C0F60000C0F6000100228BF800607F
:10399000FFF756FF45F28C20C0F60000FFF750FFFE
:1039A00040F2EC00C2F20000FEF706FCDBF820203B
:1039B000DBF82430DBF828009BF80110D9F80C70F4
:1039C000CDE9000145F2762108ADC0F60001284698
:1039D0000297FCF777FC40F23417C2F2000782B27C
:1039E000384629466423FFF7F5FA81A0FFF728FF40
:1039F00084A037E03C20CBF82080CBF82480CBF8A3
:103A000028808BF80180C9F80C0043F23220CBF8F3
:103A100030008BF83F808BF843808BF847808BF821
:103A20004B808BF84F808BF853808BF857808BF846
:103A30005B80FDF707FFCBF8100001208BF800003A
:103A400045F2203045F21531C0F60000C0F6000105
:103A50000022FFF7F5FE45F28C20C0F60000FFF7CC
:103A6000EFFE77A0FFF7ECFE99F8026099F8065098
:103A7000204620210022FDF7DFFE304600F05CFAF0
:103A8000284600F059FA204620210122FDF7D4FEF5
:103A900099F8035099F80760204620210022FDF78D
:103AA000CBFE284600F048FA304600F045FA2046A2
:103AB00020210122FDF7C0FE99F8045099F8086012
:103AC000204620210022FDF7B7FE284600F034FAF8
:103AD000304600F031FA204620210122FDF7ACFEED
:103AE00099F8055099F80960204620210022FDF739
:103AF000A3FE284600F020FA304600F01DFA2046CA
:103B000020210122FDF798FEFDF79CFEDBF8041052
:103B10000122411AC92928BF8BF80280DBF80C105A
:103B20000A23401AC9283846514628BF8BF803801B
:103B3000FFF736F9002897D19DF82000502809D0CA
:103B400052283FF457AF53288ED19BF8000001282C
:103B50008AD013E09BF80000012809D09BF80000F0
:103B600002287FF481AF01208BF8000028A079E7BC
:103B700002208BF800002CA074E700BF3C20CBF89B
:103B80002080CBF82480CBF828808BF80180C9F8FE
:103B90000C0043F23220CBF830008BF83F808BF8DA
:103BA00043808BF847808BF84B808BF84F808BF8E5
:103BB00053808BF857808BF85B80FDF743FECBF882
:103BC000100001208BF8000045F2203045F215313D
:103BD000C0F60000C0F600010022FFF731FE45F2FA
:103BE0008C20C0F60000FFF72BFE1BA03AE700BFB9
:103BF00053595354454D5F494E495449414C495AD4
:103C00004544000047414D455F524541445900003D
:103C10005745425F434F4D4D414E443A47414D4514
:103C20005F524553554D45005745425F434F4D4DFB
:103C3000414E443A47414D455F5041555345000080
:103C40005745425F434F4D4D414E443A47414D45E4
:103C50005F524553455400005745425F434F4D4D19
:103C6000414E443A47414D455F5354415254000040
:103C70002DE9F0478AB0FDF7E5FD40F29006C2F26B
:103C8000000671698246401AB0F5FA6FC0F0B08044
:103C900096F83F00D0B196F84300D8B196F84700A7
:103CA000E0B196F84B00E8B196F84F00F0B196F805
:103CB0005300F8B196F8570000B396F85B0000285F
:103CC00040F096804FF007081AE000BF4FF0000860
:103CD00016E000BF4FF0010812E000BF4FF00208ED
:103CE0000EE000BF4FF003080AE000BF4FF00408E9
:103CF00006E000BF4FF0050802E000BF4FF00608E5
:103D0000F06A10B9FDF79EFDF06244F66D69F06A45
:103D1000C4F2C61943F2390400FB094048F2576166
:103D2000F062F06AC4F26F41A0FB0112811A02EB4B
:103D300051018909652201FB12004C25502838BF2A
:103D40004D254FF0020738BF0127322838BF5325D1
:103D5000F06A38BF002710B9FDF774FDF062F06A11
:103D600048F2E77100FB0940CCF64521F062F06AA9
:103D700006EB8804A0FB01129109512201FB1200FD
:103D80000A3004F83C0FF06A10B9FDF75BFDF062F1
:103D9000F06A43F2390100FB09104CF23F51F06226
:103DA000F06AC4F22531A0FB011211093D2201FB8A
:103DB000120001210A306070A770E170C6F814A0EB
:103DC0002278C3B20CA02946FFF73AFD2378677822
:103DD00002AC0EA120462A460097FCF773FA82B285
:103DE00040F23410C2F2000021466423FFF7F2F8DB
:103DF0000AB0BDE8F08700BF534849505F535041B7
:103E0000574E3A25632C25642C25640053484950AD
:103E10003A25633A25643A25640D0A0010B58AB044
:103E2000FDF710FD40F29001C2F200018A69821A8A
:103E3000332A72D391F832C0BCF1000F18D0CA698E
:103E4000821A652A51D391F8333091F83120BBB3EF
:103E5000632A0BD840F22903C2F200031C78C4F194
:103E6000640494425CDA642281F83120002233E059
:103E70008B7891F83020002B18BF002A02D1CB7824
:103E800073B932E040F22903C2F200031C78A24267
:103E900026BF1B78D21A002281F83020CB7823B3BA
:103EA000D3B2632B21D840F2290EC2F2000E9EF845
:103EB0000040C4F164049C4212DA642213E000BFA3
:103EC0004AB140F22903C2F200031C78A2422DD26B
:103ED000002281F83120012281F83320C86104E0FA
:103EE0009EF800301A4481F83020886191F8302023
:103EF00091F8313045F2612102ACC0F60001204654
:103F0000CDF800C0FCF7DEF982B240F23410C2F204
:103F1000000021466423FFF75DF80AB010BD00BF22
:103F20001B781A4481F83120D8E700BF1B78D21AD9
:103F300081F83120D2E70000B0B540F60004C4F2A9
:103F400001040546C20920464FF40071FDF774FCD8
:103F500020464FF480710022FDF76EFC20464FF49E
:103F600080710122FDF768FCC5F3801220464FF4F2
:103F70000071FDF761FC20464FF480710022FDF7CF
:103F80005BFC20464FF480710122FDF755FCC5F320
:103F9000401220464FF40071FDF74EFC20464FF4CE
:103FA00080710022FDF748FC20464FF48071012209
:103FB000FDF742FCC5F3001220464FF40071FDF7F7
:103FC0003BFC20464FF480710022FDF735FC204673
:103FD0004FF480710122FDF72FFCC5F3C00220468B
:103FE0004FF40071FDF728FC20464FF48071002249
:103FF000FDF722FC20464FF480710122FDF71CFCE6
:10400000C5F3800220464FF40071FDF715FC2046F1
:104010004FF480710022FDF70FFC20464FF48071B1
:104020000122FDF709FCC5F3400220464FF4007160
:10403000FDF702FC20464FF480710022FDF7FCFBE7
:1040400020464FF480710122FDF7F6FB05F00102D6
:1040500020464FF40071FDF7EFFB20464FF48071CE
:104060000022FDF7E9FB20464FF480710122BDE8F4
:10407000B040FDF7E1BB5FEA400C08BF91F0000FD4
:104080004FEA8C234FEAC12243EA51514FEA1C50B8
:1040900018BF00F5F0404FEA300018BF41F0004172
:1040A0005FEA6C5C00F02980BCF1FF3F08BF40F084
:1040B00080407047130C06BF12044FF0100C4FF0F5
:1040C000000C130E04BF12020CF1080C130F04BFF6
:1040D00012010CF1040C930F04BF92000CF1020CBE
:1040E000D30F04BF52000CF1010C11464FF0000237
:1040F000A0F11F00A0EB0C00704711F0004F08BFAB
:10410000704731F000413FF4D5AF0B0C06BF0904F6
:104110004FF0100C4FF0000C0B0E04BF09020CF115
:10412000080C0B0F04BF09010CF1040C8B0F04BF2A
:1041300089000CF1020CCB0F04BF49000CF1010CFB
:10414000CCF1200322FA03F341EA030102FA0CF254
:10415000A0EB0C0000F101007047000023F07F4746
:1041600020F07F4C80EA030000F00040ACEB070336
:1041700003F57C5303F1FF032DE9804909B44FEAAD
:10418000144324EA03484FEA154B25EA0B4E0FF27D
:10419000042606EB13273E7803FB0667C7F50007E6
:1041A00007FB06F64FEAD64606F102064FEA5437F9
:1041B00007FB066CCCF1005C4FEA1C472CEA074C6D
:1041C0000CFB06F507FB06F404EB15464FEA9616C2
:1041D00049085FEA320234BF00204FF000404FEA46
:1041E000D13706FB07FC4FEA1C4C0CFB0BF7D21B2C
:1041F00003FB0CF761EB07010CFB0EF7B0EB07407C
:1042000072EB17420CFB08F734BFA2EB0742B2EB8C
:10421000074261EB17414FEA0C444FEA910706FB56
:1042200007FC4FEA1C4C0CFB0BF7B0EBC74072EBE2
:10423000573203FB0CF734BFA2EBC742B2EBC742C5
:1042400061EB57310CFB0EF7B0EBC70072EB577206
:104250000CFB08F734BFA2EBC702B2EBC70261EB5D
:1042600057714FEA816141EA92114FEA826242EA54
:1042700090124FEA806004EBCC04039F4FEAD137E1
:1042800006FB07FC4FEA1C4C0CFB0BF7D21B03FB95
:104290000CF761EB07010CFB0EF7B0EB074072EB7C
:1042A00017420CFB08F734BFA2EB0742B2EB074200
:1042B00061EB17414FEA8C5504EB9C244FEA9107C0
:1042C00006FB07FC4FEA1C4C0CFB0BF7B0EBC7409E
:1042D00072EB573203FB0CF734BFA2EBC742B2EBD1
:1042E000C74261EB57310CFB0EF7B0EBC70072EB26
:1042F00057720CFB08F734BFA2EBC702B2EBC70240
:1043000061EB57714FEA816141EA92114FEA826293
:1043100042EA90124FEA806015EB4C2544F100040C
:104320004FEAD13706FB07FC4FEA1C4C0CFB0BF79E
:10433000D21B03FB0CF761EB07010CFB0EF7B0EB94
:10434000074072EB17420CFB08F734BFA2EB0742A1
:10435000B2EB074261EB17414FEA813141EA9241EA
:104360004FEA823242EA90424FEA80304FEA0C76BE
:1043700015EB1C1544F1000448EA03434EEA0B48D0
:104380004FF0000EB2EB080C71EB030724BF62463E
:1043900039464EEB0E0E4FF0000B001852414941CA
:1043A0004BEB0B0BB2EB080C71EB03077BF1000B33
:1043B00024BF624639464EEB0E0E4FF0000B00183C
:1043C000524149414BEB0B0BB2EB080C71EB03076D
:1043D0007BF1000B24BF624639464EEB0E0E51EACC
:1043E000020718BF46F0010616EB0E7655F10002E3
:1043F00054F1000103D5BDE88901BDE80088BDE89E
:104400008901BDE80048B619524141EB0101A3F111
:104410000103704780807F7E7D7C7B7A7978777618
:1044200076757473727171706F6E6E6D6C6C6B6A91
:104430006A6968686766666564646363626161602F
:10444000605F5F5E5E5D5D5C5C5B5B5A5A595958AC
:104450005857575656555555545453535252525116
:10446000515050504F4F4F4E4E4D4D4D4C4C4C4B6C
:104470004B4B4A4A4A4949494848484747474746B3
:1044800046464545454444444443434343424242EF
:10449000424141419C46002B30D477002BD04FEA5B
:1044A00037071CB503B44FF010004FF01001BAF1FC
:1044B000000F06D0BCF1000FDCBF40F0080040F058
:1044C00008014FF000000FBCBDE810400BF1010BDC
:1044D000BBF1010F08BF5FEA170722BF12F101020B
:1044E00011F101014FF0004143F1000300F00040E1
:1044F00043EA00007047F9D35708D0E746EA06467A
:104500004FEA164613F1400F1FDD13F1200FDFBFF6
:1045100016430A46002120335B42BED0C3F1200778
:1045200046EA06464FEA164602FA07F746EA070643
:1045300022FA03F2C3F1200701FA07F742EA070261
:1045400021FA03F14FF00003A7E746EA020646EA24
:1045500006464FEA164646EA0106BCBF46EA06464C
:10456000360C4FF000034FF000024FF0000194E7CB
:104570002DE9804C70B49A46934691E8380007C8FC
:1045800031EA400C48BF34EA430C03D5FFF7E6FD9F
:10459000FFF780FFF0BCBDE8008C2DE9804C70B4C3
:1045A0009A46934691E8380007C810F0804F08BF3C
:1045B00013F0804F03D100F005F8FFF76BFFF0BC5C
:1045C000BDE8008C20F07F4723F07F4C80EA030099
:1045D00000F0004007EB0C03A3F57C53A3F1FE03AE
:1045E00092F0000F00F0B38095F0000F00F077809C
:1045F0002DE901494FEA114021EA00484FEA1446EB
:1046000024EA064700FB06FC08FB06F607FB08F851
:1046100018EB06484CEB164C00FB07F718EB074865
:104620004CEB17404FEA124B22EA0B4E4FEA15466D
:1046300025EA06470BFB06FC0EFB06F607FB0EFE03
:104640001EEB064E4CEB164C0BFB07F71EEB074E12
:104650004CEB174B18EB0B0840F1000018EB0E0B5E
:1046600058EB000840F100008F1A4FF000014FF0A6
:1046700000063CBFC943661B14BFB5EB040C002108
:104680003CBFC943F61B4FEA174427EA04454FEAEB
:104690001C472CEA074C04FB076205FB07F70CFBE1
:1046A00005F616EB074642EB174204FB0CFC16EB33
:1046B0000C4642EB1C421BEB060658EB0202414142
:1046C0004EEA8E0E46EA9E0601D5BDE80189B6196E
:1046D000524141EB0101A3F10103BDE801894FEA19
:1046E000144524EA05464FEA114721EA074C05FB29
:1046F00007F406FB07F70CFB06F111EB074144EB4F
:10470000174405FB0CFC11EB0C4144EB1C444FEA35
:10471000124722EA074C05FB07F206FB07F70CFBE2
:1047200006F616EB074642EB174205FB0CFC16EBB0
:104730000C4642EB1C456A1854F1000148BF704713
:10474000B619524141EB0101A3F10103704795F005
:10475000000F37D04FEA114221EA02464FEA1447D0
:1047600024EA074C02FB07F106FB07F70CFB06F4F3
:1047700014EB074441EB174102FB0CFC14EB0C4417
:1047800041EB1C414FEA154725EA074C02FB07F5B0
:1047900006FB07F70CFB06F616EB074645EB17453D
:1047A00002FB0CFC16EB0C4645EB1C42121951F1B6
:1047B000000148BF7047B619524141EB0101A3F116
:1047C000010370474FEA144524EA05464FEA1147B2
:1047D00021EA074C05FB07F106FB07F70CFB06F285
:1047E00012EB074241EB174105FB0CFC12EB0C42AC
:1047F00051EB1C414FF0000648BF7047921841EB47
:104800000101A3F101037047490050EAC12018BF1C
:1048100004204A0D18BF40F0010040F2FF72B2EBD5
:10482000515F08BF40F00200012808BF0520704713
:1048300030380A2801D201207047002070472DE946
:10484000F04106460F4600F0DFF8041E0D4618BF83
:104850000120284320F00040C0F17F6000F1E040DB
:10486000C00F0ED0301C18BF0120384320F000408C
:10487000C0F17F6000F1E040C00F04BF0120FBF7F2
:1048800069FE20462946BDE8F081000010B50029E8
:104890000AD00878002807D005487844FCF75AFD6C
:1048A000002801D0002010BD0248784410BD00004F
:1048B000BA0A0000B20A000010B500290AD0087830
:1048C000002807D005487844FCF744FD002801D0B3
:1048D000002010BD0248784410BD0000AA0A000064
:1048E000A20A000021F0004201F00043A2F1605250
:1048F000B2F5801F28BFD2F17F6C0BD95FEA001C94
:1049000043EAC20242EB507018BF704728BF20F044
:1049100001007047B2F5801FBCBF184670474FEAD0
:10492000410C1CF5001F02D2084600F07EBB70B59A
:1049300000F01CF800000089FFF7F6BF4FF00040C0
:10494000A0F580007047B0FA80F310FA03F10AD0A6
:10495000C3F11D0303F580634FEA03524FEA415050
:1049600002EBD12170474FF0000070470EF1020EAC
:104970002EF0030E5EF8046B364205D4012A43EB99
:10498000030515F5001F12D8012841EB010C1CF599
:10499000001F0CD80ED14FEAD17C0CEB4C0C0CF163
:1049A000020C15F5001F08BF4CEBD37C04E04FF060
:1049B000080C01E04FEAD37C0CEB4C0526FA05F617
:1049C00006F00706B6F1040C06D20EEB860CBDE825
:1049D00070404CF0010C6047DFE80CF0090B02025C
:1049E0004FF00041A1F500214FF0000070BD1946C5
:1049F0001046012851EB010418BFD4F5001484BF00
:104A0000002001F0004170BD2DE9F04101F5801C4E
:104A1000BCF5001FC0F2C3804FEA115C21EA0C51C3
:104A200041F480110CF1FD0C5FEA5C0C0CF5C07CCC
:104A300001D340004941890241EA905187023BA4D9
:104A40008E0EA45D0A0C04FB04F602FB06F6C6F10A
:104A50004046A4FB0662F60D46EA422606FB06F433
:104A6000A4FB01235242C3F1404338BF5B1EA6FBA7
:104A700002420024E6FB0324D20B42EA4446A6FB92
:104A80000623A1FB02E2A3FB07E4A4184FF00002F7
:104A900052F10002E3FB01426442C2F1404E38BFD2
:104AA000AEF1010EA6FB04234FF00002E6FB0E322E
:104AB000A2FB0346B6194FF0000454F10004E2FBD8
:104AC0000264A1FB06E6A4FB07E816EB08064FF01C
:104AD000000858F10008E4FB01687642C8F140582C
:104AE00038BFA8F10108A2FB06E4A3FB08E52D19D5
:104AF0004FF0000454F10004E2FB0854A1FB05E66A
:104B0000A7FB04E818EB06084FF0000656F1000674
:104B1000E1FB048618F1200556F10006A80940EAD9
:104B20008660B109A8F11B0808F03F08B8F10A0F28
:104B30001CD901EB0C51BDE8F08100BFFCF5EEE89B
:104B4000E2DDD8D3CFCBC7C3C0BDB9B6B4B1AEAC2C
:104B5000A9A7A5A3A19F9D9B9A9896959392908FA4
:104B60008D8C8B898887868584838281A0FB0068F1
:104B700000FB01F208EB4208B8EB872807D5341890
:104B800058EB0104D5D5401C51F10001D1E7341A8E
:104B900078EB0104CDD4401E71F10001C9E75FEA52
:104BA0004C0C5FEA9C5C0DD105D301F000414FF045
:104BB0000000BDE8F081BDE8F04170B5FFF7D6FE1A
:104BC0006DDBFFBEBDE8F04101494FF000007047CA
:104BD0000000F87F90EA010F48BF81F0004100F12A
:104BE0003082421A3CBF801A89184FEAD052A2EB99
:104BF000D1534FF07F4C1CEA410F18BF9CEA026F63
:104C000000F03B804FF0004C4CEA00204CEA0121C0
:104C100021FA03FC10EB0C0C1ED202F1FF325FEA0A
:104C20001C2040EBC25038BF70471CF07F0F4FEA8A
:104C3000400C18BFBCF17F4F38BF7047C3F1200351
:104C4000994008BF20F00100BCF17F4F38BF70478A
:104C5000A0F1C04000F0E9B94FEA3C00000A40EB87
:104C6000C25028BF1CF0FF0F4FEA400CE6D018BF1F
:104C7000BCF17F4F38BF7047EAE79CEA026F05D06E
:104C800010EA5C0F08BF00F00040704710B500F05C
:104C900086F900BF64FBBE3E10B500F033F80CBFD0
:104CA0000120002010BD10B500F02CF814BF012029
:104CB000002010BD10B500F089F88CBF0120002045
:104CC00010BD10B500F082F82CBF0120002010BDEF
:104CD00010B500F0AFF894BF0120002010BD10B552
:104CE00000F0A8F834BF0120002010BD401058BFCC
:104CF000C0F14040491058BFC1F140418142EFF33B
:104D00000080704750EA010C00F113801CF5000F81
:104D100058BFBCF5000F01D48842704707D710F583
:104D2000000F58BF11F5000F15D488427047894213
:104D300070471CF5000F04D5BCF5000FF7D5814274
:104D400070474FF0807C1CEB400F38BF1CEB410FCD
:104D500001D28142704710B500F021F99224490038
:104D60004FF000504FF08051FFF7C0BF41000B0ED5
:104D7000D3F19E0208D950F400034FEA032323FA2B
:104D800002F048BF4042704710B500F008F900BF7C
:104D900049922480002070476FF0004282EA200090
:104DA00070470000B0FA80F310FA03F2C3F19D03DC
:104DB0000AD0D90501EB1220530638BF704700F125
:104DC000010008BF20F001007047000050EA010C0C
:104DD00000F113801CF5000F58BFBCF5000F01D483
:104DE0008842704707D710F5000F58BF11F5000F24
:104DF00015D488427047894270471CF5000F04D5CE
:104E0000BCF5000FF7D5814270474FF0807C1CEB5A
:104E1000400F38BF1CEB410F01D28142704710B5E3
:104E200000F0BDF8922449004FF080504FF000513F
:104E3000FFF75CBF50EA010C00F113801CF5000F76
:104E400058BFBCF5000F01D48842704707D710F552
:104E5000000F58BF11F5000F15D4884270478942E2
:104E600070471CF5000F04D5BCF5000FF7D5814243
:104E700070474FF0807C1CEB400F38BF1CEB410F9C
:104E800001D28142704710B500F089F892244900A0
:104E90004FF000504FF08051FFF728BF4FF47F0CC8
:104EA0001CEAD0121EBF1CEAD11392EA0C0F93EA3F
:104EB0000C0F00F0478090EA010F48BF42F4807267
:104EC0004FF0004C4CEA00204CEA012102EB0302B7
:104ED000A0FB0113A2F50002002918BF43F0010353
:104EE0005B0028BF4FEA330342EB22425FEA132CF8
:104EF0004CEBC2502EBFBCEB436FB2F57C0F70473A
:104F00004FEA036CBCF1004F08BF20F00100B2F57E
:104F10007C0F38BF70470BD582F0FF0212F5803F3F
:104F2000C8BF704700F1C040D8BF00F000407047D4
:104F300000F5000C5FEA4C0C48BF7047B0F1C04070
:104F400000F073B80CEAD11390EA010F48BF42F4A5
:104F50008072624538BF634504D280EA010000F0E8
:104F60000040704710B500F01AF800BF8900013EFC
:104F700000F007B800F009B85FEA410C5FEA1C6C6A
:104F800008D080EA010000F050B85FEA400C5FEA08
:104F90001C6CF6D14FF00040A0F5800070470EF178
:104FA000020E2EF0030E5EF8044B244204D44FEAA6
:104FB0004102B2F17F4F11D84FEA4003B3F17F4F66
:104FC0000CD80ED14FEAD07C0CEB4C0C0CF1020C3F
:104FD000B2F17F4F08BF4CEBD17C04E04FF0080CDE
:104FE00001E04FEAD17C0CEB4C0324FA03F404F00B
:104FF0000704B4F1040C06D20EEB840CBDE810409B
:105000004CF0010C6047DFE80CF0070802024FF09B
:105010000040A0F5800010BD0846420018BFD2F144
:10502000807288BF00F0004010BDFF2141EAD050DF
:10503000C005704790EA010F48BF81F000413FF57D
:10504000D0AD421A04D882F00042A0EB0200114415
:105050004FEAD052A2EBD1534FF07F4C1CEA410FE4
:1050600018BF9CEA026F4AD04FF0004C4CEA002077
:105070004CEA012121FA03FCB0EB0C0C0FD412F026
:10508000FE0F36D05FEA4C001DD5001240EBC25037
:1050900038BF70471CF03F0F18BF70470BE05FEA46
:1050A0001C20A2F1010240EBC25038BF70471CF037
:1050B0007F0F18BF7047C3F12003994014BF401EF3
:1050C00020F0010070474FEA1223800808BF7047A4
:1050D000B0FA80FCA2EB0C02CCF1280C60FA0CF0C8
:1050E00093EA122F04BF00EBC25070474FEAC3701F
:1050F0007047130A5FEADC1008BF7047F6E79CEAC6
:10510000026F04D010EA5C0F08BF0020704710B592
:10511000FFF745FF40DFF63E81F000407047FBF7A8
:1051200038BDFBF76DBE0400000800000000000061
:10513000000200010000100000000000000000005C
:1051400030313233343536373839414243444546BD
:1051500040305800303132333435363738396162B7
:105160006364656640307800303132333435363729
:105170003839616263646566787000303132333487
:1051800035363738394142434445465850000000CF
:1051900002400000000000A00000000005400000E8
:1051A000000000C8000000000C4000000000409C0F
:1051B00000000000194000000020BCBE00000000FC
:1051C00034400000BFC91B8E00000004B540000041
:1051D000504BCFD06607E2CF010000006C410000C9
:1051E0003E8251AADFEEA73401000000D942000040
:1051F000DCB5A0E23A301F97FFFFFFFFB445000087
:10520000FD25A0C8E9A3C14FFFFFFFFFFF3F00003E
:105210000000008000000000FF3F00000000008050
:105220000000000000000000000000000102030474
:10523000060708090000000001020304010202033E
:105240000405060708090A0B0C0D0E0F10104D4936
:1052500053530D0A004849543A25633A25750D0AFF
:105260000043524F5353484149523A25753A2575E8
:105270003A25750D0A0047414D453A25753A257581
:105280003A25753A25753A25750D0A0053434F5254
:10529000453A3020484954533A302053484F5453EC
:1052A0003A30204143433A3025250043524F53536F
:1052B000484149523A4C4F434B45440043524F53A7
:1052C00053484149523A464952450043524F53537D
:1052D000484149525F4C4F434B004D49535300489E
:1052E00049543A25633A257520504F494E5453008E
:1052F000484954004D4F56453A4C4546543A53544C
:10530000415254004D4F56453A52494748543A533A
:10531000544152540047414D455F5354415254004B
:1053200047414D455F4556454E543A25733A256CE5
:1053300075000000805400080000002030000000CC
:1053400050010008B054000830000020D0070000D1
:10535000700100081C00000043000000F8FFFFFF80
:105360000C0000000E0000000F0000002E000000E6
:105370001001000043000000F8FFFFFF0040404024
:105380004040404040404141414141404040404018
:1053900040404040404040404040404040050202C4
:1053A0000202020202020202020202020220202083
:1053B00020202020202020020202020202029090DF
:1053C00090909090101010101010101010101010DD
:1053D0001010101010101010020202020202888831
:1053E000888888880808080808080808080808083D
:1053F0000808080808080808020202024000000025
:10540000000000000000000000000000000000009C
:10541000000000000000000000000000000000008C
:10542000000000000000000000000000000000007C
:10543000000000000000000000000000000000006C
:10544000000000000000000000000000000000005C
:10545000000000000000000000000000000000004C
:10546000000000000000000000000000000000003C
:10547000000000000000000000000000000000002C
:105480004080FFFFFFFFF8F4F2F100003C00000055
:10549000C0F9A4B0999282F8809000000100000049
:1054A0001000000000127A0001020000000000005D
:04000005080000ED02
:00000001FF
