:020000040800F2
:100000004009002061020008D5320008DD300008F8
:10001000D13200086D140008B93700080000000054
:10002000000000000000000000000000DD320008B9
:100030008914000800000000D9320008E1320008ED
:100040007B0200087B0200087B0200087B0200089C
:100050007B0200087B0200088D140008951400083C
:100060007B0200087B0200089D1400087B02000848
:100070007B0200087B0200087B0200087B0200086C
:10008000711400087D1400087B0200087B02000840
:100090007B0200087B0200087B0200087B0200084C
:1000A0007B0200087B0200087B0200087B0200083C
:1000B000E93200087B0200087B0200087B0200088E
:1000C0007B0200087B0200087B0200087B0200081C
:1000D0007B0200087B020008AD3700087B020008A5
:1000E0007B0200087B0200087B02000800F002F897
:1000F00000F0A6F814A696E8000CB244B344DA4522
:1001000001D100F09DF8BAE80F000FA696E8300084
:10011000A5EB040504EB0607AAEB0704A7F101070A
:100120004FEA15154FEA3414A4F10104AC4201D38F
:1001300000F086F813F0010F18BFFB1A43F001031B
:1001400000F001F8DBE71847804C0000A04C0000ED
:10015000103A24BF78C878C1FAD8520724BF30C8F3
:1001600030C144BF04680C60704700007047000055
:100170000023002400250026103A28BF78C1FBD8B0
:10018000520728BF30C148BF0B6070476E2900F08E
:10019000A381702900F0E782662904F0558565295E
:1001A00004F05285672904F04F85612904F04E85DB
:1001B00003681B0A28BF41F08001692900F05081C3
:1001C000642900F04D81752900F04A816F2900F003
:1001D0007582782900F0B382E92900F00F82E429C2
:1001E00000F00C82F52900F00982EF2900F07282FC
:1001F000F82900F0B2820368DB0928BF41F08001D2
:10020000632900F0B387732900F0B887E32900F071
:10021000C387F32900F0C887002070471FB501F09D
:1002200019F804000020002104F0F8FC401C606074
:100230000020002104F0DCFCE0601FBD10B510BD03
:1002400000F0DAFF1146FFF7E9FF03F015FC01F0BB
:10025000B7F803B4FFF7F2FF03BC01F0FFF80000AA
:100260000948804709480047FEE7FEE7FEE7FEE74A
:10027000FEE7FEE7FEE7FEE7FEE7FEE70448054986
:10028000054A064B70470000E5320008ED00000803
:1002900040030020400900204005002040050020C8
:1002A0007CB51D4616460C00009007D04142A14285
:1002B00002D32044401E01E04FF0FF30064B7B4448
:1002C0002A4669460190304600F01FF9002C02D002
:1002D000009A002111707CBD6F02000010B5431E12
:1002E00013F8014F002CFBD105E011F8014B002C55
:1002F00003F8014B03D0521EF7D20021197010BD34
:1003000040EA010310B59B070FD1042A0DD310C892
:1003100008C9121F9C42F8D020BA19BA884201D9E4
:10032000012010BD4FF0FF3010BD1AB1D30703D02C
:10033000521C07E0002010BD10F8013B11F8014BE2
:100340001B1B07D110F8013B11F8014B1B1B01D1FE
:10035000921EF1D1184610BD10B5431C02E010F8F2
:10036000011B71B18107FAD14FF0013202C88C1A1A
:100370008C4314EAC211F9D0C01A0A0603D0C01E79
:1003800010BDC01A10BD0A0401D0801E10BD0902A4
:10039000FCD0401E10BD70477047704770B50446D2
:1003A00085690068C10601D5302600E02026C00717
:1003B00007D070BDD4E9012130469047206A401C27
:1003C00020626D1EF6D570BD70B504468569007853
:1003D000C00707D170BDD4E9012120209047206AD1
:1003E000401C20626D1EF6D570BD09684A0501D516
:1003F00040B27047C905FCD500B2704709684A058C
:1004000001D5C0B27047C905FCD580B2704770B540
:100410000C460546012A05D02878800600D5EA69F1
:10042000002302E0012305E05B1C934202D2E05C62
:100430000028F9D1A869E618C01AA861286A1844EA
:1004400028622846FFF7AAFF04E0D5E9012114F845
:10045000010B9047B442F8D32846FFF7B5FF70BDB3
:100460002DE9F0410646002410687529314616A58D
:1004700010D0FFF7BAFF002802DA404213A507E0C8
:1004800031688A0701D512A502E0490704D511A5F4
:10049000012401E0FFF7B2FF00210A2206F1240740
:1004A00009E0B0FBF2FCB0FBF2F302FB1C003030C1
:1004B00078541846491C0028F3D123462A46304672
:1004C000BDE8F04100F063BA000000002D0000001C
:1004D0002B0000002000000011680268006A53052C
:1004E00001D508700AE0D30501D5088006E013069F
:1004F00003D5C217C1E9000200E00860012070477F
:1005000001694A1C02610878704700B58FB0CDE9D7
:1005100001310021059105497944CDE903101146C7
:10052000684600F02BF90FB000BD0000E5FFFFFFAB
:10053000D1E900239A4202D2531C0B60107070471D
:100540002DE9FF5F15468A460446DFF8AC80F84483
:100550000027D8E900103E46CDE9001010E03AF837
:1005600016106A4602A800F023FE411C07D021782D
:10057000890603D5E269391891420DD80744761CE3
:100580002078800602D5E069B84205DDAE42E6DBA0
:100590003AF816000028E2D1A069C01BA0612046ED
:1005A000FFF7FCFED8E90010CDE90010002017E0AD
:1005B0003AF818106A4602A800F0FAFDB0F1FF3FC1
:1005C00081460BD000250DF1080B05E0D4E901218F
:1005D0001BF8050090476D1C4D45F7D308F101004D
:1005E000B0428046E4DB206A384420622046FFF7B0
:1005F000EBFEBDE8FF9F0000FE4600002DE9F04144
:100600008046D21D22F007020025D2E90002F5291A
:1006100015A614D0011E72F1000106DA0023D0EBFA
:10062000030063EB020211A608E0D8F800108B0764
:1006300001D50FA602E0490701D50EA601251146F6
:10064000002408F1240704E000F05CF930323A5548
:10065000641C50EA0102F7D12B463246214640463F
:10066000BDE8F04100F093B9000000002D0000004B
:100670002B0000002000000030B4002100F1240411
:1006800008E002F00705D208303542EA4372DB0881
:100690006554491C52EA0305F3D10468002310A2F3
:1006A000250708D504F020040C4304D0C4690123B5
:1006B0000CA2641EC46130BC00F069B910B50446D8
:1006C00021461068FFF79AFE02462046BDE810401A
:1006D0000023D1E7D21D22F00701D1E90023CBE7A7
:1006E0000000000030000000F0B40D46018809054C
:1006F00002D5214C7C4402E01F4C7C440E34002186
:1007000000F1240608E002F00F071209E75D42EA53
:1007100003721B097754491C52EA0307F3D102788C
:100720000023120704D5702D06D009B1022311341D
:100730002246F0BC00F02BB901231034F8E770B565
:1007400004460D4621461068FFF758FE024629462A
:100750002046BDE870400023C6E7D21D22F0070303
:10076000D3E90023C0E70368126843F02003036065
:100770000823C3610023B7E7604500002DE9F05F5F
:10078000894604464FF0000ADFF874B1FB44C0F814
:1007900020A02046E1688847002874D0252806D08C
:1007A000D4E901219047206A401C2062F1E700262D
:1007B0005F462046E16888472028054607DB312D43
:1007C00005D2781910F8200C08B10643F1E7B007FC
:1007D00001D526F00406C4F81CA00027C4F818A010
:1007E0002A2D09D0284604F0FBF938B304EB87081A
:1007F000303DC8F8185019E059F8041B204604EBA6
:1008000087029161E1688847012F054618D1E069A8
:10081000002820DA26F020061DE0D8F8180000EBAA
:10082000800005EB40003038C8F818002046E16829
:100830008847054604F0D4F90028EED1012F0AD0EC
:100840002E2D08D12046E16888477F1C0546022FDF
:1008500046F02006C4DBA069002803DA404246F0D7
:100860000106A061F00701D026F010066C2D0BD018
:10087000682D09D04C2D39D06A2D35D0742D35D046
:100880007A2D33D016E038E0E1682F4620468847BD
:10089000B842054609D16C2F26D04FF48060E1683C
:1008A000064320468847054604E06C2F1AD04FF4D3
:1008B000807006430DB3A5F14100192802D82035F8
:1008C00046F400664A462946204626604E46FFF713
:1008D0005DFC80B101280BD0F61D26F0070000F169
:1008E000080956E74020E4E78020D8E70020D6E753
:1008F00006F104094DE7284652E7206ABDE8F09F5B
:10090000F044000030B5B0F10A0271F100034FEA83
:10091000900E4EEA817EB0EB0E0061EB91014FEA42
:10092000101E4EEA017E10EB0E0041EB11114FEA52
:10093000102E4EEA016E10EB0E0041EB11214FEA32
:10094000104E4EEA014E10EB0E0041EB11414018E3
:1009500041F100014FEAD00040EA41704FEAD10175
:100960004FEA810444EA907410EB800544EB0104E3
:100970006D1944EB0404521BA3414FF0000348BF20
:100980000A3200D530BD401C41F1000130BD2DE9D7
:10099000F0470D4699469246044600F12408016846
:1009A000880604D5E06921F01001216000E00120F3
:1009B000A84201DD471B00E00027A1697A1902EB7C
:1009C0000900081AA0612078C00602D42046FFF76B
:1009D000E5FC002608E0D4E901211AF8060090475A
:1009E000206A401C761C20624E45F4DB2078C0064D
:1009F0000AD52046FFF7D2FC06E0D4E901213020D9
:100A00009047206A401C2062381EA7F10107F4DCE1
:100A100007E0D4E9012118F805009047206A401C3E
:100A20002062281EA5F10105F3DC2046FFF7CCFC6F
:100A30002078000602D50220BDE8F0870120FBE700
:100A40002DE9FF4F0C461E464FF0FF378BB0D2E921
:100A50000001DDF860800A908A46C1F30A5505B9A5
:100A60003D46002108464FF00000BAF1000F00F4A7
:100A7000400005DA00EB80004FF4400101EA50002D
:100A80004FEA9059B9F1010F00DDB9460A9850EAD2
:100A90004A000ED044F61050A5F2FF3545432F14FE
:100AA000B8F1000F1ED07542291E1EDDC9F10002EB
:100AB0001CE0B8F1010F4FF0000001D0302103E03D
:100AC000F24305E02154401CB042FBDB30460022DB
:100AD000002121540B99C1F80880C1E900200FB012
:100AE000BDE8F08FBD1B6D1CDEE74A4600DA6942A7
:100AF00006A800F0F3FB06AB93E8070003AB83E81E
:100B0000070050460A9903F08EFC8DE80700A0F517
:100B100000501F3800900398002D0ADD42F21F019B
:100B20004A460844002303A90390684603F0F8FEF0
:100B300009E0A0F500504A461F38002303A903909E
:100B4000684603F002FF8DE807000004000C03D0A4
:100B50004FF0FF30410800E01046B8F1000F03D01D
:100B60000022009215461EE0751E05D4FFF7CAFE4E
:100B7000303262556D1EF9D5B3460122084302D0CA
:100B800000227F1C04E02078302801D100227F1E43
:100B9000002A099784D01DE0112D07DAFFF7B2FE75
:100BA000303262556D1C50EA0102F5D1084302D083
:100BB0000098C8B10EE00021681E05E0235C625C6D
:100BC00063542254401E491C8142F7DBAB46A81BEC
:100BD000401E0990002004F80B000B98099AC0F8F9
:100BE0000880C0E9002B7AE711264FF0000857E78C
:100BF0002DE9F04F88460446D21D22F0070191B03E
:100C0000D1E90001CDE90A0103F0D6FF02460B98B5
:100C1000C00F01D02D2007E02068810701D52B20CF
:100C200002E0202101EAC000032A099001D0072A2E
:100C300005DB03464146204600F010FB0BE120781F
:100C4000800601D5E06900E00620B8F1650F814615
:100C500006D0B8F1660F18D0B8F1670F70D131E047
:100C60000020B9F1110F009001DB112301E009F11F
:100C700001030AAA01A90CA8FFF7E2FEDDE90C7046
:100C8000002609F10105834647E001204B4600900C
:100C90004FF000470AAA01A90CA8FFF7D1FEDDE931
:100CA0000DB00C995D46002610B909F101000D1830
:100CB000B9EB050003D4C0F1FF3609F10105A5EB3E
:100CC00009002BE0B9F1010F01DA4FF00109002012
:100CD000B9F1110F0090484601DD112300E00346F1
:100CE0000AAA01A90CA8FFF7ABFEDDE90C704D467E
:100CF00000268346207800070AD4AB4500DA5D461B
:100D000001A8012D04DD411911F8011C302907D07B
:100D10004F4502DA17F1040F04DA012082460FE092
:100D20006D1EEEE7002F02DCED1B3E4403E0781C55
:100D3000A84200DD7D1CB81B00F1010A4FF00047FE
:100D40002078000703D4AA4501DB4FF0FF3A0021C9
:100D5000B7F1004F0DF143088DF8431024D0022065
:100D60002B23002F01DA7F422D230A21021EA0F13E
:100D7000010000DC5FB197FBF1FC97FBF1F201FB96
:100D80001C7C17460CF1300C08F801CDEEE7A8F1F9
:100D9000010003702188090501D5452100E0652186
:100DA000A0F1010800F8011C09980FA9A1EB0807A0
:100DB000FF1D00B10120411901EBEA70A16938441F
:100DC000081A401EA0612078C00602D42046FFF712
:100DD000E5FA099828B1D4E901219047206A401C1E
:100DE00020622078C00622D52046FFF7D7FA1EE001
:100DF000002E04DBB34502DD01A8805D00E0302059
:100E0000D4E901219047206A401C2062761CAAF197
:100E100001005FEA000A0AD100F01CFAC06801680C
:100E2000405CD4E901219047206A401C2062281EC2
:100E3000A5F10105DCDC07E0D4E9012118F8010B7C
:100E40009047206A401C2062381EA7F10107F3DC9E
:100E50002046FFF7B9FA032011B041E62DE9F04F23
:100E600004460D46D21D22F0070089B0D0E9009754
:100E70004846394603F0A0FE0246F80F01D02D2364
:100E800007E02068810701D52B2302E0202101EA39
:100E9000C0038DF820300BB1012000E00020032AB0
:100EA000824601D0072A04DB2946204600F0D6F905
:100EB0003FE12078800601D40D2500E0E569C7F305
:100EC0000A560D2D49DA00214FEA175B08464FF00C
:100ED0000000002F00F4400007DA00EB80004FF420
:100EE000400100EBD07001EA60008115012901DDAD
:100EF0004FF0FF3100224FEA850CBCF1180F06D3EA
:100F00001346ACF118004FF08052C24003E04FF49A
:100F1000801323FA0CF30CF10C0CBCF1200F04D35A
:100F2000ACF1200C09FA0CF001E007FA0CF00029F2
:100F30004FF0004801DD18B90FE00ED140450CD349
:100F400019EB02095F4121B9404502D19F4329EACB
:100F50000209BBEB175F00D0761C2088000502D584
:100F60007B48784402E07A487844193808AA30234C
:100F700002F80A30037C0AF10101002E0AF1020A8C
:100F800053546A4602DC4FF0300101E04FF031016A
:100F90004FF001088DF8001002D0A6F2FF3603E0F2
:100FA00059EA470100D06B4E002D02DC2178090779
:100FB00004D54FF002082E218DF80110C4460021FF
:100FC0000BE0C7F303433F01C35C491C6D1E02F8ED
:100FD0000830052908F1010801DA002DF1DC0021B3
:100FE0000CE000EB1973491C1B786D1E082902F8F0
:100FF00008304FEA091908F1010801DA002DF0DC88
:1010000021688B0602D516E0A8F10108E04505DD50
:1010100002EB080313F8013C302BF5D0B8F1000FB8
:1010200009DD02EB080313F8013C2E2B03D109075D
:1010300001D4A8F10108002D05DD3E2102F80810B9
:101040006D1E08F10108407C002E02F8080008F12E
:10105000010804DA2D20764202F8080002E02B2075
:1010600002F808000A214FF47A70864208F101085C
:101070000BDB96FBF0F3303302F8083096FBF0F30D
:1010800008F1010800FB136601E0642E0CDB64200C
:1010900096FBF0F3303302F8083096FBF0F308F1DA
:1010A000010800FB136601E00A2E06DB96FBF1F057
:1010B000303002F8080008F1010896FBF1F001FB5E
:1010C0001060303002F80800A16908F1010808EB4F
:1010D000050202EB0A00081AA0612078C00602D4BB
:1010E0002046FFF75BF9216A08AE01EB0A00206297
:1010F00004E0D4E9012116F8010B9047BAF1010A86
:10110000F7D22078C00602D52046FFF747F96E4691
:1011100009E016F8010B3E280FD0D4E901219047D1
:10112000206A401C2062B8F10108F2D22046FFF785
:101130004BF909B00320BDE8F08F206A28442062F3
:1011400003E0D4E90121302090476D1EEBD3F8E78E
:101150003E3D000002FCFFFF10B5436913B1AFF341
:10116000008001E0FFF753F9012010BD127800F173
:1011700024010A7000224A700122EDE711684FF045
:10118000FF32E9E710B5436913B1AFF3008001E026
:10119000FFF7D6F9012010BD128800F124018284E6
:1011A0000022C2840122EDE711684FF0FF32E9E727
:1011B0002DE9F04116460C46054600F043F8036859
:1011C00093F80101012807D0FF2C12D8185D80B1D7
:1011D00001202C70BDE8F081D3F80701324621468A
:1011E00003F20713C7182846BC46BDE8F0410023A8
:1011F00060474FF0FF30EDE7754600F0EBF8AE4684
:1012000005006946534620F00700854618B020B512
:10121000FFF734F8BDE820404FF000064FF000071C
:101220004FF000084FF0000BAC46ACE8C009ACE84A
:10123000C009ACE8C009ACE8C00921F007018D463F
:101240007047000010B500F005F8001D10BD00BF8C
:10125000CD39000000487047500000202DE9F041D2
:101260001F46044603260168072A01F4006004DBD8
:1012700008B116A505E016A503E008B115A500E024
:1012800015A521F010002060A069C01EA0610FB15B
:10129000401EA0612046FFF781F84FB1D4E901213B
:1012A00038469047206A401C2062C01C206206E03D
:1012B000206AFAE7D4E9012115F8010B9047761E60
:1012C000F8D22046FFF780F8BDE8F0814E414E008D
:1012D0006E616E00494E4600696E66002DE9F0476A
:1012E000814616468AB0354878440DC88DE80D0011
:1012F00032487844801C03AC0DC884E80D0041F6E8
:101300009B300844372190FBF1F290FBF1F5A5F1F9
:10131000800501FB12041B3C02D56442012000E061
:101320000020DFF898A080460027FA44AAF1BE0A00
:101330000EE0E0070AD03246684607EB470101237A
:101340000AEB810103F001FB8DE8070064107F1CAC
:10135000002CEED1194F7F44AE3F19E0E80715D0BD
:1013600007EB04100DF1180A90E80E008AE80E0051
:10137000C068F04201D1981908903246012306A9AD
:1013800003A803F0E2FA03AB83E807006D10641CC6
:10139000002DE3D14FF0010332466946B8F1000F4A
:1013A00003A802D003F0BCFA01E003F0CEFAC9E9C9
:1013B0000001C9F808200AB0BDE8F087483A0000EB
:1013C00010B50446AFF300802046BDE81040FEF79C
:1013D00040BF000000487047300000204FF0013C43
:1013E00050F8042B51F8043B9A4221D1A2EB0C0394
:1013F000934313EACC1317D150F8042B51F8043B54
:101400009A4215D1A2EB0C03934313EACC130BD1F0
:1014100050F8042B51F8043B9A4209D1A2EB0C037B
:10142000934313EACC13DBD04FF00000704700BFAA
:10143000D01A01BAB1FA81F101F0180122FA01F0D3
:10144000CB40DBB2C0B2C01AC1F120012CFA01F3CB
:10145000D11A914311EAC311E6D17047014918200E
:10146000ABBEFEE72600020070470000FEE700006A
:1014700040F2EC00C2F2000000F096B840F23010EA
:10148000C2F2000000F090B870470000012000F0A8
:10149000EFB90000022000F0EBB90000102000F0CE
:1014A000E7B9000070470000014690F821000228CB
:1014B00016D10868D1E90FC3026822F00E0202605B
:1014C000026822F001020260012000FA03F2CCF867
:1014D000042081F821000020002281F8202070479C
:1014E000042088630120002281F82020704700003A
:1014F00090F82110022923D1026840F2040C1168EF
:10150000C4F2020C21F00E01116013682F21C4F205
:1015100002018A4223F00103136015DD3023C4F277
:1015200002039A421CD04423C4F202039A421BD005
:101530005823C4F202039A421CD14FF4803321E0B5
:1015400004218163012070470823C4F202039A42F8
:101550000ED01C23C4F202039A420BD1102311E0D7
:101560004FF480730EE000BF4FF480530AE000BFD9
:10157000012307E00CF168014FF080738A4208BF35
:101580004FF480130121CCF8003080F82110416B1A
:101590000022002980F8202004BF0020704780B579
:1015A0008847002080BD000010B5D0E90FCE01684B
:1015B000DCF800300A6823FA0EF35C072AD512F033
:1015C000040427D00A68920603D40A6822F00402B1
:1015D0000A602F22C4F20202914240F20402C4F2D5
:1015E00002025BDD3023C4F20203994272D044232D
:1015F000C4F20203994273D05823C4F20203994201
:1016000040F07A804FF480231360C16A002940F0D3
:1016100098806FE09C0727D512F0020424D00A6856
:10162000920606D40A6822F00A020A60012280F8B3
:1016300021202F22C4F20202914240F20402C4F29D
:1016400002023BDD3023C4F20203994260D04423FE
:10165000C4F2020399425FD05823C4F202039942B4
:1016600060D14FF4003365E01B0743D512F0080248
:1016700008BF10BD0A6822F00E020A60012101FABB
:101680000EF2CCF80420816380F82110016B002257
:10169000002980F8202054D12CE000BF0823C4F298
:1016A0000203994222D01C23C4F20203994223D19F
:1016B00040231360C16A002943D11BE00823C4F210
:1016C000020399422CD01C23C4F20203994229D16F
:1016D00020232FE04FF480631360C16A89BB09E0C7
:1016E0004FF480431360C16A59BB03E004231360C5
:1016F000C16A31BB10BD00BF02F168044FF08063C6
:10170000A14208BF4FF480031360C16AC9B9F1E771
:101710004FF400730EE000BF4FF400530AE000BF27
:10172000022307E002F168044FF00073A14208BFF2
:101730004FF400131360816A0022002980F82020F2
:10174000D8D0BDE810400847014600284FF00100FE
:1017500008BF70472DE9F043D1F800C04FF6F87389
:10176000CBF6FD734CF6CD426344CCF6CC42A3FBE2
:1017700002236FF0030202EA93020023C4F2020381
:1017800001F10C08C1E90F320222D1E9019E98E86B
:10179000F00181F82120DCF8002043F6F0739A4331
:1017A00042EA090242EA0E0222432A4332433A4302
:1017B00042EA0802CCF8002000228A6381F8210066
:1017C00081F820200020BDE8F043704790F820C049
:1017D000BCF1010F04BF02207047F0B54FF0010EBD
:1017E00080F820E090F821C0BCF1010F26D14FF025
:1017F000020C80F821C04FF0000CC0F838C0D0E9CE
:1018000000C4C56AC66BDCF80070102C27F0010715
:10181000CCF80070006C0EFA00F070600846CCF84E
:10182000043004BF10460A46CCF80800CCF80C205F
:10183000DCF8000045B140F00E000DE0002180F81A
:1018400020100220F0BD00BF20F00400CCF8000002
:10185000DCF8000040F00A00CCF80000DCF80000E2
:1018600040F00100CCF800000020F0BD70470000FF
:1018700040F21441C4F201010A68024214BF086038
:101880007047FFF7F3BF00002DE9F04F82B00E68FC
:10189000002E00F0FD8041F20042C4F20102042358
:1018A00040F2004E904208BF03234FF6FF7CC4F283
:1018B000010E009300240123C1F2100C4FF0000A26
:1018C0004FF000094BE000BF41F20002C4F20102F8
:1018D000009F904208BF022704F00C030F229A4099
:1018E0002BEA020207FA03F34FEA9A051A4346F875
:1018F00025204E6840F20C45F202DEF8082054BF65
:1019000022EA080242EA0802C4F20105CEF80820E1
:101910002A68B30254BF22EA080242EA08022A6097
:10192000B303DEF8042054BF22EA080242EA0802A8
:10193000F303CEF80420DEF800204FF0010354BF7B
:1019400022EA080242EA0802CEF800200E680AF1F4
:10195000010A36FA0AF204F1040400F0998003FA4D
:101960000AFB16EA0B08F1D04E68664512DC122E0F
:1019700056D8DFE806F0350B4D49555555555555A8
:101980005555555555555545510000BFD1F80C904A
:1019900046E000BF4FF6FF72C1F2210296420FDC13
:1019A0000022C1F2110296421AD00022C1F21202A4
:1019B000964215D00022C1F22102964210D02FE0AB
:1019C0000022C1F2220296420AD00022C1F2310264
:1019D000964205D00022C1F23202964220D100BFC9
:1019E0008A684AB1012A14BFC0F814B0C0F810B018
:1019F0004FF0080914E000BF4FF0040910E000BFE9
:101A0000CA6802F104090BE04FF0000908E000BFCA
:101A1000CA6802F1080903E0CA6802F10C0900BFB4
:101A200002462646B8F5807F24BF0432203E176860
:101A30000F25B54027EA050509FA06F63543156076
:101A4000CA79D2067FF582AF41F21803C4F20203CD
:101A50001A68AEF57E7642F001021A601A6802F04A
:101A600001020192019A2AF0030256F802B040F6F0
:101A70000002C4F20102904208D040F60042C4F2D3
:101A8000010290427FF420AF012725E7002723E7DA
:101A900002B0BDE8F08F00008068084018BF012048
:101AA00070470000002A08BF090401617047000068
:101AB00040F23C30C2F200000068704740F21C0067
:101AC00040F23C31C2F20000C2F2000100780A6824
:101AD000104408607047000080B542F20000C4F274
:101AE0000200016841F010010160032000F08CF851
:101AF0000F2000F005F800F027F8002080BD00005E
:101B000070B540F21C06C2F2000640F224013278A1
:101B1000C2F200014FF47A730968B3FBF2F2044693
:101B2000B1FBF2F1084600F085FB0F2C4FF00105E8
:101B300008D838B94FF0FF3021460022002500F0C8
:101B400037F87460284670BD82B041F21800C4F2C4
:101B500002000168042241F001010160016801F006
:101B6000010101910199416841F080514160406853
:101B700000F08050009000980420C4F20100016839
:101B800062F31A61016002B070470000002848BF8C
:101B9000704700F01F01012202FA01F11C2202EA43
:101BA000D0004EF20012CEF20002815070470000C9
:101BB00010B54EF60C5CCEF2000CDCF80030C3F32E
:101BC000022E8EF00704042C28BF0424BEF1030368
:101BD0004FF0FF3E0EFA04F438BF0023A1439940B2
:101BE0000EFA03F39A43114300F00F0200F1604331
:101BF0000901043A03F564436244002848BF02F136
:101C00000C03197010BD00004EF60C51CEF200010D
:101C10000A684FF6FF031A4060F30A2242F0806020
:101C200040F0FD7008607047002804BF0120704735
:101C30002DE9F04381B042F20008C4F202080446E4
:101C4000D8F800000D4600F0070081420CD9D8F802
:101C5000000020F007002843C8F80000D8F8000072
:101C600000F00700A8426CD1206841F20409810706
:101C7000C4F2020917D5410705D5D9F8001041F47F
:101C8000E061C9F80010010705D5D9F8001041F44A
:101C90006051C9F80010D9F80010A26821F0F001D5
:101CA0001143C9F80010C00742D1D8F8000000F075
:101CB000070085420CD2D8F8000020F00700284326
:101CC000C8F80000D8F8000000F00700A84238D19A
:101CD0002068410707D5D9F80010E26821F4E061D7
:101CE0001143C9F80010000708D5D9F80000216990
:101CF00020F4605040EAC100C9F80000D9F8002083
:101D000002F00C00082841F20020C0F27A004DD108
:101D100044F66653C2F38341C0F60003595CD20314
:101D200038D440F60010C0F23D0048433EE000BF0A
:101D3000606859F8041C022808D0012826D18903BC
:101D400006D4012001B0BDE8F08300BF8901F8D5B9
:101D5000D9F8001021F003010843C9F80000FFF78B
:101D6000A7FE064641F28837D9F80000616800F006
:101D70000C00B0EB810F98D0FFF79AFE801BB842A1
:101D8000F2D9032001B0BDE8F08300BF8907D8D5A0
:101D9000DEE700BFD9F8002044F66453C2F34042A6
:101DA000C0F600039A5C4843B0FBF2F0D9F800108B
:101DB00044F64C52C1F30311C0F60002515C40F2EC
:101DC000240220FA01F140F22000C2F20000006873
:101DD000C2F200021160FFF793FE002001B0BDE8DF
:101DE000F083000040F2240041F20401C2F200003E
:101DF000C4F202010068096844F65C52C1F3022192
:101E0000C0F60002515CC8407047000040F2240058
:101E100041F20401C2F20000C4F202010068096844
:101E200044F65C52C1F3C221C0F60002515CC840C6
:101E300070470000002804BF012070472DE9F041E1
:101E400082B00446007841F20006C007C4F20206E0
:101E50000CD0706800F00C00042840F081803068DD
:101E6000800303D56068002800F046812078800751
:101E70001BD5706810F00C0F09D0706800F00C00D2
:101E8000082840F087807068C00300F183803068C4
:101E9000800703D52069012840F02E8130686169F0
:101EA00020F0F80040EAC10030602078000713D429
:101EB000207840072CD4E569002D00F01881706867
:101EC00000F00C00082840F0A780012D40F00481AC
:101ED000012002B0BDE8F081A069002800F08480F4
:101EE0000020C4F242200121C0F88014FFF7E0FD79
:101EF000054600BF706A800700F1B280FFF7D8FD89
:101F0000401B0228F6D9032002B0BDE8F08100BFD3
:101F1000F0695FEAC00808D4F06940F08050F061D1
:101F2000F06900F080500090009847F20007C4F27A
:101F300000073868C00549D4386840F480703860BC
:101F4000FFF7B6FD054600BF3868C0053ED4FFF771
:101F5000AFFD401B6428F7D9032002B0BDE8F08133
:101F6000706800F00C00082803D17068C0033FF5CA
:101F700076AF61683068002900F00C81B1F5A02FC0
:101F800000F00081B1F5803F40F01A8140F48030CC
:101F90001CE100BF2069002840F20000C4F242208A
:101FA00000F0888001210160FFF782FD054600BF37
:101FB000306880073FF572AFFFF77AFD401B0228BB
:101FC000F6D9032002B0BDE8F08100BFE168306AB5
:101FD000002900F09D80052900F09280012940F041
:101FE000AF8040F00100B1E00020C4F242200021A7
:101FF000C0F88014FFF75CFD054600BF706A8007DB
:102000007FF556AFFFF754FD401B0228F6D9032099
:1020100002B0BDE8F08100BF0027C4F242270020D3
:102020003866FFF745FD022D05460DD13068800169
:1020300040F1DE80FFF73CFD401B02284FF003001B
:10204000F4D902B0BDE8F081306880014FD5FFF7C8
:102050002FFD401B02284FF00300F5D9F1E700BF28
:1020600040F22400C2F20000006844F6D351C1F2ED
:102070006201A0FB0101480A019000BF00BF019866
:10208000411E002801913FF413AF00BF0198411E8B
:10209000002801913FF40CAF00BF0198411E0028B9
:1020A00001913FF405AF00BF0198411E0028019146
:1020B000E4D1FDE600210160FFF7FAFC054600BF10
:1020C000306880077FF5F1AEFFF7F2FC401B022875
:1020D0004FF00300F4D9B4E77068216A00F480324D
:1020E0008A4209D1616A00F47010884204D100204C
:1020F00002B0BDE8F08100BF012002B0BDE8F08170
:1021000040F004003062306A40F001001EE000BF81
:1021100020F001003062306A20F004003062FFF7E6
:10212000C7FC054641F28837306A800720D5FFF7A3
:10213000BFFC401BB8424FF00300F5D981E700BF58
:1021400020F001003062306A20F004003062FFF7B6
:10215000AFFC054641F28837306A800708D4FFF7A4
:10216000A7FC401BB842F7D9032002B0BDE8F081BC
:10217000B8F1000F3FF59FAEF06920F08050F0619C
:1021800099E600BF40F480203060306840F4803031
:102190001CE000BF20F480303060306820F48020E4
:1021A0003060FFF785FC0546306880037FF55EAE42
:1021B000FFF77EFC401B64284FF00300F4D940E792
:1021C00020F480303060306820F480203060FFF7E9
:1021D0006FFC0546306880033FF548AEFFF768FCAA
:1021E000401B6428F6D9032002B0BDE8F08100BF8F
:1021F000206AB0F5803F05D17168A26821F40031F2
:10220000114371607168626A21F4741111430843CB
:10221000706001203866FFF74BFC0446306880018F
:102220003FF565AFFFF744FC001B02284FF00300A9
:10223000F4D906E7411E0020B0EB116F1CBF01204E
:1022400070474EF21002CEF2000251604EF623515A
:10225000CEF20001F0230B700721906011607047EF
:10226000704700007047000090F83C20012A4FF0B2
:10227000020236D010B580F83D200268D2F804E0A2
:10228000D2F808C00C682EF07003234340F2FF74AC
:10229000C4F20004A24253600ADCB2F1804F13D0B2
:1022A00040F20043C4F200039A420DD011E000BF97
:1022B00042F60043C4F201039A4205D040F60003FF
:1022C000C4F200039A4204D149682CF080031943F8
:1022D00091600121002280F83D1080F83C20BDE88B
:1022E0001040104670470000002804BF01207047CE
:1022F00010B590F83D1031B9002180F83C1004462B
:1023000000F070F82046022180F83D10016840F28C
:10231000FF740B68C4F2000442F6004CA142C4F200
:10232000010C15DCB1F1804F1AD040F20042C4F22A
:102330000002914214D0A14218DCB1F1804F1DD0AF
:1023400040F20042C4F20002914217D01AE000BFEE
:10235000614505D040F60002C4F200029142EAD184
:10236000826823F070031343A142E6DD614505D086
:1023700040F60002C4F20002914203D1026923F444
:1023800040731343846923F08002D0F804E0C368EB
:10239000224361450A60CB62C1F828E002D142695C
:1023A000CCF8302001224A610B69DB0703D00B69AE
:1023B00023F001030B6180F8462080F83E2080F86E
:1023C0003F2080F8402080F8412080F8422080F8AB
:1023D000432080F8442080F8452080F83D200020EC
:1023E00010BD00000068B0F1804F18BF704780B585
:1023F00082B041F21C00C4F202000168002241F0E8
:10240000010101600068002100F0010001900198C5
:102410001C20FFF7CDFB1C2002B0BDE88040FFF779
:10242000B5BB000090F83C20012A4FF002026CD0AE
:1024300080B580F83D20D0F800C04FF67772DCF808
:10244000083023EA0202CCF808200B684F2B29DC65
:102450001F2B45DD202B46D0302B44D0402B40F0A5
:10246000AF80D1F804E0C968DCF82030DCF8202027
:1024700022F00102CCF82020DCF8182022F0F00233
:1024800042EA011123F00A0242EA0E02CCF81810C7
:10249000CCF82020DCF8081041F0470121F0300191
:1024A00028E000BF6F2B33DDB3F5005F74D0B3F5C8
:1024B000805F21D0702B40F08380D1E901E3C968AF
:1024C000DCF8082043EA0E0322F47F4243EA0121AC
:1024D0001143CCF80810DCF8081041F0770109E04E
:1024E0000BB1102B6CD1DCF8081021F070011943EE
:1024F00041F00701CCF808100022012180F83D10BE
:10250000002180F83C10BDE880401046704700BFB5
:10251000502B21D0602B53D1D1F804E0C968DCF8EE
:102520002030DCF8202022F01002CCF82020DCF84B
:10253000182022F4704242EA013123F0A00242EA5C
:102540000E12CCF81810CCF82020DCF8081041F05E
:10255000670121F01001CDE7D1F804E0C968DCF88B
:102560002030DCF8202022F00102CCF82020DCF81A
:10257000182022F0F00242EA011123F00A0242EA96
:102580000E02CCF81810CCF82020DCF8081041F02E
:10259000570121F02001ADE7D1E901E3C968DCF87A
:1025A000082043EA0E0322F47F4243EA012111434B
:1025B000CCF80810DCF8081041F480419AE700BF1D
:1025C00001229AE77047000070B504460068C568AC
:1025D0000669B10716D515F0020113D06FF002019C
:1025E0000161012121778069800703D02046FFF730
:1025F000E9FF05E0204600F08FF8204600F08EF855
:1026000000202077700719D515F0040016D0206837
:102610006FF00401016102212177806910F4407F8D
:1026200004D02046FFF7CEFF06E000BF204600F0B2
:1026300073F8204600F072F800202077300717D595
:1026400015F0080014D020686FF008010161042122
:102650002177C069800703D02046FFF7B3FF05E06C
:10266000204600F059F8204600F058F80020207766
:10267000F00619D515F0100016D020686FF0100183
:10268000016108212177C06910F4407F04D0204601
:10269000FFF798FF06E000BF204600F03DF8204617
:1026A00000F03CF800202077F00718BF15F001007B
:1026B00002D1300609D412E020686FF001010161F7
:1026C000204600F02DF8300609D515F0800006D020
:1026D00020686FF0800101612046FFF7C1FD7006A0
:1026E00009D515F0400006D020686FF04001016167
:1026F000204600F017F8B00658BF70BD15F0200056
:1027000008D021686FF0200220460A61BDE87040C1
:10271000FFF7A8BD70BD00007047000070470000C3
:1027200070470000704700007047000070470000CD
:10273000B0B582B001680A68CC684B6902F02F0519
:10274000202D04F0200505D125B102B0BDE8B04030
:1027500000F0ACBF5FEA027C1EBF03F0010E04F480
:10276000907313EB0E0341D1036BD50618D5012BE3
:1027700016D114F0100313D0002201920A680192BE
:102780004A680192019A496949064BD4818DC28DEC
:10279000C38D002B18BF914240F0F48102B0B0BD50
:1027A00013062DD514F080032AD090F84120212A59
:1027B000F4D18268B2F5805F03D10269002A00F08B
:1027C0006782026A531C036212784A60C28C013A23
:1027D0001304C284E2D1C86820F08000C860C868D1
:1027E00040F04000C86002B0B0BD00BFD30718BFC2
:1027F00014F4807340F0D080530700F1D380D8E008
:102800005206CBD514F04002C8D0CA6822F040026C
:10281000CA60202180F8411002B0BDE8B04000F04D
:102820004BBC00BFC16B0A68526893B2002BB5D095
:10283000858DAB42B2D2C2858969202900F0A18082
:10284000016851E8031F026821F4807142E8031314
:10285000DBB1016851E8031F026821F4807142E88E
:10286000031393B1016851E8031F026821F48071DA
:1028700042E803134BB1016851E8031F026821F4D9
:10288000807142E80313002BDAD1016851E8051F7B
:10289000026821F0010142E80513C3B3016851E861
:1028A000051F026821F0010142E805137BB30168AE
:1028B00051E8051F026821F0010142E8051333B316
:1028C000016851E8051F026821F0010142E8051383
:1028D000002BDAD11BE000BF016851E8051F026838
:1028E00021F0400142E80513DBB1016851E8051F02
:1028F000026821F0400142E8051393B1016851E8F4
:10290000051F026821F0400142E805134BB1016840
:1029100051E8051F026821F0400142E80513002B31
:10292000DAD1202180F8421000210163016851E8CA
:10293000031F026821F0100142E80313DBB10168B4
:1029400051E8031F026821F0100142E8031393B11C
:10295000016851E8031F026821F0100142E80313E7
:102960004BB1016851E8031F026821F0100142E8F1
:102970000313002BDAD1C16B04460846FEF794FD21
:10298000204602214163818DC28D891A89B202B02D
:10299000BDE8B040FFF7C8BE436C43F00103436499
:1029A000530706D5BEF1000F03D0436C43F002037A
:1029B0004364930706D5BEF1000F03D0436C43F088
:1029C00004034364BCF1000F06D55EEA050303D09F
:1029D000436C43F008034364436C002B3FF4DEAECA
:1029E000920605D525B1044600F060FE2168204618
:1029F0004969426C01F0400102F00802891800F0B8
:102A0000B98000BF016851E8031F026821F490718A
:102A100042E80313BBB3016851E8031F026821F4C5
:102A2000907142E8031373B3016851E8031F026811
:102A300021F4907142E803132BB3016851E8031F9E
:102A4000026821F4907142E80313002BDAD11AE0F6
:102A5000016851E8051F026821F0010142E80513F1
:102A6000DBB1016851E8051F026821F0010142E86D
:102A7000051393B1016851E8051F026821F00101B7
:102A800042E805134BB1016851E8051F026821F0C7
:102A9000010142E80513002BDAD1016B012924D191
:102AA000016851E8031F026821F0100142E8031396
:102AB000DBB1016851E8031F026821F0100142E810
:102AC000031393B1016851E8031F026821F010015C
:102AD00042E803134BB1016851E8031F026821F07B
:102AE000100142E80313002BDAD1202180F84210B4
:102AF0000021016301684969490640F1C38001680A
:102B000051E8051F026821F0400142E80513DBB1DE
:102B1000016851E8051F026821F0400142E80513F1
:102B200093B1016851E8051F026821F0400142E8B5
:102B300005134BB1016851E8051F026821F04001FF
:102B400042E80513002BDAD1C16B002900F09A800E
:102B500043F2F522C0F60002044608464A63FEF737
:102B6000C7FC00283FF41AAEE06B416B02B0BDE831
:102B7000B04008470446FFF7D9FD0020606402B06A
:102B8000B0BD00BF891A00BF026852E8032F036876
:102B900022F4907243E80325BDB3026852E8032F84
:102BA000036822F4907243E8032575B3026852E883
:102BB000032F036822F4907243E803252DB30268C3
:102BC00052E8032F036822F4907243E80325002D96
:102BD000DAD11AE0026852E8052F036822F00102F8
:102BE00043E80525DDB1026852E8052F036822F0AD
:102BF000010243E8052595B1026852E8052F0368F4
:102C000022F0010243E805254DB1026852E8052F84
:102C1000036822F0010243E80525002DDAD12022C5
:102C200080F8422000220263026852E8032F036802
:102C300022F0100243E80325DDB1026852E8032FB9
:102C4000036822F0100243E8032595B1026852E8B8
:102C5000032F036822F0100243E803254DB10268F8
:102C600052E8032F036822F0100243E80325002DE9
:102C7000DAD1022289B2426302B0BDE8B040FFF768
:102C800053BD00BF02B0BDE8B040FFF74FBD00BF6D
:102C9000026A32F8023B6FF35F234B60026295E5F4
:102CA000002804BF0120704710B5044690F8410089
:102CB00028B9002084F84000204600F063F8242062
:102CC00084F841002068D4E90212C36823F4005359
:102CD000C360036923F440531A430261D4E9042317
:102CE0001143C268194341F20C639A431143C16016
:102CF0004169A26921F44071114343F60002C4F214
:102D000001029042416103D0FFF76CF802E000BF7E
:102D1000FFF77CF8D4E90023192148439900B0FB60
:102D2000F1F048F21F5CC5F2EB1CA0FB0C314FF632
:102D30009C734909C0F6FF7301FB0300322303EBC8
:102D40000010A0FB0C03F02000EA531000EB011070
:102D5000C3F34311084490601069202120F490408F
:102D60001061506920F02A005061D06840F4005092
:102D7000D0600020606484F8411084F842106063E1
:102D800010BD00002DE9F04385B040F60005044673
:102D9000C4F201050068A5F5444100278842049764
:102DA000CDE90277019703D005B0BDE8F08300BFFD
:102DB00041F21800C4F20200416801AE41F4003152
:102DC0004160416840F26C0801F4003100910099C3
:102DD0000168C4F2020841F0040101600068314654
:102DE00000F004000090009804200190022002905E
:102DF000032004902846FEF747FD0820CDE901078F
:102E0000284631460397FEF73FFD40F2EC05C2F23B
:102E1000000520204FF480598026C5E90609284680
:102E2000C5E90087C5E90276C5E90477FEF78CFCA1
:102E3000002818BFFEF736FBE5636C6240F23015E0
:102E400008F11400C2F200051021002285E84700B5
:102E50002846C5E90422C5E90629FEF775FC0028C5
:102E600018BFFEF71FFB262000210022A5636C621D
:102E7000FEF79EFE2620FEF789FE05B0BDE8F08332
:102E800090F84230202B0BD194460A4600294FF08F
:102E9000010118BFBCF1000F06D10846704700BF02
:102EA00002210846704700BF70B582B0002522217C
:102EB00005638262A0F82CC0456480F84210016866
:102EC000C36B43F27D4443F2DD5E43F20136C0F64C
:102ED0000004C0F6000EC0F60006C3E90A4EC3E9BE
:102EE0000C650431044618466346FEF76FFC0195F5
:102EF000216820460A680192496801910199216977
:102F000031B300BF016851E8031F026841F48071CA
:102F100042E80313E3B1016851E8031F026841F47A
:102F2000807142E803139BB1016851E8031F0268F6
:102F300041F4807142E8031353B1016851E8031F63
:102F4000026841F4807142E80313002BDAD100BF1C
:102F5000016851E8051F026841F0010142E80513CC
:102F6000BBB3016851E8051F026841F0010142E866
:102F7000051373B3016851E8051F026841F00101B0
:102F800042E805132BB3016851E8051F026841F0C0
:102F9000010142E80513002BDAD11AE0016851E87B
:102FA000051F026841F0400142E80513DBB10168EA
:102FB00051E8051F026841F0400142E8051393B152
:102FC000016851E8051F026841F0400142E805131D
:102FD0004BB1016851E8051F026841F0400142E829
:102FE0000513002BDAD1002002B070BD704700003D
:102FF0007047000090F84130202B09D194460029F9
:103000004FF0010218BFBCF1000F05D11046704708
:1030100002221046704700BF70B5002221230162D2
:10302000A0F824C0A0F826C0426480F841300468AB
:10303000836B43F2F55E43F2A56543F20136C0F6B9
:10304000000EC0F60005C0F60006C3E90AE5C3E9B4
:103050000C62221D044618466346FEF7B7FB216842
:1030600020466FF040020A60016851E8051F0268BF
:1030700041F0800142E80513DBB1016851E8051F0A
:10308000026841F0800142E8051393B1016851E8FC
:10309000051F026841F0800142E805134BB1016849
:1030A00051E8051F026841F0800142E80513002B3A
:1030B000DAD1002070BD0000006844F20041C4F283
:1030C0000001884218BF704740F23830C2F2000059
:1030D000002101707047000070470000FEE700000B
:1030E00080B582B041F21400C4F2020001680022EF
:1030F00041F0010101600068002100F00100019031
:1031000001981020FEF754FD1020FEF73FFD11201E
:1031100000210022FEF74CFD112002B0BDE88040E6
:10312000FEF734BD2DE9F04786B0002741F21800C4
:10313000CDE90477CDE90277C4F20200016840F6D8
:10314000004841F0040101600168C4F2010801F087
:103150000401019101990168A8F5806541F0080119
:10316000016000684FF4407100F008000190019880
:10317000284600224FF44079FEF794FC404628216F
:103180000022FEF78FFC1220002402AE0290C1F252
:10319000110428463146CDE90347FEF775FB4FF091
:1031A000010A40463146CDE902A40497FEF76CFBC4
:1031B000022428463146CDE9029A04970594FEF789
:1031C00063FB082002901120CDE9030740463146F9
:1031D0000594FEF759FB2020CDE9020A404631460E
:1031E000CDE90474FEF750FB062000210022FEF713
:1031F000DFFC0620FEF7CAFC072000210022FEF7B4
:10320000D7FC0720FEF7C2FC0A2000210022FEF7AF
:10321000CFFC0A20FEF7BAFC06B0BDE8F08700003C
:1032200080B586B040F274100021C2F200004FF069
:10323000630C0591CDE90311CDE900114FF08042F7
:1032400040F23F13C0E9021C01618021C0E9002364
:103250008161FFF749F8002818BFFEF723F94FF402
:103260008050029040F27410C2F2000002A9FFF7F1
:10327000D9F8002818BFFEF715F940F27410C2F211
:1032800000006946FEF7F0FF002818BFFEF70AF9B4
:1032900006B080BD80B540F2BC1044F20041C2F2DD
:1032A0000000C4F2000100234FF00C0C4FF4E13297
:1032B00080E80E00C0E90333C0E905C3C361FFF72E
:1032C000EFFC002808BF80BDBDE88040FEF7EAB8EB
:1032D000FEE70000FEE700007047000070470000B6
:1032E000FEF7ECBB7047000040F27410C2F2000021
:1032F000FFF76AB9406A0021C185C184FFF716BA99
:10330000406A01684A6990F84130212B2DD112F0B2
:1033100080022AD00021C184016851E8031F02689D
:1033200021F0C00142E80313DBB1016851E8031F3B
:10333000026821F0C00142E8031393B1016851E82B
:10334000031F026821F0C00142E803134BB101687A
:1033500051E8031F026821F0C00142E80313002B6B
:10336000DAD1202180F841100168496990F84220A3
:10337000222A40F07D8011F0400179D00021C185E2
:10338000016851E8031F026821F4907142E80313B9
:10339000BBB3016851E8031F026821F4907142E851
:1033A000031373B3016851E8031F026821F490719D
:1033B00042E803132BB3016851E8031F026821F4AC
:1033C000907142E80313002BDAD11AE0016851E84A
:1033D000051F026821F0010142E80513DBB1016815
:1033E00051E8051F026821F0010142E8051393B17D
:1033F000016851E8051F026821F0010142E8051348
:103400004BB1016851E8051F026821F0010142E853
:103410000513002BDAD1016B012924D1016851E891
:10342000031F026821F0100142E80313DBB10168B9
:1034300051E8031F026821F0100142E8031393B121
:10344000016851E8031F026821F0100142E80313EC
:103450004BB1016851E8031F026821F0100142E8F6
:103460000313002BDAD1202180F8421000210163E0
:10347000416C41F010014164FFF758B90168406A9E
:103480000968890600F19F800021C185016851E823
:10349000031F026821F4807142E80313E3B101685D
:1034A00051E8031F026821F4807142E803139BB1C5
:1034B000016851E8031F026821F4807142E8031398
:1034C00053B1016851E8031F026821F4807142E89A
:1034D0000313002BDAD100BF016851E8051F026811
:1034E00021F0010142E80513BBB3016851E8051F53
:1034F000026821F0010142E8051373B3016851E845
:10350000051F026821F0010142E805132BB3016891
:1035100051E8051F026821F0010142E80513002B64
:10352000DAD11AE0016851E8051F026821F0400174
:1035300042E80513DBB1016851E8051F026821F07C
:10354000400142E8051393B1016851E8051F026884
:1035500021F0400142E805134BB1016851E8051F15
:10356000026821F0400142E80513002BDAD1202146
:1035700080F84210016B012925D100BF016851E894
:10358000031F026821F0100142E80313DBB1016858
:1035900051E8031F026821F0100142E8031393B1C0
:1035A000016851E8031F026821F0100142E803138B
:1035B0004BB1016851E8031F026821F0100142E895
:1035C0000313002BDAD100214163016B012918BFDD
:1035D000FFF70CBD818DFFF7A7B80000406A0121FD
:1035E0004163016B012918BFFFF702BD818D4908B6
:1035F000FFF79AB80168406A0968890648BFFFF773
:103600005BBD0021C18400BF016851E8051F02684D
:1036100021F0800142E8051383B3016851E8051FDA
:10362000026821F0800142E805133BB3016851E8CC
:10363000051F026821F0800142E80513F3B101681B
:1036400051E8051F026821F0800142E80513002BB4
:10365000DAD113E0016851E8031F026841F040012C
:1036600042E80313002B08BF7047016851E8031FAD
:10367000026841F0400142E8031393B1016851E848
:10368000031F026841F0400142E803134BB1016897
:1036900051E8031F026841F0400142E80313002B88
:1036A000D8D17047406AFFF717BD000081B090F88D
:1036B0004210222921D183680246B3F5805F09D1E7
:1036C00052F8281F52F8183C002B63D003685B683F
:1036D0000AE000BF52F8281F13B90369002BF5D088
:1036E00003685B6803F07F030B70116801311160A0
:1036F000C18D01390A04C18502D001B0704700BFF5
:103700000168CA6822F02002CA60CA6822F4807286
:10371000CA604A6922F001024A61202180F8421001
:1037200000214163026B012A3CD10163016851E829
:10373000031F026821F0100142E80313DBB10168A6
:1037400051E8031F026821F0100142E8031393B10E
:10375000016851E8031F026821F0100142E80313D9
:103760004BB1016851E8031F026821F0100142E8E3
:103770000313002BDAD101680A68D20606D50022AD
:1037800000920A680092496800910099818D01B009
:10379000FEF7CABF026852686FF35F2221F8022B5E
:1037A0008162A5E701B0FFF721BC000040F2BC1028
:1037B000C2F20000FEF7BCBFFEE7000070B540F2A9
:1037C0009005C2F200052878002808BF70BD0026C9
:1037D000284600F83C6B78A10922FCF791FDA8B1BE
:1037E00005F13C0477A120460922FCF789FD002859
:1037F00066D077A120460922FCF782FD00286FD011
:1038000076A0214600F0FEF8CCE000BF40F20004B4
:10381000C2F200043C20E07001204FF4C8716870CF
:10382000AE70EE70E1804FF496712181607140F2CC
:103830008420C2F2000006708671067386740676D4
:10384000867780F8246080F82A6080F8306080F8FD
:10385000366080F83C6080F8426080F8486080F80C
:103860004E6080F8546080F85A6080F8606080F89C
:10387000666080F86C6080F8726080F8786080F82C
:103880007E6080F8846080F88A6080F8906080F8BC
:10389000966080F89C6080F8A26080F8A86080F84C
:1038A000AE60FEF705F92861FEF702F9A8606978B5
:1038B000AA7844F6AF50C0F6000000F0A3F85CE030
:1038C00001206870A878B0FA80F04009A870697883
:1038D000AA7844F6AF50C0F6000000F093F861E01B
:1038E00040F200040020C2F200043C216870A8707D
:1038F000E1704FF4C871E870E1804FF49671218156
:1039000040F28421C2F20001087088710873887443
:103910000876887781F8240081F82A0081F8300041
:1039200081F8360081F83C0081F8420081F84800B7
:1039300081F84E0081F8540081F85A0081F8600047
:1039400081F8660081F86C0081F8720081F87800D7
:1039500081F87E0081F8840081F88A0081F8900067
:1039600081F8960081F89C0081F8A20081F8A800F7
:1039700081F8AE001FA000F045F8E17844F69950B8
:10398000C0F6000000F03EF8E188228944F6895034
:10399000C0F6000000F036F844F67650C0F600009D
:1039A00000F030F80020C5E90F00C5E91100C5E9B5
:1039B0001300C5E9150070BD434D443A53544152BC
:1039C00054000000434D443A504155534500000017
:1039D000434D443A5245534554000000434F4D3A3D
:1039E00020756E6B6E6F776E20636D643A20257361
:1039F00000000000434F4D3A2072657365743D31FD
:103A00000000000083B0B0B581B00DF1140C8CE85B
:103A10000E0040F22801C2F20001097831B140F2F3
:103A20003835C2F200050246287828B101B0BDE859
:103A3000B04003B0704700BF40F20424C2F200045B
:103A400005AB20467E210093FCF72AFC0128EDDB24
:103A500040F60D2121520230012182B240F2BC1009
:103A60002970C2F200002146FFF7C4FA01B0BDE898
:103A7000B04003B07047000090B0FEF72DF800266C
:103A80000120CDE90B66CDE909660A9010200B9064
:103A90004FF4601002250F9006A8CDE90766069541
:103AA000CDE90D56FEF7C6F90F2001A961C14FF40B
:103AB0008060CDE9040601A80221FEF7B5F8FFF702
:103AC00031FBFFF70DFBFFF7ABFBFFF7E3FB40F22A
:103AD0009006C2F2000640F2BC1006F11C01C2F2D0
:103AE00000002022FFF7CCF940F60040C4F20100AC
:103AF00008210122FDF7D6FFFDF7DAFFB060FDF7E0
:103B0000D7FF40F2EC0440F20009F060C2F200047A
:103B1000C2F200090020009005E000BF012089F8F2
:103B2000040000F03FFBFDF7C3FF2168074649682A
:103B3000C1F120018AB21F2A88BF002196F804A093
:103B40001FFA81FBD3453BD096F8008012E000BFFE
:103B50004FF0000886F80080C6E90F88C6E9118892
:103B6000C6E91388C6E915880AF1010000F01F0AAA
:103B7000D34523D05FFA8AF03044007F0D288DF8BA
:103B8000180001D00A280BD1B8F1000FECD196F83B
:103B90003C0000281CBF4FF0010886F80080E3E7D6
:103BA00006F13C052846FCF7D7FB1E28D0D828464E
:103BB00006A90122FCF792FBD6E700BF86F804A015
:103BC000FFF7FCFD384600F06BF8707808B1B0786C
:103BD00090B170780028A1D0B07800289ED00098CD
:103BE000381AB0F5FA7F9CD399F804000097B0FA20
:103BF00080F0400993E700BF3069381AB0F5FA6FDA
:103C000002D3376100F0ACF9B068381AB0F57A7FAA
:103C100016D3B76099F8030090B199F80300013802
:103C200089F8030099F8031044F69950C0F6000093
:103C3000FFF7E8FE99F80300002804BF0020707029
:103C4000F0780028C5D099F90500B9F8081000EB04
:103C500040000844A9F80800B9F80800292803D250
:103C60000120282108E000BFB9F80800B0F50C7F5A
:103C700006D3FF204FF40C71A9F8081089F805004D
:103C8000B069381A3228A4D3B761B9F80610B9F868
:103C9000082044F68950C0F60000FFF7B3FE98E70D
:103CA0002DE9F04381B040F29007C2F20007796934
:103CB000411A1E292FD340F60006C4F2010678618E
:103CC00030460221FDF7E8FE054606F58060012139
:103CD000FDF7E2FE044630461021FDF7DDFE40F21E
:103CE0000009C2F2000999F80010012908BF002D4F
:103CF00014D089F8005099F80110012908BF002C50
:103D00002CD089F8014099F80210012908BF002839
:103D100046D089F8020001B0BDE8F0837978002927
:103D2000E7D0B9780029E4D1F9780029E1D18046BB
:103D3000B9F80600422804D3B9F806001938A9F8E2
:103D40000600B9F80610B9F8082044F68950C0F604
:103D50000000FFF757FE4046CBE700BF7978002907
:103D6000CFD0B9780029CCD1F9780029C9D105463E
:103D7000B9F8060040F2DE21884204D8B9F80600FE
:103D80001930A9F80600B9F80610B9F8082044F669
:103D90008950C0F60000FFF735FE2846B1E700BFA6
:103DA00079780029B5D0B9780029B2D1F9780029FD
:103DB00000F09A800022FA70B9F80630B9F808507D
:103DC00040F2842CC2F2000C04E000BF2432B42A7A
:103DD00000F090801CF80210A9B10CEB0207798862
:103DE000BC88591A2C1B01FB01F6797804FB046688
:103DF0002D24142908BF23240A2908BF1924644349
:103E0000A64240F27F800CEB0207B97991B1398963
:103E10007E89591AAE1B01FB01F4F97906FB0646AF
:103E20002D24142908BF23240A2908BF1924644318
:103E3000A64269D9397B91B1F9893E8A591AAE1BDC
:103E400001FB01F4797B06FB06462D24142908BFEB
:103E500023240A2908BF19246443A64258D9B97CEF
:103E600091B1B98AFE8A591AAE1B01FB01F4F97CA3
:103E700006FB06462D24142908BF23240A2908BF5F
:103E800019246443A64247D9397E91B1798BBE8B00
:103E9000591AAE1B01FB01F4797E06FB06462D2460
:103EA000142908BF23240A2908BF19246443A64201
:103EB00036D9B97F00293FF489AF398C7E8C591AE5
:103EC000AE1B01FB01F4F97F06FB06462D241429E5
:103ED00008BF23240A2908BF19246443A6423FF6D9
:103EE00075AF04461E371DE004460120F8701AA085
:103EF00024E000BF044644F67D50C0F60000FFF702
:103F000081FD17E004460DE0044606370AE000BFD5
:103F100004460C3706E000BF0446123702E000BF3B
:103F2000044618370020387044F6A150C0F600004F
:103F3000FFF768FD44F67650C0F60000FFF762FD1B
:103F4000B9F80610B9F8082044F68950C0F6000008
:103F5000FFF758FD2046DCE64C4F434B3A3100005A
:103F60002DE9F04140F28428C2F2000898F80000E0
:103F7000002877D098F80600002875D098F80C0033
:103F8000002873D098F81200002871D098F8180013
:103F900000286FD098F81E0000286DD098F82400F3
:103FA00000286BD098F82A00002869D098F83000D3
:103FB000002867D098F83600002865D098F83C00B3
:103FC000002863D098F84200002861D098F8480093
:103FD00000285FD098F84E0000285DD098F8540073
:103FE00000285BD098F85A00002859D098F8600053
:103FF000002857D098F86600002855D098F86C0033
:10400000002853D098F87200002851D098F8780012
:1040100000284FD098F87E0000284DD098F88400F2
:1040200000284BD098F88A00002849D098F89000D2
:10403000002847D098F89600002845D098F89C00B2
:10404000002843D098F8A200002841D098F8A80092
:1040500000283FD098F8AE00002818BFBDE8F081D6
:104060001D2738E0002736E0012734E0022732E040
:10407000032730E004272EE005272CE006272AE05E
:10408000072728E0082726E0092724E00A2722E05E
:104090000B2720E00C271EE00D271CE00E271AE05E
:1040A0000F2718E0102716E0112714E0122712E05E
:1040B000132710E014270EE015270CE016270AE05E
:1040C000172708E0182706E0192704E01A2702E05E
:1040D0001B2700E01C27FDF7EBFC0446FDF7E8FC7E
:1040E00084EA4014FDF7E4FC48F21F5184EAD00052
:1040F000C5F2EB11A0FB01125109642201FB120071
:104100001E24502838BF1424322838BF0A24FDF753
:10411000CFFC0546FDF7CCFC85EA4015FDF7C8FC51
:1041200085EAD00045F606320109C0F2B052A1FB83
:1041300002124FF4347102FB110000F12806FDF762
:10414000B7FC0546FDF7B4FC85EA4015FDF7B0FC69
:1041500085EAD00041F6B7228108C4F23C72A1FB87
:10416000021251094FF4E67201FB1200012100F125
:10417000280507EB470008EB400708F810107C7093
:104180007E80B2B2ABB203A02146BD80BDE8F04153
:10419000FFF738BC534849503A25642C25642C2538
:1041A00064000000F0B581B040F20007C2F20007E1
:1041B000387940F600440028C4F201044CD0F87865
:1041C000CD21C0B2BD7B632828BF63204143C90A0B
:1041D00001EB8102A0EB42004FF6FF72BA8107F1BA
:1041E0001202515CC0B2165CF972204620210022F6
:1041F000BE72FDF757FC304600F076F8284600F016
:1042000073F8204620210122FDF74CFCFD7AFE7B4D
:10421000204620210022FDF745FC284600F064F8E6
:10422000304600F061F8204620210122FDF73AFCDB
:104230003D7B3E7C204620210022FDF733FC2846B2
:1042400000F052F8304600F04FF8204620210122BD
:10425000FDF728FC7D7B33E0BE7B20462021002239
:10426000FDF720FCFF20FF2500F03EF8304600F06F
:104270003BF8204620210122FDF714FCFE7B20465E
:1042800020210022FDF70EFCFF2000F02DF8304623
:1042900000F02AF8204620210122FDF703FC3E7C95
:1042A000204620210022FDF7FDFBFF2000F01CF836
:1042B000304600F019F8204620210122FDF7F2FBDC
:1042C0007E7C204620210022FDF7ECFB284600F0F2
:1042D0000BF8304600F008F820462021012201B0FA
:1042E000BDE8F040FDF7DEBBB0B540F60004C4F217
:1042F00001040546C20920464FF40071FDF7D2FBC8
:1043000020464FF480710022FDF7CCFB20464FF48D
:1043100080710122FDF7C6FBC5F3801220464FF4E1
:104320000071FDF7BFFB20464FF480710022FDF7BE
:10433000B9FB20464FF480710122FDF7B3FBC5F3B2
:10434000401220464FF40071FDF7ACFB20464FF4BD
:1043500080710022FDF7A6FB20464FF480710122F8
:10436000FDF7A0FBC5F3001220464FF40071FDF7E6
:1043700099FB20464FF480710022FDF793FB204605
:104380004FF480710122FDF78DFBC5F3C00220467A
:104390004FF40071FDF786FB20464FF48071002238
:1043A000FDF780FB20464FF480710122FDF77AFB78
:1043B000C5F3800220464FF40071FDF773FB2046E1
:1043C0004FF480710022FDF76DFB20464FF48071A1
:1043D0000122FDF767FBC5F3400220464FF4007150
:1043E000FDF760FB20464FF480710022FDF75AFB79
:1043F00020464FF480710122FDF754FB05F00102C5
:1044000020464FF40071FDF74DFB20464FF48071BC
:104410000022FDF747FB20464FF480710122BDE8E2
:10442000B040FDF73FBB5FEA400C08BF91F0000FC2
:104430004FEA8C234FEAC12243EA51514FEA1C5004
:1044400018BF00F5F0404FEA300018BF41F00041BE
:104450005FEA6C5C00F02980BCF1FF3F08BF40F0D0
:1044600080407047130C06BF12044FF0100C4FF041
:10447000000C130E04BF12020CF1080C130F04BF42
:1044800012010CF1040C930F04BF92000CF1020C0A
:10449000D30F04BF52000CF1010C11464FF0000283
:1044A000A0F11F00A0EB0C00704711F0004F08BFF7
:1044B000704731F000413FF4D5AF0B0C06BF090443
:1044C0004FF0100C4FF0000C0B0E04BF09020CF162
:1044D000080C0B0F04BF09010CF1040C8B0F04BF77
:1044E00089000CF1020CCB0F04BF49000CF1010C48
:1044F000CCF1200322FA03F341EA030102FA0CF2A1
:10450000A0EB0C0000F101007047000023F07F4792
:1045100020F07F4C80EA030000F00040ACEB070382
:1045200003F57C5303F1FF032DE9804909B44FEAF9
:10453000144324EA03484FEA154B25EA0B4E0FF2C9
:10454000042606EB13273E7803FB0667C7F5000732
:1045500007FB06F64FEAD64606F102064FEA543745
:1045600007FB066CCCF1005C4FEA1C472CEA074CB9
:104570000CFB06F507FB06F404EB15464FEA96160E
:1045800049085FEA320234BF00204FF000404FEA92
:10459000D13706FB07FC4FEA1C4C0CFB0BF7D21B78
:1045A00003FB0CF761EB07010CFB0EF7B0EB0740C8
:1045B00072EB17420CFB08F734BFA2EB0742B2EBD9
:1045C000074261EB17414FEA0C444FEA910706FBA3
:1045D00007FC4FEA1C4C0CFB0BF7B0EBC74072EB2F
:1045E000573203FB0CF734BFA2EBC742B2EBC74212
:1045F00061EB57310CFB0EF7B0EBC70072EB577253
:104600000CFB08F734BFA2EBC702B2EBC70261EBA9
:1046100057714FEA816141EA92114FEA826242EAA0
:1046200090124FEA806004EBCC04039F4FEAD1372D
:1046300006FB07FC4FEA1C4C0CFB0BF7D21B03FBE1
:104640000CF761EB07010CFB0EF7B0EB074072EBC8
:1046500017420CFB08F734BFA2EB0742B2EB07424C
:1046600061EB17414FEA8C5504EB9C244FEA91070C
:1046700006FB07FC4FEA1C4C0CFB0BF7B0EBC740EA
:1046800072EB573203FB0CF734BFA2EBC742B2EB1D
:10469000C74261EB57310CFB0EF7B0EBC70072EB72
:1046A00057720CFB08F734BFA2EBC702B2EBC7028C
:1046B00061EB57714FEA816141EA92114FEA8262E0
:1046C00042EA90124FEA806015EB4C2544F1000459
:1046D0004FEAD13706FB07FC4FEA1C4C0CFB0BF7EB
:1046E000D21B03FB0CF761EB07010CFB0EF7B0EBE1
:1046F000074072EB17420CFB08F734BFA2EB0742EE
:10470000B2EB074261EB17414FEA813141EA924136
:104710004FEA823242EA90424FEA80304FEA0C760A
:1047200015EB1C1544F1000448EA03434EEA0B481C
:104730004FF0000EB2EB080C71EB030724BF62468A
:1047400039464EEB0E0E4FF0000B00185241494116
:104750004BEB0B0BB2EB080C71EB03077BF1000B7F
:1047600024BF624639464EEB0E0E4FF0000B001888
:10477000524149414BEB0B0BB2EB080C71EB0307B9
:104780007BF1000B24BF624639464EEB0E0E51EA18
:10479000020718BF46F0010616EB0E7655F100022F
:1047A00054F1000103D5BDE88901BDE80088BDE8EA
:1047B0008901BDE80048B619524141EB0101A3F15E
:1047C0000103704780807F7E7D7C7B7A7978777665
:1047D00076757473727171706F6E6E6D6C6C6B6ADE
:1047E0006A6968686766666564646363626161607C
:1047F000605F5F5E5E5D5D5C5C5B5B5A5A595958F9
:104800005857575656555555545453535252525162
:10481000515050504F4F4F4E4E4D4D4D4C4C4C4BB8
:104820004B4B4A4A4A4949494848484747474746FF
:10483000464645454544444444434343434242423B
:10484000424141419C46002B30D477002BD04FEAA7
:1048500037071CB503B44FF010004FF01001BAF148
:10486000000F06D0BCF1000FDCBF40F0080040F0A4
:1048700008014FF000000FBCBDE810400BF1010B28
:10488000BBF1010F08BF5FEA170722BF12F1010257
:1048900011F101014FF0004143F1000300F000402D
:1048A00043EA00007047F9D35708D0E746EA0646C6
:1048B0004FEA164613F1400F1FDD13F1200FDFBF43
:1048C00016430A46002120335B42BED0C3F12007C5
:1048D00046EA06464FEA164602FA07F746EA070690
:1048E00022FA03F2C3F1200701FA07F742EA0702AE
:1048F00021FA03F14FF00003A7E746EA020646EA71
:1049000006464FEA164646EA0106BCBF46EA064698
:10491000360C4FF000034FF000024FF0000194E717
:104920002DE9804C70B49A46934691E8380007C848
:1049300031EA400C48BF34EA430C03D5FFF7E6FDEB
:10494000FFF780FFF0BCBDE8008C2DE9804C70B40F
:104950009A46934691E8380007C810F0804F08BF88
:1049600013F0804F03D100F005F8FFF76BFFF0BCA8
:10497000BDE8008C20F07F4723F07F4C80EA0300E5
:1049800000F0004007EB0C03A3F57C53A3F1FE03FA
:1049900092F0000F00F0B38095F0000F00F07780E8
:1049A0002DE901494FEA114021EA00484FEA144637
:1049B00024EA064700FB06FC08FB06F607FB08F89E
:1049C00018EB06484CEB164C00FB07F718EB0748B2
:1049D0004CEB17404FEA124B22EA0B4E4FEA1546BA
:1049E00025EA06470BFB06FC0EFB06F607FB0EFE50
:1049F0001EEB064E4CEB164C0BFB07F71EEB074E5F
:104A00004CEB174B18EB0B0840F1000018EB0E0BAA
:104A100058EB000840F100008F1A4FF000014FF0F2
:104A200000063CBFC943661B14BFB5EB040C002154
:104A30003CBFC943F61B4FEA174427EA04454FEA37
:104A40001C472CEA074C04FB076205FB07F70CFB2D
:104A500005F616EB074642EB174204FB0CFC16EB7F
:104A60000C4642EB1C421BEB060658EB020241418E
:104A70004EEA8E0E46EA9E0601D5BDE80189B619BA
:104A8000524141EB0101A3F10103BDE801894FEA65
:104A9000144524EA05464FEA114721EA074C05FB75
:104AA00007F406FB07F70CFB06F111EB074144EB9B
:104AB000174405FB0CFC11EB0C4144EB1C444FEA82
:104AC000124722EA074C05FB07F206FB07F70CFB2F
:104AD00006F616EB074642EB174205FB0CFC16EBFD
:104AE0000C4642EB1C456A1854F1000148BF704760
:104AF000B619524141EB0101A3F10103704795F052
:104B0000000F37D04FEA114221EA02464FEA14471C
:104B100024EA074C02FB07F106FB07F70CFB06F43F
:104B200014EB074441EB174102FB0CFC14EB0C4463
:104B300041EB1C414FEA154725EA074C02FB07F5FC
:104B400006FB07F70CFB06F616EB074645EB174589
:104B500002FB0CFC16EB0C4645EB1C42121951F102
:104B6000000148BF7047B619524141EB0101A3F162
:104B7000010370474FEA144524EA05464FEA1147FE
:104B800021EA074C05FB07F106FB07F70CFB06F2D1
:104B900012EB074241EB174105FB0CFC12EB0C42F8
:104BA00051EB1C414FF0000648BF7047921841EB93
:104BB0000101A3F101037047490050EAC12018BF69
:104BC00004204A0D18BF40F0010040F2FF72B2EB22
:104BD000515F08BF40F00200012808BF0520704760
:104BE00030380A2801D201207047002070470000A9
:104BF00010B500290AD00878002807D00548784465
:104C0000FCF7ECFB002801D0002010BD02487844DE
:104C100010BD0000EA010000E201000010B500290B
:104C20000AD00878002807D005487844FCF7D6FB5E
:104C3000002801D0002010BD0248784410BD0000BB
:104C4000DA010000D2010000FBF7D2BFFCF706B981
:104C500000000000000000003031323334353637B8
:104C600038394142434445464030580030313233B0
:104C700034353637383961626364656640307800B0
:104C80000400000800000000000000020001000015
:104C90001030313233343536373839616263646508
:104CA0006678700030313233343536373839414226
:104CB000434445465850000002400000000000A058
:104CC0000000000005400000000000C800000000D7
:104CD0000C4000000000409C000000001940000053
:104CE0000020BCBE0000000034400000BFC91B8E85
:104CF00000000004B5400000504BCFD06607E2CF63
:104D0000010000006C4100003E8251AADFEEA73492
:104D100001000000D9420000DCB5A0E23A301F9744
:104D2000FFFFFFFFB4450000FD25A0C8E9A3C14F68
:104D3000FFFFFFFFFF3F00000000008000000000B9
:104D4000FF3F0000000000800000000000000000A5
:104D5000000000000102030406070809000000002B
:104D600001020304010202030405060708090A0BF5
:104D70000C0D0E0F10104C4F434B3A300052455360
:104D8000554C543A4D4953530043524F53534841A5
:104D900049523A25642C25640054494D453A25640E
:104DA00000524553554C543A4849543A25640043FF
:104DB0004F4D3A2053544152543D25642C205041CC
:104DC0005553453D25640000184F000800000020A1
:104DD0003000000050010008484F0008300000205B
:104DE00010090000700100081C00000043000000D2
:104DF000F8FFFFFF0C0000000E0000000F00000095
:104E00002E0000001001000043000000F8FFFFFF2B
:104E100000404040404040404040414141414140CD
:104E20004040404040404040404040404040404082
:104E30004005020202020202020202020202020211
:104E40000220202020202020202020020202020216
:104E5000020290909090909010101010101010106E
:104E6000101010101010101010101010020202027A
:104E700002028888888888880808080808080808BE
:104E800008080808080808080808080802020202BA
:104E900040000000000000000000000000000000D2
:104EA0000000000000000000000000000000000002
:104EB00000000000000000000000000000000000F2
:104EC00000000000000000000000000000000000E2
:104ED00000000000000000000000000000000000D2
:104EE00000000000000000000000000000000000C2
:104EF00000000000000000000000000000000000B2
:104F000000000000000000000000000000000000A1
:104F100000000000000000000101013C01019001BF
:104F20002C01FFFFFFFFF8F4F2F1C0F9A4B0999251
:104F300082F88090010000001000000000127A004A
:084F4000010000000000000068
:04000005080000ED02
:00000001FF
